:100000000C9401020C9498060C941E020C941E028F
:100010000C941E020C941E020C941E020C941E02E0
:100020000C941E020C941E020C941E020C941E02D0
:100030000C941E020C941E020C941E020C941E02C0
:100040000C941E020C941E020C941E020C941E02B0
:100050000C941E020C941E020C941E020C941E02A0
:100060000C941E020C941E0241542B43474E5350D5
:1000700057523D310D0A0041542B43474E535057C0
:10008000523D300D0A0041542B43475053505752B4
:100090003D300D0A0041542B434750535253543DB9
:1000A000310D0A0041542B434750535253543D30B5
:1000B0000D0A0041542B43475053494E463D300DE5
:1000C0000A002B434750535354415455533A204C44
:1000D0006F636174696F6E20324420466978002B2B
:1000E000434750535354415455533A204C6F636126
:1000F00074696F6E203344204669780041542B4365
:100100004750535354415455533F0D0A0041542B0B
:10011000434750535057523D310D0A0041542B4331
:1001200042430D0A0041542B43495047534D4C4F15
:10013000433D312C310D0A002B53415042523A209D
:10014000312C310041542B53415042523D302C311F
:100150000D0A0041542B53415042523D322C310D77
:100160000A0041542B53415042523D312C310D0A6B
:100170000041542B53415042523D332C312C2250DC
:100180005744222C22696E7465726E6574220D0AC2
:100190000041542B53415042523D332C312C2255B7
:1001A000534552222C22696E7465726E6574220D5D
:1001B0000A0041542B53415042523D332C312C22E2
:1001C00041504E222C22696E7465726E6574220D48
:1001D0000A0041542B53415042523D332C312C22C2
:1001E000434F4E54595045222C2247505253220D12
:1001F0000A000A424154544552595B6D565D3D0018
:10020000204C415449545544453D00204C4F4E47E5
:100210005449545544453D000D0A002C000D0A2058
:10022000687474703A2F2F6D6170732E676F6F67EB
:100230006C652E636F6D2F6D6170733F713D004172
:10024000542B434E45544C494748543D300D0A0009
:10025000415426570D0A0041542B4950523D39361E
:1002600030300D0A0041542B4353434C4B3D300D6D
:100270000A0041542B4353434C4B3D310D0A00417E
:10028000542B4346554E3D310D0A0041542B4346F5
:10029000554E3D340D0A0041542B434C49503D31DD
:1002A0000D0A00220A0D00414C4552542C20504F9B
:1002B000534954494F4E204348414E4745442054EA
:1002C0004F203A2020004755415244204D4F44458D
:1002D0002041435449564154454420004143544928
:1002E00056415445442043414C4C532046524F4DB7
:1002F000200057524F4E4720434F4D4D414E440A28
:1003000000434F4D4D414E442041434345505445D9
:10031000440A004755415244004143544956415410
:10032000450053494E474C45004D554C54490043F8
:100330004D543A0041542B434E4D493D312C322C03
:10034000302C302C300D0A0041542B434D47444192
:100350003D2244454C20414C4C220D0A0041542B77
:10036000434D47533D220041542B434D47463D31B9
:100370000D0A004154480A0D0041542B4346475290
:10038000493D310A0D0041542B4350494E3D223125
:10039000313131220A0D00415445300A0D004154DB
:1003A0002B4350494E3F0A0D002B4350494E3A20F3
:1003B00053494D2050494E002B4350494E3A20524C
:1003C000454144590041542B435245473D300A0DA5
:1003D0000041542B435245473F0A0D002B435245E1
:1003E000473A20302C35002B435245473A20302CD9
:1003F000310052494E47004F4B0041540041540ACE
:100400000D0011241FBECFEFD8E0DEBFCDBF13E03B
:10041000A0E0B1E0E2E2FAE102C005900D92A23163
:10042000B107D9F713E0A2E1B3E001C01D92A334F4
:10043000B107E1F70E94A3060C940F0D0C94000085
:1004400082E08093C0001092C5008CE08093C400CD
:10045000E1ECF0E08081886080838081806180832E
:10046000E2ECF0E080818660808308959091C00086
:1004700095FFFCCF8093C60008958091C00087FF50
:10048000FCCF8091C6000895CF93DF93AC01DC01CF
:1004900090E020E03D91FB01E90FF11D80813813D0
:1004A00020C090E0892F820FFA01E80FF11D308102
:1004B000C92FD0E031110BC0FB0101900020E9F7FA
:1004C0003197E61BF70BCE17DF0759F40FC0FB017E
:1004D000EC0FFD1F8081882379F33813EDCF9F5FE8
:1004E000E1CF2F5F2A3AB1F680E001C081E0DF91D1
:1004F000CF910895CF93DF93EC018991882319F070
:100500000E943602FACFDF91CF910895CF93DF9307
:10051000EC01CE01FE012491222331F02196FC0151
:1005200084910E943602F5CFDF91CF910895CF9349
:1005300010924203C6E90E943D02282F30E02A3083
:10054000310579F02D30310561F0E0914203F0E0A2
:10055000E859FD4F8083809142038F5F809342036F
:100560000DC080914203882349F0E0914203F0E0FE
:10057000E859FD4F10821092420302C0C150D9F6D3
:1005800081E0CF910895CF9310923F03C6E90E9476
:100590003D02282F30E02A30310579F02D30310529
:1005A00061F0E0913F03F0E0EA56FE4F80838091D6
:1005B0003F038F5F80933F030DC080913F038823EB
:1005C00049F0E0913F03F0E0EA56FE4F10821092AE
:1005D0003F0302C0C150D9F681E0CF910895CF9377
:1005E00010923D0310923E0310924203C0E00E941D
:1005F0003D02CF5F8C3219F0C431C9F75EC0C431FF
:1006000009F45BC00E943D02E0913D03F0E0E25935
:10061000FE4F808390913D039F5F90933D03CF5F9A
:100620008C3249F4E0913D03F0E0E359FE4F108233
:1006300010923D0305C0C63429F7F4CFC63480F4C8
:100640000E943D02E0913E03F0E0EE57FE4F8083B2
:1006500090913E039F5F90933E03CF5F8C3271F782
:10066000E0913E03F0E0EF57FE4F108210923E0300
:1006700005C02A303105A9F0C63498F40E943D0225
:10068000282F30E0E0914203F0E0E859FD4F8083ED
:10069000809142038F5F80934203CF5F2D303105FD
:1006A00041F7E0914203F0E0E959FD4F10821092CA
:1006B00042030E943D0281E001C080E0CF91089595
:1006C000CF9310924103C0E00E943D02CF5F8A3376
:1006D00011F0C639C9F70E943D02CF5F823211F096
:1006E000C639C8F30E943D02E0914103F0E0EC5AA4
:1006F000FD4F8083909141039F5F90934103CF5FB3
:10070000823249F4E0914103F0E0ED5AFD4F10824E
:100710001092410307C0C63928F3F4CF0D9749F072
:10072000C63938F40E943D0290E0CF5F8A309105CF
:10073000A9F781E0CF9108951092410310924203EE
:1007400080E0E0914203F0E0E859FD4F2081909174
:1007500042039F5F909342038F5F2A3311F08639E3
:1007600081F7E0914203F0E0E859FD4F208190913C
:1007700042039F5F909342038F5F223211F08639CC
:1007800080F3E0914203F0E0E859FD4F2081909121
:1007900042039F5F90934203E0914103F0E0EC5AE3
:1007A000FD4F2083909141039F5F909341038F5FA2
:1007B000223211F0863928F3E0914103F0E0ED5A3E
:1007C000FD4F1082109241031092420381E0089580
:1007D000CF9310921303C0E00E943D02CF5F8C3292
:1007E00019F0C634C9F72BC0C63449F10E943D0246
:1007F000CF5F8C3211F0C634C9F70E943D02282F1A
:1008000030E0E0911303F0E0E050FF4F80838091EF
:1008100013038F5F80931303CF5F2A30310529F0D4
:100820002D30310511F0C63440F3E0911303F0E0B0
:10083000E150FF4F10821092130381E001C080E06D
:10084000CF910895CF9310923D0310923E031092E2
:100850003C0383EB90E00E948602C0E00E943D02D0
:10086000CF5F8A3319F0C431C9F775C0C43109F4B8
:1008700072C00E943D02CF5F8C3211F0C639C9F7B9
:100880000E943D02E0913E03F0E0EE57FE4F808370
:1008900090913E039F5F90933E03CF5F8C3249F46B
:1008A000E0913E03F0E0EF57FE4F108210923E03BE
:1008B00005C0C63928F3F4CFC63980F40E943D0242
:1008C000E0913D03F0E0E259FE4F808390913D03BB
:1008D0009F5F90933D03CF5F8C3271F7E0913D03B2
:1008E000F0E0E359FE4F108210923D0302C0C6397A
:1008F00040F40E943D02CF5F8C32C9F702C0C63976
:1009000040F40E943D02CF5F8C32C9F702C0C63965
:1009100040F40E943D02CF5F8C32C9F702C0C63955
:1009200080F40E943D02E0913C03F0E0E65FFE4F60
:10093000808390913C039F5F90933C03CF5F8C3208
:1009400071F7E0913C03F0E0E75FFE4F10821092F8
:100950003C0381E001C080E0CF910895882361F0DD
:1009600026E033E14EEA4A95F1F73A95E1F72A9508
:10097000D1F700C08150F2CF0895CF93DF938091DB
:100980001203813021F0809112038530C9F481E097
:1009900090E00E94AE0488E690E00E94860282E029
:1009A00090E00E94AE048DE091E00E94860282E019
:1009B00090E00E94AE0484EA90E00E94860204C0A7
:1009C00081E090E00E94AE04C0E08FE090E00E94E1
:1009D000AE048CEF90E00E9486020E94970288236A
:1009E00009F440C04DE150E06FED70E084E193E028
:1009F0000E94F80C64E173E088E692E00E944402F1
:100A0000D82FC33119F0D13061F510C04DE150E05D
:100A100062EC70E084E193E00E94F80C64E173E022
:100A200088E692E00E944402813069F70E94220425
:100A300082E090E00E94AE04C0911203C13071F5D3
:100A400086E890E00E94860281E090E00E94AE0479
:100A500087E790E00E94860281E090E00E94AE0469
:100A600020C0CF5FC43108F4B0CF82E090E00E9494
:100A7000AE0480911203813099F486E890E00E94E0
:100A8000860281E090E00E94AE0487E790E00E9439
:100A9000860281E090E00E94AE0402C0C1E001C085
:100AA000C0E08C2FDF91CF9108956115710581050C
:100AB000910549F020E12A95F1F700C061507109D4
:100AC00081099109F2CF0895CF938DEF93E00E94B1
:100AD00086020E94970243E050E0882319F067EFF6
:100AE00073E002C06AEF73E084E193E00E94F80CC7
:100AF00064E173E088E692E00E944402C1E0813044
:100B000009F0C0E081E00E94AE04CC23F1F282E063
:100B10000E94AE0487E993E00E94860281E00E9471
:100B2000AE0481E0CF910895CF9382E00E94AE049D
:100B30008EE993E00E9486020E9497028823A9F31F
:100B40004DE050E068EB73E084E193E00E94F80C24
:100B500064E173E088E692E00E944402C82F4FE00F
:100B600050E069EA73E084E193E00E94F80C64E1EC
:100B700073E088E692E00E944402813049F40E94CA
:100B8000AE0486E893E00E94860281E00E94AE04F3
:100B9000C13059F681E0CF910895CF93DF9381E082
:100BA0000E94AE0481ED93E00E9486020E949702AB
:100BB000811102C0C8E122C04BE050E067EE73E053
:100BC00084E193E00E94F80C64E173E088E692E02F
:100BD0000E944402813009F468C04BE050E06CEDA3
:100BE00073E084E193E00E94F80C64E173E088E62E
:100BF00092E00E9444028130E9F657C081E00E94F1
:100C0000AE048FE792E00E94860288E70E94AE045D
:100C100081ED93E00E9486020E949702882309F4E6
:100C200046C04BE050E067EE73E084E193E00E9441
:100C3000F80C64E173E088E692E00E944402D82F49
:100C40004BE050E06CED73E084E193E00E94F80C1F
:100C500064E173E088E692E00E944402813029F169
:100C600081E0D13041F10E94AE048BE892E00E9415
:100C7000860281E00E94AE0487E790E00E9486022F
:100C800081E00E94AE0486E890E00E948602DEE1E8
:100C90008CE30E94AE04D150D9F78FE792E00E9416
:100CA00086028CE30E94AE0402C081E004C0C15001
:100CB00009F0A4CF80E0DF91CF91089581E00E94F8
:100CC000AE0482ED91E00E94860281E00E94AE04B3
:100CD00082EB91E00E94860281E00E94AE0481E9ED
:100CE00091E00E94860281E00E94AE0481E791E0DB
:100CF0000E94860281E00E94AE0481E0089583B7DD
:100D0000817F846083BF83B7816083BF52985A9A82
:100D1000F894E9E6F0E080818D7F808380818E7F8A
:100D20008083E89A7894889583B78E7F83BF0895EF
:100D30001F920F920FB60F921124E8980F900FBEDA
:100D40000F901F901895CF93DF9300D01F92CDB7CF
:100D5000DEB752985A9A3D9A4598459A0E942002C9
:100D60008AE00E94AE0487E993E00E94860281E057
:100D70000E94AE040E94640582E00E94AE0485ECED
:100D800093E00E94860282E00E94AE0480E592E039
:100D90000E94860283E00E94AE040E94940581E0D6
:100DA0000E94AE048FE792E00E94860288E70E94CC
:100DB000AE040E94CD05BB24BA9414E105E0109264
:100DC000120381E00E94AE0487E992E00E9486024D
:100DD00082E00E94AE0487E693E00E94860282E0F1
:100DE0000E94AE0484E393E00E94860282E00E94A7
:100DF000AE0487E790E00E94860281E00E94AE0484
:100E000086E890E00E94860281E00E94AE0430E80D
:100E1000C32E38EAD32E32E1E32EFF24F3948091DF
:100E2000C00087FD14C061E070E080E090E00E94A7
:100E3000550521E0C21AD108E108F10881F70E94A6
:100E4000CD0581E00E94AE0410921203E0CF0E9413
:100E50009702882309F4E0C145E050E06FE273E0B7
:100E600084E193E00E94F80C64E173E088E692E08C
:100E70000E944402813011F020E041C10E94C3026F
:100E80000E949C031092120346E050E069E273E076
:100E900084E193E00E94F80C64E173E086E991E05C
:100EA0000E9444028130A9F50E94AE0487E693E0D7
:100EB0000E94860281E00E94AE048DE593E00E94CC
:100EC000860284E592E00E947A0283EA92E00E9420
:100ED000860281E00E94AE0481E093E00E948602D7
:100EE0008AE10E9436028AE00E94AE0487E693E01F
:100EF0000E94860282E00E94AE0488E493E00E9491
:100F0000860283E00E94AE0400931203EE24E39471
:100F100001C0E12C47E050E062E273E084E193E03D
:100F20000E94F80C64E173E086E991E00E944402BB
:100F3000F82E31E0831335C081E00E94AE0487E6CD
:100F400093E00E94860281E00E94AE048DE593E06A
:100F50000E94860284E592E00E947A0283EA92E08F
:100F60000E94860281E00E94AE0481E093E00E942C
:100F700086028AE10E9436028AE00E94AE0487E679
:100F800093E00E94860282E00E94AE0488E493E02F
:100F90000E94860283E00E94AE04F0921203EE24C7
:100FA000E39449E050E069E173E084E193E00E945A
:100FB000F80C64E173E086E991E00E94440281301C
:100FC00009F043C00E94AE04E4E5F2E0A0E4B2E020
:100FD000812F01900D928A95E1F787E693E00E94B8
:100FE000860281E00E94AE048DE593E00E948602B5
:100FF00080E492E00E947A0283EA92E00E948602F4
:1010000081E00E94AE048CED92E00E94860284E5AD
:1010100092E00E947A028AE10E9436028AE00E94EF
:10102000AE0487E693E00E94860282E00E94AE044E
:1010300088E493E00E94860283E00E94AE0410924E
:101040001203FF24F394E12C01C0FE2C46E050E093
:1010500063E173E084E193E00E94F80C64E173E0E3
:1010600086E991E00E944402813009F04BC00E9461
:10107000AE0487E693E00E94860281E00E94AE04FF
:101080008DE593E00E94860280E492E00E947A025D
:1010900083EA92E00E94860281E00E94AE0486EC20
:1010A00092E00E9486028AE10E9436028AE00E9453
:1010B000AE0487E693E00E94860282E00E94AE04BE
:1010C00088E493E00E94860283E00E94AE04B0921E
:1010D000120388E690E00E94860282E00E94AE043D
:1010E0008DE091E00E94860282E00E94AE0484EAD4
:1010F00090E00E94860281E00E94AE0421E0EE248E
:10110000E3942CC0F11029C0E110B6CE81E00E941A
:10111000AE0487E693E00E94860281E00E94AE045E
:101120008DE593E00E94860284E592E00E947A02B7
:1011300083EA92E00E94860281E00E94AE0482EF80
:1011400092E00E9486028AE10E9436028AE00E94B2
:10115000AE041092120320E001C021E045E050E00F
:1011600062EF73E084E193E029830E94F80C64E16C
:1011700073E088E692E00E9444022981813029F5DB
:101180000E94600383E793E00E94860281E00E9450
:10119000AE0487E693E00E94860282E00E94AE04DD
:1011A00088E493E00E94860283E00E94AE0460E43B
:1011B00072E084E592E00E944402813019F4809349
:1011C00012032AC01092120302C0211122C081E032
:1011D0000E94AE040E9494050E94CD0581E00E9409
:1011E000AE0487E693E00E94860282E00E94AE048D
:1011F00088E493E00E94860283E00E94AE0484E4C7
:1012000091E00E94860285E00E94AE0410921203D3
:10121000D6CDEE2009F4D3CD9EE6292E91E0392ECD
:101220002AE0822E912CA12CB12C02E811E00E9420
:10123000BD04813009F01FC2F10101900020E9F7DF
:10124000CF0101978E5691409C0133273B832A831F
:10125000F901E459FE4FC080D12C30E3C31AD10804
:10126000EE24D7FCE094FE2CEA81FB81E559FE4F89
:10127000A081B0E0D097EA81FB81E659FE4F408122
:1012800050E0405351092AE030E00E94AD0C2B01A0
:101290003C0124E630E0DA010E94AD0C460E571EF8
:1012A000681E791EC40CD51CE61CF71CEA81FB8164
:1012B000E759FE4FA081B0E0D09728EE33E00E94BE
:1012C000AD0CC60ED71EE81EF91EEA81FB81E85957
:1012D000FE4FA081B0E0D09720E137E20E94AD0C34
:1012E000C60ED71EE81EF91EEA81FB81EA59FE4FA1
:1012F000A081B0E0D09720EA36E841E050E00E94BB
:10130000B40CC60ED71EE81EF91EEA81FB81EB590C
:10131000FE4FA081B0E0D09720E432E44FE050E0EF
:101320000E94B40C6C0D7D1D8E1D9F1D2CE330E0C2
:1013300040E050E00E94BC0C29013A01EA81FB81A7
:10134000EC59FE4FA081B0E0D09720E836E948E99B
:1013500050E00E94B40C6B017C018A819B818B3030
:10136000910550F1FC01ED59FE4F80818D3269F0FD
:10137000A081B0E0D09720E031EE45EF55E00E942B
:10138000B40CC60ED71EE81EF91EEA81FB81EC30B4
:10139000F10590F0EE59FE4F80818D3269F0A08109
:1013A000B0E0D09720E03AEC4AE95BE30E94B40C4D
:1013B000C60ED71EE81EF91EC701B601640D751DC5
:1013C000861D971D20916E012D3209F020E3209398
:1013D000460120E03AEC4AE95BE30E94BC0C205D48
:1013E0002093470120E031EE45EF55E00E94BC0C10
:1013F000205D2093480120E836E948E950E00E944A
:10140000BC0C205D209349012EE220934A0120E488
:1014100032E44FE050E00E94BC0C20EA36E841E0A4
:1014200050E00E94BC0C20E137E240E050E00E9416
:10143000BC0C205D20934B0128EE33E040E050E0EF
:101440000E94BC0C205D20934C0124E630E040E07B
:1014500050E00E94BC0C205D20934D01A501940139
:101460000E94BC0C205D20934E01605D60934F0193
:1014700010925001F80101900020E9F7CF01019787
:10148000825891409C0133273B832A83F901E0581D
:10149000FE4FC080D12C30E3C31AD108EE24D7FC14
:1014A000E094FE2CEA81FB81E158FE4FA081B0E080
:1014B000D097EA81FB81E258FE4F408150E04053D3
:1014C00051092AE030E00E94AD0C2B013C0124E6DA
:1014D00030E0DA010E94AD0C460E571E681E791EE0
:1014E000C40CD51CE61CF71CEA81FB81E358FE4FB7
:1014F000A081B0E0D09728EE33E00E94AD0CC60E7C
:10150000D71EE81EF91EEA81FB81E458FE4FA08138
:10151000B0E0D09720E137E20E94AD0CC60ED71E96
:10152000E81EF91EEA81FB81E658FE4FA081B0E07B
:10153000D09720EA36E841E050E00E94B40CC60E95
:10154000D71EE81EF91EEA81FB81E758FE4FA081F5
:10155000B0E0D09720E432E44FE050E00E94B40CB9
:101560006C0D7D1D8E1D9F1D2CE330E040E050E092
:101570000E94BC0C69017A01EA81FB81E858FE4FA8
:10158000A081B0E0D09720E836E948E950E00E9419
:10159000B40C2B013C018A819B818B30910598F022
:1015A000FC01E958FE4F80818D3269F0A081B0E0E6
:1015B000D09720E031EE45EF55E00E94B40C460E86
:1015C000571E681E791EC301B2016C0D7D1D8E1D54
:1015D0009F1D209182012D3209F020E320935A01B2
:1015E00020E031EE45EF55E00E94BC0C205D2093D9
:1015F0005B0120E836E948E950E00E94BC0C205D20
:1016000020935C012EE220935D0120E432E44FE060
:1016100050E00E94BC0C20EA36E841E050E00E9415
:10162000BC0C20E137E240E050E00E94BC0C205DA1
:1016300020935E0128EE33E040E050E00E94BC0CB5
:10164000205D20935F0124E630E040E050E00E94FE
:10165000BC0C205D20936001A50194010E94BC0C8C
:10166000205D20936101605D6093620110926301CF
:10167000FF24F39401C0F12C0E94BD04811169C1C3
:10168000809112038F3F09F464C183E0F82E81E05A
:101690000E94AE0484E491E00E94860284E00E94ED
:1016A000AE040E945E0682E691E00E9486028AE015
:1016B0000E94AE0483E591E00E9486020E94970298
:1016C000882389F04CE050E068E371E084E193E026
:1016D0000E94F80C64E173E088E692E00E94440204
:1016E00091E0813009F090E0FA94FF2019F09923FD
:1016F00071F203C0913009F0F9C081E00E94AE049C
:1017000085E291E00E9486020E94EF02F82E81118C
:1017100003C087E30E94AE0485E00E94AE0484E427
:1017200091E00E94860285E00E94AE0491E0F912E9
:10173000DDC0F12C809112038F3F09F46EC081E06F
:101740000E94AE048CE191E00E9486020E94E803B0
:1017500081E00E94AE0487E693E00E94860281E069
:101760000E94AE048DE593E00E94860284E592E03B
:101770000E947A0283EA92E00E94860281E00E943F
:10178000AE04F11004C088E692E00E947A028BE079
:1017900092E00E948602F11003C08EE691E002C042
:1017A00086E491E00E947A0280E092E00E94860244
:1017B000F11003C082E891E002C08AE591E00E9446
:1017C0007A0282EF91E00E94860280E091E00E941E
:1017D0007A028DE192E00E948602F11003C082E855
:1017E00091E002C08AE591E00E947A028BE192E0EA
:1017F0000E948602F11003C08EE691E002C086E4EA
:1018000091E00E947A0288E192E00E94860281E0E3
:101810000E94AE048AE10E943602E1E0FE1266C038
:10182000809112038F3F09F061C042E150E06AE508
:1018300071E082E391E00E94010D892B59F442E1AD
:1018400050E066E471E08EE191E00E94010D892B89
:1018500009F449C081E00E94AE0487E693E00E944B
:10186000860281E00E94AE048DE593E00E9486022C
:1018700084E592E00E947A0283EA92E00E94860266
:1018800081E00E94AE0487EA92E00E9486028DE128
:1018900092E00E9486028AE591E00E947A028BE142
:1018A00092E00E94860286E491E00E947A0288E13A
:1018B00092E00E94860281E00E94AE048AE10E94CA
:1018C0003602109212038AE00E94AE0486E890E08D
:1018D0000E94860281E00E94AE0487E790E00E94A9
:1018E000860281E001C08CE30E94AE0484E1EAE557
:1018F000F1E0A2E3B1E001900D928A95E1F784E175
:10190000E6E4F1E0AEE1B1E001900D928A95E1F7F5
:10191000809112038F3F29F08091120381508093B0
:10192000120380911203882361F0809112038F3F8C
:1019300041F08CE30E94AE048CE30E94AE048CE381
:1019400001C08AE00E94AE048091120381116FCC25
:1019500032CAF1E0FF12CACFEDCE0E94DE0CB7FF13
:101960000895821B930B0895B7FF0C94ED0C0E9411
:10197000ED0C821B930B0895A1E21A2EAA1BBB1B30
:10198000FD010DC0AA1FBB1FEE1FFF1FA217B3074B
:10199000E407F50720F0A21BB30BE40BF50B661F61
:1019A000771F881F991F1A9469F760957095809525
:1019B00090959B01AC01BD01CF010895A29FB0019C
:1019C000B39FC001A39F700D811D1124911DB29F73
:1019D000700D811D1124911D08950E94DE0CA59F9C
:1019E000900DB49F900DA49F800D911D112408951A
:1019F000FB01DC0102C005900D9241505040D8F728
:101A00000895FB01DC014150504030F08D91019070
:101A1000801919F40020B9F7881B990B0895F894E0
:021A2000FFCFF6
:101A22003132333435363738393031323334353672
:101A3200373839303132333435363738393031325C
:101A42003334353637383930313233343536373846
:101A52003930313233343536373839303132333444
:101A62003536373839303132333435363738393024
:101A72003132333435363738393031323334353622
:101A8200373839303132333435363738393031320C
:101A920033343536373839303132333435363738F6
:101AA20039303132333435363738393031323334F4
:101AB20035363738393031323334353637383930D4
:101AC20031323334353637383930313233343536D2
:101AD20037383930313233343536373839303132BC
:101AE20033343536373839303132333435363738A6
:101AF20039303132333435363738393031323334A4
:101B02003536373839303132333435363738393083
:101B12003132333435363738393031323334353681
:101B2200373839303132333435363738393031326B
:101B32003334353637383930313233343536373855
:101B42003930313233343536373839303132333453
:101B52003536373839303132333435363738393033
:101B62003132333435363738393031323334353631
:101B7200373839303132333435363738393031321B
:101B82003334353637383930313233343536373805
:101B92003930313233343536373839303132333403
:101BA20035363738393031323334353637383930E3
:101BB20031323334353637383930313233343536E1
:101BC20037383930313233343536373839303132CB
:101BD20033343536373839303132333435363738B5
:101BE20039303132333435363738393031323334B3
:101BF2003536373839303132333435363738393093
:101C02003132333435363738393031323334353690
:101C1200373839303132333435363738393031327A
:101C22003334353637383930313233343536373864
:021C3200393047
:00000001FF
