:100000000C946B020C941D070C9488020C948802CB
:100010000C9488020C9488020C9488020C94880238
:100020000C9488020C9488020C9488020C94880228
:100030000C9488020C9488020C9488020C94880218
:100040000C9488020C9488020C9488020C94880208
:100050000C9488020C9488020C9488020C948802F8
:100060000C9488020C94880241542B43474E535001
:1000700057523D310D0A0041542B43474E535057C0
:10008000523D300D0A0041542B43475053505752B4
:100090003D300D0A0041542B434750535253543DB9
:1000A000310D0A0041542B434750535253543D30B5
:1000B0000D0A0041542B43475053494E463D300DE5
:1000C0000A002B434750535354415455533A204C44
:1000D0006F636174696F6E20324420466978002B2B
:1000E000434750535354415455533A204C6F636126
:1000F00074696F6E203344204669780041542B4365
:100100004750535354415455533F0D0A0041542B0B
:10011000434750535057523D310D0A0041542B4331
:1001200042430D0A0041542B43495047534D4C4F15
:10013000433D312C310D0A002B53415042523A209D
:10014000312C310041542B53415042523D302C311F
:100150000D0A0041542B53415042523D322C310D77
:100160000A0041542B53415042523D312C310D0A6B
:100170000041542B53415042523D332C312C2250DC
:100180005744222C22696E7465726E6574220D0AC2
:100190000041542B53415042523D332C312C2255B7
:1001A000534552222C22696E7465726E6574220D5D
:1001B0000A0041542B53415042523D332C312C22E2
:1001C00041504E222C22696E7465726E6574220D48
:1001D0000A0041542B53415042523D332C312C22C2
:1001E000434F4E54595045222C2247505253220D12
:1001F0000A000A424154544552595B6D565D3D0018
:10020000204C415449545544453D00204C4F4E47E5
:100210005449545544453D000D0A002C000D0A2058
:10022000687474703A2F2F6D6170732E676F6F67EB
:100230006C652E636F6D2F6D6170733F713D004172
:10024000542B434E45544C494748543D300D0A0009
:10025000415426570D0A0041542B4950523D39361E
:1002600030300D0A0041542B4353434C4B3D300D6D
:100270000A0041542B4353434C4B3D310D0A00417E
:10028000542B4346554E3D310D0A0041542B4346F5
:10029000554E3D340D0A0041542B434C49503D31DD
:1002A0000D0A00220A0D004755415244204D4F448B
:1002B000452053544F5050454400414C4552542C16
:1002C00020504F534954494F4E204348414E4745D3
:1002D0004420544F203A2020004755415244204D9D
:1002E0004F4445204143544956415445442E2E2005
:1002F000504C4541534520574149542035204D49E4
:100300004E55544553204245464F5245204E455880
:100310005420434F4D4D414E440A004143544956E9
:10032000415445442043414C4C532046524F4D20AC
:10033000004D554C5449504C45204D454153555264
:10034000454D454E545320494E2050524F4752453B
:1003500053532E2E20504C4541534520574149546C
:10036000203235204D494E55544553204245464F85
:100370005245204E45585420434F4D4D414E440A5E
:100380000053494E474C45204D4541535552454D2C
:10039000454E5420494E2050524F47524553532EFC
:1003A0002E2E20504C45415345205741495420376B
:1003B0002D38204D494E55544553204245464F5205
:1003C00045204E45585420434F4D4D414E440A0060
:1003D000434F4D4D414E44204143434550544544C5
:1003E0000A0053544F500047554152440041435472
:1003F00049564154450053494E474C45004D554CD4
:10040000544900434D543A0041542B434E4D493D0D
:10041000312C322C302C302C300D0A0041542B431F
:100420004D4744413D2244454C20414C4C220D0A4D
:100430000041542B434D47533D220041542B434D23
:1004400047463D310D0A004154480A0D0041542BE6
:1004500043464752493D310A0D0041542B43504910
:100460004E3D2231313131220A0D00415445300ACE
:100470000D0041542B4350494E3F0A0D002B435071
:10048000494E3A2053494D2050494E002B43504984
:100490004E3A2052454144590041542B435245475E
:1004A0003D300A0D0041542B435245473F0A0D0091
:1004B0002B435245473A20302C35002B43524547B9
:1004C0003A20302C310052494E47004F4B004154E6
:1004D0000041540A0D0011241FBECFEFD8E0DEBF4B
:1004E000CDBF13E0A0E0B1E0EEE5FDE102C0059074
:1004F0000D92A231B107D9F713E0A2E1B3E001C038
:100500001D92A334B107E1F70E9428070C94AD0EA9
:100510000C94000082E08093C0001092C5008CE033
:100520008093C400E1ECF0E080818860808380816A
:1005300080618083E2ECF0E08081866080830895B2
:100540009091C00095FFFCCF8093C60008958091E4
:10055000C00087FFFCCF8091C6000895CF93DF9342
:10056000AC01DC0190E020E03D91FB01E90FF11DC1
:100570008081381320C090E0892F820FFA01E80FA4
:10058000F11D3081C92FD0E031110BC0FB0101906A
:100590000020E9F73197E61BF70BCE17DF0759F478
:1005A0000FC0FB01EC0FFD1F8081882379F3381306
:1005B000EDCF9F5FE1CF2F5F2A3AB1F680E001C017
:1005C00081E0DF91CF910895CF93DF93EC01899182
:1005D000882319F00E94A002FACFDF91CF910895ED
:1005E000CF93DF93EC01CE01FE012491222331F061
:1005F0002196FC0184910E94A002F5CFDF91CF915A
:100600000895CF9310924203C6E90E94A702282FB3
:1006100030E02A30310579F02D30310561F0E0917C
:100620004203F0E0E859FD4F8083809142038F5FE1
:10063000809342030DC080914203882349F0E091EA
:100640004203F0E0E859FD4F10821092420302C0CD
:10065000C150D9F681E0CF910895CF9310923F0316
:10066000C6E90E94A702282F30E02A30310579F030
:100670002D30310561F0E0913F03F0E0EA56FE4F86
:10068000808380913F038F5F80933F030DC08091F3
:100690003F03882349F0E0913F03F0E0EA56FE4F24
:1006A000108210923F0302C0C150D9F681E0CF9171
:1006B0000895CF9310923D0310923E03109242038F
:1006C000C0E00E94A702CF5F8C3219F0C431C9F795
:1006D0005EC0C43109F45BC00E94A702E0913D03F3
:1006E000F0E0E259FE4F808390913D039F5F90932D
:1006F0003D03CF5F8C3249F4E0913D03F0E0E359D4
:10070000FE4F108210923D0305C0C63429F7F4CF86
:10071000C63480F40E94A702E0913E03F0E0EE5759
:10072000FE4F808390913E039F5F90933E03CF5F87
:100730008C3271F7E0913E03F0E0EF57FE4F1082EC
:1007400010923E0305C02A303105A9F0C63498F452
:100750000E94A702282F30E0E0914203F0E0E85920
:10076000FD4F8083809142038F5F80934203CF5F70
:100770002D30310541F7E0914203F0E0E959FD4F9A
:100780001082109242030E94A70281E001C080E023
:10079000CF910895CF9310924103C0E00E94A70229
:1007A000CF5F8A3311F0C639C9F70E94A702CF5F25
:1007B000823211F0C639C8F30E94A702E0914103CA
:1007C000F0E0EC5AFD4F8083909141039F5F90933E
:1007D0004103CF5F823249F4E0914103F0E0ED5AEA
:1007E000FD4F10821092410307C0C63928F3F4CFA1
:1007F0000D9749F0C63938F40E94A70290E0CF5F08
:100800008A309105A9F781E0CF91089510924103B4
:100810001092420380E0E0914203F0E0E859FD4F7E
:100820002081909142039F5F909342038F5F2A3310
:1008300011F0863981F7E0914203F0E0E859FD4F6D
:100840002081909142039F5F909342038F5F2232F9
:1008500011F0863980F3E0914203F0E0E859FD4F52
:100860002081909142039F5F90934203E091410366
:10087000F0E0EC5AFD4F2083909141039F5F9093ED
:1008800041038F5F223211F0863928F3E091410352
:10089000F0E0ED5AFD4F1082109241031092420396
:1008A00081E00895CF9310921303C0E00E94A70245
:1008B000CF5F8C3219F0C634C9F72BC0C63449F16A
:1008C0000E94A702CF5F8C3211F0C634C9F70E9494
:1008D000A702282F30E0E0911303F0E0E050FF4F33
:1008E0008083809113038F5F80931303CF5F2A303F
:1008F000310529F02D30310511F0C63440F3E09177
:100900001303F0E0E150FF4F10821092130381E0D7
:1009100001C080E0CF910895CF9310923D031092D3
:100920003E0310923C0383EB90E00E94F002C0E093
:100930000E94A702CF5F8A3319F0C431C9F775C08E
:10094000C43109F472C00E94A702CF5F8C3211F04B
:10095000C639C9F70E94A702E0913E03F0E0EE57C6
:10096000FE4F808390913E039F5F90933E03CF5F45
:100970008C3249F4E0913E03F0E0EF57FE4F1082D5
:1009800010923E0305C0C63928F3F4CFC63980F46F
:100990000E94A702E0913D03F0E0E259FE4F808300
:1009A00090913D039F5F90933D03CF5F8C3271F731
:1009B000E0913D03F0E0E359FE4F108210923D03B9
:1009C00002C0C63940F40E94A702CF5F8C32C9F73B
:1009D00002C0C63940F40E94A702CF5F8C32C9F72B
:1009E00002C0C63940F40E94A702CF5F8C32C9F71B
:1009F00002C0C63980F40E94A702E0913C03F0E0F7
:100A0000E65FFE4F808390913C039F5F90933C0391
:100A1000CF5F8C3271F7E0913C03F0E0E75FFE4F6F
:100A2000108210923C0381E001C080E0CF910895D4
:100A3000882361F026E033E14EEA4A95F1F73A95D2
:100A4000E1F72A95D1F700C08150F2CF0895CF93F6
:100A5000DF9380911203813021F080911203853061
:100A6000C9F481E090E00E94180588E690E00E94B9
:100A7000F00282E090E00E9418058DE091E00E9473
:100A8000F00282E090E00E94180584EA90E00E9463
:100A9000F00204C081E090E00E941805C0E080915F
:100AA00012038F3F21F08FE090E00E9418058CEF39
:100AB00090E00E94F0020E940103882309F446C0DE
:100AC0004DE150E06FED70E084E193E00E94920E02
:100AD00064E173E088E692E00E94AE02D82FC33151
:100AE00019F0D13091F417C04DE150E062EC70E0A4
:100AF00084E193E00E94920E64E173E088E692E064
:100B00000E94AE02813069F706C0809112038F3FC8
:100B1000C1F1CF5F1BC00E948C0482E090E00E9474
:100B20001805C0911203C13071F586E890E00E946B
:100B3000F00281E090E00E94180587E790E00E94B3
:100B4000F00281E090E00E9418051EC0C43108F454
:100B5000A6CF82E090E00E941805809112038130B8
:100B600081F486E890E00E94F00281E090E00E942B
:100B7000180587E790E00E94F00281E090E00E9473
:100B80001805C0E001C0C1E08C2FDF91CF9108951E
:100B900020E12A95F1F700C00895CF9381ED94E00C
:100BA0000E94F0020E94010343E050E0882319F004
:100BB0006BEC74E002C06EEC74E084E193E00E94A0
:100BC000920E64E173E088E692E00E94AE02C1E01A
:100BD000813009F0C0E081E00E941805CC23F1F2D9
:100BE00081E00E9418058BE694E00E94F00281E00B
:100BF0000E94180581E0CF910895CF9382E00E9472
:100C0000180582E794E00E94F0020E940103882305
:100C1000A9F34DE050E06CE874E084E193E00E94B9
:100C2000920E64E173E088E692E00E94AE02C82F63
:100C30004FE050E06DE774E084E193E00E94920E93
:100C400064E173E088E692E00E94AE02813049F4EC
:100C50000E9418058AE594E00E94F00281E00E945B
:100C60001805C13059F681E0CF910895CF93DF93F5
:100C700081E00E94180585EA94E00E94F0020E943B
:100C80000103811102C0C8E122C04BE050E06BEBD0
:100C900074E084E193E00E94920E64E173E088E6E0
:100CA00092E00E94AE02813009F484C04BE050E033
:100CB00060EB74E084E193E00E94920E64E173E0E3
:100CC00088E692E00E94AE028130E9F673C081E0CE
:100CD0000E9418058FE792E00E94F0028CE30E94C8
:100CE000180585EA94E00E94F0020E94010388231F
:100CF00009F462C04BE050E06BEB74E084E193E0F8
:100D00000E94920E64E173E088E692E00E94AE02D7
:100D1000D82F4BE050E060EB74E084E193E00E9458
:100D2000920E64E173E088E692E00E94AE028130A8
:100D300009F440C081E0D13009F442C00E94180596
:100D40008BE892E00E94F00281E00E94180587E79C
:100D500090E00E94F00281E00E94180586E890E091
:100D60000E94F00281E00E94180582E792E00E9452
:100D7000F002DEE18CE30E941805D150D9F74598C6
:100D800081ED94E00E94F00281E00E94180585E662
:100D900092E00E94F00281E00E941805459A81E0ED
:100DA0000E9418058FE792E00E94F0028CE30E94F7
:100DB000180502C081E004C0C15009F088CF80E06E
:100DC000DF91CF91089581E00E94180582ED91E0B6
:100DD0000E94F00281E00E94180582EB91E00E94DF
:100DE000F00281E00E94180581E991E00E94F00282
:100DF00081E00E94180581E791E00E94F00281E005
:100E00000E94180581E0089583B7817F846083BFC5
:100E100083B7816083BF52985A9AF894E9E6F0E06C
:100E200080818D7F808380818E7F8083E89A789413
:100E3000889583B78E7F83BF08951F920F920FB658
:100E40000F921124E8980F900FBE0F901F901895E5
:100E50001092120352985A9A3D9A4598459A0E94C8
:100E60008A028AE00E9418058BE694E00E94F00254
:100E700081E00E9418050E94CD0581E00E941805BE
:100E800087E592E00E94F00281E00E9418058FE75A
:100E900092E00E94F00281E00E94180589E994E046
:100EA0000E94F00281E00E94180580E592E00E9415
:100EB000F00283E00E9418050E94FD0581E00E9477
:100EC00018058BE394E00E94F00281E00E9418056F
:100ED0008CE194E00E94F0028DE20E9418050E94CD
:100EE000360620EA822E26E8922EAA24A394B12C5C
:100EF000CFEFD4E115E01092120381E00E941805B3
:100F000087E992E00E94F00281E00E9418058BE3DD
:100F100094E00E94F00281E00E94180588E094E0CD
:100F20000E94F00281E00E94180587E790E00E948D
:100F3000F00281E00E94180586E890E00E94F0022D
:100F400081E00E94180582E792E00E94F00282E0B0
:100F50000E94180590E8C92E98EAD92E92E1E92E50
:100F6000FF24F3948091C00087FD2AC00E94C80529
:100F700081E0C81AD108E108F108A1F7459881ED90
:100F800094E00E94F00281E00E94180585E692E05C
:100F90000E94F00281E00E941805459A81E00E94BB
:100FA00018050E94360681E00E94180582E792E04B
:100FB0000E94F00281E00E94180510921203CACF2D
:100FC0000E940103882309F41FC245E050E063E05A
:100FD00074E084E193E00E94920E64E173E088E69D
:100FE00092E00E94AE02813009F08DC10E942D0373
:100FF0000E9406041092120346E050E06DEF73E089
:1010000084E193E00E94920E86E991E00E949B0E9B
:1010100064E173E00E94AE02813009F045C045985A
:1010200081ED94E00E94F00281E00E94180585E6BF
:1010300092E00E94F00281E00E941805459A81E04A
:101040000E9418058BE394E00E94F00281E00E9468
:10105000180581E394E00E94F00284E592E00E948A
:10106000E40283EA92E00E94F00281E00E94180507
:1010700081E393E00E94F0028AE10E94A0028AE0EC
:101080000E9418058BE394E00E94F00281E00E9428
:1010900018058CE194E00E94F00282E00E9418059D
:1010A0001093120301E001C000E047E050E066EF5A
:1010B00073E084E193E00E94920E86E991E00E9441
:1010C0009B0E64E173E00E94AE02F82E91E089135A
:1010D00044C0459881ED94E00E94F00281E00E94B6
:1010E000180585E692E00E94F00281E00E94180552
:1010F000459A81E00E9418058BE394E00E94F0027B
:1011000081E00E94180581E394E00E94F00284E5EA
:1011100092E00E94E40283EA92E00E94F00281E001
:101120000E94180581E893E00E94F0028AE10E9483
:10113000A0028AE00E9418058BE394E00E94F0026E
:1011400081E00E9418058CE194E00E94F00282E0A8
:101150000E941805F092120301E049E050E06DEEA4
:1011600073E084E193E00E94920E86E991E00E9490
:101170009B0E64E173E00E94AE02813009F054C01E
:10118000459881ED94E00E94F00281E00E941805EC
:1011900085E692E00E94F00281E00E941805459ADF
:1011A00081E00E941805E4E5F2E0A0E4B2E08D2FB2
:1011B00001900D928A95E1F78BE394E00E94F00292
:1011C00081E00E94180581E394E00E94F00280E42F
:1011D00092E00E94E40283EA92E00E94F00281E041
:1011E0000E9418058BE193E00E94F00284E592E0F2
:1011F0000E94E4028AE10E94A0028AE00E9418058F
:101200008BE394E00E94F00281E00E9418058CE1DB
:1012100094E00E94F00282E00E94180510921203EE
:10122000FF24F39400E001C0F02E46E050E067EEAA
:1012300073E084E193E00E94920E86E991E00E94BF
:101240009B0E64E173E00E94AE02813009F05DC044
:10125000459881ED94E00E94F00281E00E9418051B
:1012600085E692E00E94F00281E00E941805459A0E
:1012700081E00E9418058BE394E00E94F00281E077
:101280000E94180581E394E00E94F00284E592E058
:101290000E94E40283EA92E00E94F00281E00E9450
:1012A000180589ED92E00E94F0028AE10E94A002F6
:1012B0008AE00E9418058BE394E00E94F00281E02E
:1012C0000E9418058CE194E00E94F00282E00E94E6
:1012D0001805C093120388E690E00E94F00282E0B5
:1012E0000E9418058DE091E00E94F00282E00E94C9
:1012F000180584EA90E00E94F00281E00E9418053F
:10130000FF24F39401C0F12C01E045E050E066ECCD
:1013100074E084E193E00E94920E64E173E088E659
:1013200092E00E94AE028130C1F545980E94CA0346
:1013300081ED94E00E94F00281E00E94180585E6AC
:1013400092E00E94F00281E00E941805459A81E037
:101350000E94180587E494E00E94F00281E00E9458
:1013600018058BE394E00E94F00281E00E941805CA
:101370008CE194E00E94F00282E00E94180560E493
:1013800072E084E592E00E94AE02813019F480930D
:1013900012033AC01092120302C0F11032C04598F5
:1013A00081ED94E00E94F00281E00E94180585E63C
:1013B00092E00E94F00281E00E941805459A81E0C7
:1013C0000E9418050E94FD050E94360681E00E94D9
:1013D00018058BE394E00E94F00281E00E9418055A
:1013E0008CE194E00E94F00282E00E94180584E4FF
:1013F00091E00E94F00285E00E941805109212030D
:101400007ACD002309F477CD0E942705813009F0B9
:1014100003C2CEE6D1E009900020E9F72197CE562D
:10142000D140DD27FE01E459FE4FC080D12C80E37E
:10143000C81AD108EE24D7FCE094FE2CFE01E55931
:10144000FE4FA081B0E0D097FE01E659FE4F4081EB
:1014500050E0405351092AE030E00E94290E2B0150
:101460003C0124E630E0DA010E94290E460E571EA8
:10147000681E791EC40CD51CE61CF71CFE01E7593A
:10148000FE4FA081B0E0D09728EE33E00E94290EF5
:10149000C60ED71EE81EF91EFE01E859FE4FA081B8
:1014A000B0E0D09720E137E20E94290EC60ED71E89
:1014B000E81EF91EFE01EA59FE4FA081B0E0D09768
:1014C00020EA36E841E050E00E94300EC60ED71EFA
:1014D000E81EF91EFE01EB59FE4FA081B0E0D09747
:1014E00020E432E44FE050E00E94300E6C0D7D1D90
:1014F0008E1D9F1D2CE330E040E050E00E94380E2E
:1015000029013A01FE01EC59FE4FA081B0E0D097CD
:1015100020E836E948E950E00E94300E6B017C017A
:10152000CB30D10540F1FE01ED59FE4F80818D3267
:1015300069F0A081B0E0D09720E031EE45EF55E0B2
:101540000E94300EC60ED71EE81EF91ECC30D10503
:1015500090F0CE59DE4F88818D3269F0A881B0E0DD
:10156000D09720E03AEC4AE95BE30E94300EC60EC9
:10157000D71EE81EF91EC701B601640D751D861D34
:10158000971D20916E012D3209F020E32093460132
:1015900020E03AEC4AE95BE30E94380E205D20939C
:1015A000470120E031EE45EF55E00E94380E205D06
:1015B0002093480120E836E948E950E00E94380EBF
:1015C000205D209349012EE220934A0120E432E479
:1015D0004FE050E00E94380EA50194010E94380EA1
:1015E00020E137E240E050E00E94380E205D209379
:1015F0004B0128EE33E040E050E00E94380E205DC1
:1016000020934C0124E630E040E050E00E94380E88
:10161000205D20934D012AE030E040E050E00E9440
:10162000380E205D20934E01605D60934F01109253
:101630005001C2E8D1E009900020E9F72197C25893
:10164000D140DD27FE01E058FE4FC080D12C90E351
:10165000C91AD108EE24D7FCE094FE2CFE01E15813
:10166000FE4FA081B0E0D097FE01E258FE4F4081CE
:1016700050E0405351092AE030E00E94290E2B012E
:101680003C0124E630E0DA010E94290E460E571E86
:10169000681E791EC40CD51CE61CF71CFE01E3581D
:1016A000FE4FA081B0E0D09728EE33E00E94290ED3
:1016B000C60ED71EE81EF91EFE01E458FE4FA0819B
:1016C000B0E0D09720E137E20E94290EC60ED71E67
:1016D000E81EF91EFE01E658FE4FA081B0E0D0974B
:1016E00020EA36E841E050E00E94300EC60ED71ED8
:1016F000E81EF91EFE01E758FE4FA081B0E0D0972A
:1017000020E432E44FE050E00E94300E6C0D7D1D6D
:101710008E1D9F1D2CE330E040E050E00E94380E0B
:1017200069017A01FE01E858FE4FA081B0E0D09730
:1017300020E836E948E950E00E94300E2B013C01D8
:10174000CB30D10590F0C958DE4F88818D3269F0D9
:10175000A881B0E0D09720E031EE45EF55E00E943F
:10176000300E460E571E681E791EC301B2016C0D65
:101770007D1D8E1D9F1D209182012D3209F020E3D9
:1017800020935A0120E031EE45EF55E00E94380EDB
:10179000205D20935B0120E836E948E950E00E9493
:1017A000380E205D20935C012EE220935D0120E441
:1017B00032E44FE050E00E94380EA50194010E94EF
:1017C000380E20E137E240E050E00E94380E205D04
:1017D00020935E0128EE33E040E050E00E94380E96
:1017E000205D20935F0124E630E040E050E00E945D
:1017F000380E205D209360012AE030E040E050E0A8
:101800000E94380E205D20936101605D609362014B
:1018100010926301C1E056C0809112038F3F09F41A
:1018200051C1C3E081E00E94180584E491E00E9468
:10183000F00284E00E9418050E94E30682E691E02F
:101840000E94F0028AE00E94180583E591E00E9460
:10185000F0020E940103882309F4F5C14CE050E036
:1018600068E371E084E193E00E94920E64E173E02A
:1018700088E692E00E94AE0291E0813009F0E3C177
:10188000C15009F4E2C1992369F281E00E94180570
:1018900085E291E00E94F0020E945903C82F811155
:1018A00003C087E30E94180585E00E94180584E4C0
:1018B00091E00E94F00285E00E941805C13009F015
:1018C00001C1C0E0809112038F3F09F46EC081E036
:1018D0000E9418058CE191E00E94F0020E945204DF
:1018E00081E00E9418058BE394E00E94F00281E001
:1018F0000E94180581E394E00E94F00284E592E0E2
:101900000E94E40283EA92E00E94F00281E00E94D9
:101910001805C11104C088E692E00E94E4028BE041
:1019200092E00E94F002C11103C08EE691E002C075
:1019300086E491E00E94E40280E092E00E94F002DE
:10194000C11103C082E891E002C08AE591E00E94E3
:10195000E40282EF91E00E94F00280E091E00E94B8
:10196000E4028DE192E00E94F002C11103C082E81E
:1019700091E002C08AE591E00E94E4028BE192E0EE
:101980000E94F002C11103C08EE691E002C086E41D
:1019900091E00E94E40288E192E00E94F00281E07E
:1019A0000E9418058AE10E94A002C13009F08AC095
:1019B000809112038F3F09F085C086E391E00E9479
:1019C000740EEC018EE591E00E94740E6C0183E2CE
:1019D00091E00E94740E7C018BE491E00E94740EF1
:1019E000E81AF90AF7FE03C0F194E194F1088DE2D8
:1019F000E81681E0F8065CF4CC19DD09D7FF03C0D6
:101A0000D195C195D109CD32D1400CF458C081E0B7
:101A10000E9418058BE394E00E94F00281E00E948E
:101A2000180581E394E00E94F00284E592E00E94B0
:101A3000E40283EA92E00E94F00281E00E9418052D
:101A40008AEB92E00E94F0028DE192E00E94F002A7
:101A50008AE591E00E94E4028BE192E00E94F002AC
:101A600086E491E00E94E40288E192E00E94F002A4
:101A700081E00E9418058AE10E94A0028AE00E948B
:101A8000180581E08093120386E890E00E94F0023E
:101A900081E00E94180587E790E00E94F00281E053
:101AA0000E9418058BE394E00E94F00281E00E94FE
:101AB00018058CE194E00E94F00282E001C08CE302
:101AC0000E9418058AE0EAE5F1E0A2E3B1E00190A6
:101AD0000D928A95E1F78BE0E6E4F1E0AEE1B1E04A
:101AE00001900D928A95E1F7809112038F3F29F0C2
:101AF00080911203815080931203809112038823F6
:101B000069F0809112038F3F49F08CE30E94180521
:101B10008CE30E9418058CE30E9418058091120343
:101B2000811103C08AE00E941805809112038F3F43
:101B300009F084C08091C00087FF03C08091C60077
:101B4000F9CFC12C85E3D82E8CE0E82EF12C0E9431
:101B5000C8058091C00091E0C91AD108E108F108D8
:101B600009F46CC087FFF3CF0E940103882309F4B6
:101B700065C045E050E063E074E084E193E00E94DA
:101B8000920E64E173E088E692E00E94AE0281303A
:101B900009F054C00E942D030E94060445E050E065
:101BA00062EE73E084E193E00E94920E86E991E098
:101BB0000E949B0E64E173E00E94AE028130F1F559
:101BC0008BE394E00E94F00281E00E94180581E31B
:101BD00094E00E94F00284E592E00E94E40283EA2D
:101BE00092E00E94F00281E00E94180587EA92E0EC
:101BF0000E94F0028AE10E94A0028AE00E94180579
:101C00008BE394E00E94F00281E00E9418058CE1D1
:101C100094E00E94F00282E00E94180586E890E0BD
:101C20000E94F00281E00E94180587E790E00E9480
:101C3000F00281E00E9418051092120380911203B5
:101C40008111E2CB55C990E01BCE913009F03ACF1B
:101C50001CCE0E945A0EB7FF0895821B930B089565
:101C6000B7FF0C94690E0E94690E821B930B0895B6
:101C7000A1E21A2EAA1BBB1BFD010DC0AA1FBB1F90
:101C8000EE1FFF1FA217B307E407F50720F0A21B02
:101C9000B30BE40BF50B661F771F881F991F1A946F
:101CA00069F760957095809590959B01AC01BD0199
:101CB000CF010895A29FB001B39FC001A39F700DF3
:101CC000811D1124911DB29F700D811D1124911D44
:101CD00008950E945A0EA59F900DB49F900DA49F49
:101CE000800D911D11240895FC0188279927E894FF
:101CF00021912032E9F3293010F02E30C8F32B3235
:101D000041F02D3239F4689404C00E94A50E820F70
:101D1000911D219120532A30C0F31EF49095819596
:101D20009F4F0895FB01DC0102C005900D924150C8
:101D30005040D8F70895DC016C9161566A3108F083
:101D4000605E6F5B6D93C1F708957AE0979F902D69
:0E1D5000879F802D910D11240895F894FFCFE8
:101D5E003030303030303030303030303030303075
:101D6E003030303030303030303030303030303065
:101D7E003030303030303030303030303030303055
:101D8E003030303030303030303030303030303045
:101D9E003030303030303030303030303030303035
:101DAE003030303030303030303030303030303025
:101DBE003030303030303030303030303030303015
:101DCE003030303030303030303030303030303005
:101DDE0030303030303030303030303030303030F5
:101DEE0030303030303031323334353637383930B8
:101DFE003132333435363738393031323334353693
:101E0E00373839303132333435363738393031327C
:101E1E003334353637383930313233343536373866
:101E2E003930313233343536373839303132333464
:101E3E003536373839303132333435363738393044
:101E4E003132333435363738393031323334353642
:101E5E00373839303132333435363738393031322C
:101E6E003334353637383930313233343536373816
:101E7E003930313233343536373839303132333414
:101E8E0035363738393031323334353637383930F4
:101E9E0031323334353637383930313233343536F2
:101EAE0037383930313233343536373839303132DC
:101EBE0033343536373839303132333435363738C6
:101ECE0039303132333435363738393031323334C4
:101EDE0035363738393031323334353637383930A4
:101EEE0031323334353637383930313233343536A2
:101EFE00373839303132333435363738393031328C
:101F0E003334353637383930313233343536373875
:101F1E003930313233343536373839303132333473
:101F2E003536373839303132333435363738393053
:101F3E003132333435363738393031323334353651
:101F4E00373839303132333435363738393031323B
:101F5E003334353637383930313233343536373825
:021F6E00393008
:00000001FF
