:100000000C94D4010C943D060C94F1010C94F10174
:100010000C94F1010C94F1010C94F1010C94F10198
:100020000C94F1010C94F1010C94F1010C94F10188
:100030000C94F1010C94F1010C94F1010C94F10178
:100040000C94F1010C94F1010C94F1010C94F10168
:100050000C94F1010C94F1010C94F1010C94F10158
:100060000C94F1010C94F10141542B43474E535031
:1000700057523D310D0A0041542B43474E535057C0
:10008000523D300D0A0041542B43475053505752B4
:100090003D300D0A0041542B434750535253543DB9
:1000A000310D0A0041542B434750535253543D30B5
:1000B0000D0A0041542B43475053494E463D300DE5
:1000C0000A002B434750535354415455533A204C44
:1000D0006F636174696F6E20324420466978002B2B
:1000E000434750535354415455533A204C6F636126
:1000F00074696F6E203344204669780041542B4365
:100100004750535354415455533F0D0A0041542B0B
:10011000434750535057523D310D0A0041542B4331
:1001200042430D0A0041542B43495047534D4C4F15
:10013000433D312C310D0A002B53415042523A209D
:10014000312C310041542B53415042523D302C311F
:100150000D0A0041542B53415042523D322C310D77
:100160000A0041542B53415042523D312C310D0A6B
:100170000041542B53415042523D332C312C2250DC
:100180005744222C22696E7465726E6574220D0AC2
:100190000041542B53415042523D332C312C2255B7
:1001A000534552222C22696E7465726E6574220D5D
:1001B0000A0041542B53415042523D332C312C22E2
:1001C00041504E222C22696E7465726E6574220D48
:1001D0000A0041542B53415042523D332C312C22C2
:1001E000434F4E54595045222C2247505253220D12
:1001F0000A000A424154544552595B6D565D3D0018
:10020000204C415449545544453D00204C4F4E47E5
:100210005449545544453D000D0A002C000D0A2058
:10022000687474703A2F2F6D6170732E676F6F67EB
:100230006C652E636F6D2F6D6170733F713D004172
:10024000542B434E45544C494748543D300D0A0009
:10025000415426570D0A0041542B4950523D39361E
:1002600030300D0A0041542B4353434C4B3D300D6D
:100270000A0041542B4353434C4B3D310D0A00417E
:10028000542B4346554E3D310D0A0041542B4346F5
:10029000554E3D340D0A0041542B434C49503D31DD
:1002A0000D0A00220A0D0057524F4E4720434F4D72
:1002B0004D414E440A00434F4D4D414E4420414371
:1002C0004345505445440A0053494E474C45005459
:1002D0005241434B00434D543A0041542B434E4D41
:1002E000493D312C322C302C302C300D0A00415439
:1002F0002B434D4744413D2244454C20414C4C2228
:100300000D0A0041542B434D47533D220041542BCD
:10031000434D47463D310D0A004154480A0D004106
:10032000542B43464752493D310A0D0041542B435B
:1003300050494E3D2231313131220A0D00415445A0
:10034000300A0D0041542B4350494E3F0A0D002BFB
:100350004350494E3A2053494D2050494E002B43BB
:1003600050494E3A2052454144590041542B435282
:1003700045473D300A0D0041542B435245473F0A43
:100380000D002B435245473A20302C35002B435269
:1003900045473A20302C310052494E47004F4B0020
:1003A00041540041540A0D0011241FBECFEFD8E084
:1003B000DEBFCDBF12E0A0E0B1E0EEEAF6E102C0A0
:1003C00005900D92A63DB107D9F713E0A6EDB2E076
:1003D00001C01D92A630B107E1F70E9448060C94B7
:1003E000550B0C94000082E08093C0001092C50071
:1003F0008CE08093C400E1ECF0E080818860808331
:10040000808180618083E2ECF0E08081866080837F
:1004100008959091C00095FFFCCF8093C600089589
:100420008091C00087FFFCCF8091C6000895CF93D4
:10043000DF93AC01DC0190E020E03D91FB01E90F8E
:10044000F11D8081381320C090E0892F820FFA01BE
:10045000E80FF11D3081C92FD0E031110BC0FB0135
:1004600001900020E9F73197E61BF70BCE17DF0765
:1004700059F40FC0FB01EC0FFD1F8081882379F335
:100480003813EDCF9F5FE1CF2F5F2A3AB1F680E0BE
:1004900001C081E0DF91CF910895CF93DF93EC010C
:1004A0008991882319F00E940902FACFDF91CF9138
:1004B0000895CF93DF93EC01CE01FE012491222316
:1004C00031F02196FC0184910E940902F5CFDF9161
:1004D000CF910895CF9310920503C6E90E941002B0
:1004E000282F30E02A30310579F02D30310561F0C8
:1004F000E0910503F0E0E45DFD4F8083809105030A
:100500008F5F809305030DC080910503882349F018
:10051000E0910503F0E0E45DFD4F108210920503C9
:1005200002C0C150D9F681E0CF910895CF931092C7
:100530000303C6E90E941002282F30E02A3031055B
:1005400079F02D30310561F0E0910303F0E0E259DC
:10055000FE4F8083809103038F5F809303030DC060
:1005600080910303882349F0E0910303F0E0E2590E
:10057000FE4F10821092030302C0C150D9F681E0F1
:10058000CF910895CF93109201031092020310921D
:100590000503C0E00E941002CF5F8C3219F0C43115
:1005A000C9F75EC0C43109F45BC00E941002E0913B
:1005B0000103F0E0EA5BFE4F8083909101039F5FAF
:1005C00090930103CF5F8C3249F4E0910103F0E096
:1005D000EB5BFE4F10821092010305C0C63429F771
:1005E000F4CFC63480F40E941002E0910203F0E0E0
:1005F000E65AFE4F8083909102039F5F909302031F
:10060000CF5F8C3271F7E0910203F0E0E75AFE4FC2
:1006100010821092020305C02A303105A9F0C634B9
:1006200098F40E941002282F30E0E0910503F0E0DA
:10063000E45DFD4F8083809105038F5F8093050308
:10064000CF5F2D30310541F7E0910503F0E0E55D26
:10065000FD4F1082109205030E94100281E001C03C
:1006600080E0CF910895CF9310920403C0E00E94E0
:100670001002CF5F8A3311F0C639C9F70E94100209
:10068000CF5F823211F0C639C8F30E941002E091A8
:100690000403F0E0E85EFD4F8083909104039F5FC8
:1006A00090930403CF5F823249F4E0910403F0E0B9
:1006B000E95EFD4F10821092040307C0C63928F38B
:1006C000F4CF0D9749F0C63938F40E94100290E03B
:1006D000CF5F8A309105A9F781E0CF9108951092FC
:1006E00004031092050380E0E0910503F0E0E45D6F
:1006F000FD4F2081909105039F5F909305038F5FCD
:100700002A3311F0863981F7E0910503F0E0E45DCA
:10071000FD4F2081909105039F5F909305038F5FAC
:10072000223211F0863980F3E0910503F0E0E45DB8
:10073000FD4F2081909105039F5F90930503E09109
:100740000403F0E0E85EFD4F2083909104039F5F77
:10075000909304038F5F223211F0863928F3E091E1
:100760000403F0E0E95EFD4F108210920403109242
:10077000050381E00895CF931092D702C0E00E9454
:100780001002CF5F8C3219F0C634C9F72BC0C634C3
:1007900049F10E941002CF5F8C3211F0C634C9F7C4
:1007A0000E941002282F30E0E091D702F0E0E050E4
:1007B000FF4F80838091D7028F5F8093D702CF5FF6
:1007C0002A30310529F02D30310511F0C63440F3BF
:1007D000E091D702F0E0E150FF4F10821092D70273
:1007E00081E001C080E0CF910895CF931092010382
:1007F000109202031092000383EB90E00E945902D2
:10080000C0E00E941002CF5F8A3319F0C431C9F7EB
:1008100075C0C43109F472C00E941002CF5F8C32DF
:1008200011F0C639C9F70E941002E0910203F0E00E
:10083000E65AFE4F8083909102039F5F90930203DC
:10084000CF5F8C3249F4E0910203F0E0E75AFE4FAB
:1008500010821092020305C0C63928F3F4CFC639BE
:1008600080F40E941002E0910103F0E0EA5BFE4F89
:100870008083909101039F5F90930103CF5F8C323F
:1008800071F7E0910103F0E0EB5BFE4F10821092F4
:10089000010302C0C63940F40E941002CF5F8C32BF
:1008A000C9F702C0C63940F40E941002CF5F8C32F3
:1008B000C9F702C0C63940F40E941002CF5F8C32E3
:1008C000C9F702C0C63980F40E941002E09100030B
:1008D000F0E0E65FFE4F8083909100039F5F90936E
:1008E0000003CF5F8C3271F7E0910003F0E0E75F27
:1008F000FE4F10821092000381E001C080E0CF9192
:100900000895882361F026E033E14EEA4A95F1F735
:100910003A95E1F72A95D1F700C08150F2CF0895BA
:10092000CF93DF938091D602813021F08091D6025F
:100930008530C9F481E090E00E94810488E690E06F
:100940000E94590282E090E00E9481048DE091E0D3
:100950000E94590282E090E00E94810484EA90E0C3
:100960000E94590204C081E090E00E948104C0E02E
:100970008FE090E00E9481048CEF90E00E94590289
:100980000E946A02882309F440C04DE150E06FEDF7
:1009900070E088ED92E00E944C0B68ED72E08CE212
:1009A00092E00E941702D82FC33119F0D13061F5BF
:1009B00010C04DE150E062EC70E088ED92E00E94E2
:1009C0004C0B68ED72E08CE292E00E9417028130DD
:1009D00069F70E94F50382E090E00E948104C091D3
:1009E000D602C13071F586E890E00E94590281E09C
:1009F00090E00E94810487E790E00E94590281E024
:100A000090E00E94810420C0CF5FC43108F4B0CFD1
:100A100082E090E00E9481048091D602813099F4B6
:100A200086E890E00E94590281E090E00E948104F3
:100A300087E790E00E94590281E090E00E948104E3
:100A400002C0C1E001C0C0E08C2FDF91CF910895BA
:100A5000611571058105910549F020E12A95F1F7AD
:100A600000C06150710981099109F2CF0895CF93B7
:100A700083EA93E00E9459020E946A0243E050E038
:100A8000882319F06DE973E002C060EA73E088ED35
:100A900092E00E944C0B68ED72E08CE292E00E94C2
:100AA0001702C1E0813009F0C0E081E00E948104BA
:100AB000CC23F1F282E00E9481048DE393E00E9456
:100AC000590281E00E94810481E0CF910895CF9383
:100AD00082E00E94810484E493E00E9459020E9413
:100AE0006A028823A9F34DE050E06EE573E088EDDB
:100AF00092E00E944C0B68ED72E08CE292E00E9462
:100B00001702C82F4FE050E06FE473E088ED92E0E9
:100B10000E944C0B68ED72E08CE292E00E9417029A
:100B2000813049F40E9481048CE293E00E945902D2
:100B300081E00E948104C13059F681E0CF9108958F
:100B4000CF93DF93C8E181E00E9481048FE792E0B8
:100B50000E9459028EE10E94810487E793E00E947F
:100B600059020E946A02882309F446C04BE050E013
:100B70006DE873E088ED92E00E944C0B68ED72E046
:100B80008CE292E00E941702D82F4BE050E062E81E
:100B900073E088ED92E00E944C0B68ED72E08CE20D
:100BA00092E00E941702813029F181E0D13041F1B9
:100BB0000E9481048BE892E00E94590281E00E9429
:100BC000810487E790E00E94590281E00E9481043D
:100BD00086E890E00E945902DEE18CE30E948104E5
:100BE000D150D9F78FE792E00E9459028EE10E941E
:100BF000810402C081E004C0C15009F0A4CF80E0AC
:100C0000DF91CF91089581E00E94810482ED91E00F
:100C10000E94590281E00E94810482EB91E00E94CF
:100C2000590281E00E94810481E991E00E94590209
:100C300081E00E94810481E791E00E94590281E0F5
:100C40000E94810481E0089583B7817F846083BF1F
:100C500083B7816083BF52985A9AF894E9E6F0E02E
:100C600080818D7F808380818E7F8083E89A7894D5
:100C7000889583B78E7F83BF08951F920F920FB61A
:100C80000F921124E8980F900FBE0F901F901895A7
:100C900052985A9A3D9A4598459A0E94F3018AE0E3
:100CA0000E9481048DE393E00E94590281E00E943A
:100CB00081040E94370582E00E94810487E592E06A
:100CC0000E94590282E00E9481048BE693E00E9418
:100CD000590282E00E9481048FE792E00E9459024B
:100CE0008AE00E94810480E592E00E94590283E03C
:100CF0000E9481040E9467050E94A0050E940306CD
:100D000090EA892E96E8992EAA24A394B12CD5E0D6
:100D10001092D6028FE792E00E94590282E00E9470
:100D2000810487E992E00E94590282E00E948104D6
:100D30008DE093E00E94590282E00E9481048AEDD6
:100D400092E00E94590282E00E94810487E790E0CD
:100D50000E94590281E00E94810486E890E00E948E
:100D6000590281E00E94810480E8C82E88EAD82ECA
:100D700082E1E82EFF24F3948091C00087FD14C027
:100D800061E070E080E090E00E94280581E0C81AF0
:100D9000D108E108F10881F70E94A00581E00E94D6
:100DA00081041092D602E0CF0E946A02882309F4DF
:100DB00002C145E050E065ED72E088ED92E00E94EE
:100DC0004C0B68ED72E08CE292E00E9417028130D9
:100DD00009F095C00E9496020E946F031092D602FD
:100DE00046E050E06FEC72E088ED92E00E944C0B20
:100DF00068ED72E08EE691E00E9417028130B1F555
:100E00000E9481048DE093E00E94590281E00E94DB
:100E1000810483E093E00E94590288E192E00E94FD
:100E20004D0283EA92E00E94590281E00E9481040F
:100E300086EB92E00E9459028AE10E9409028AE050
:100E40000E9481048DE093E00E94590282E00E949A
:100E500081048EEE92E00E94590283E00E94810498
:100E60000E940306D093D602C1E001C0C0E047E073
:100E700050E068EC72E088ED92E00E944C0B68ED67
:100E800072E08EE691E00E941702182F813009F07F
:100E90008DC381E00E9481048DE093E00E9459029D
:100EA00081E00E94810483E093E00E94590288E17E
:100EB00092E00E944D0283EA92E00E94590281E092
:100EC0000E94810486EB92E00E9459028AE10E940E
:100ED00009028AE00E9481048DE093E00E94590299
:100EE00082E00E9481048EEE92E00E94590283E02B
:100EF0000E9481040E9403061093D60201C010E0F4
:100F0000C1E045E050E068E973E088ED92E00E94BE
:100F10004C0B68ED72E08CE292E00E941702082F01
:100F20008130E1F40E94330389E193E00E94590289
:100F300081E00E9481040E9403068DE093E00E94FC
:100F4000590282E00E9481048EEE92E00E945902D2
:100F500083E00E9481040093D6022DC0111128C0A5
:100F600081E00E9481040E9467050E94A0050E9402
:100F7000030687E992E00E94590282E00E94810400
:100F80008DE093E00E94590282E00E9481048EEE7F
:100F900092E00E94590283E00E94810484E491E07F
:100FA0000E94590285E00E9481041092D602B0CEC0
:100FB000CC2309F4ADCE0E949004813009F025C203
:100FC000C6E4D1E009900020E9F72197C654D1404A
:100FD000DD27FE01EC5BFE4FC080D12C80E3C81AF8
:100FE000D108EE24D7FCE094FE2CFE01ED5BFE4F11
:100FF000A081B0E0D097FE01EE5BFE4F408150E053
:10100000405351092AE030E00E94010B2B013C01C2
:1010100024E630E0DA010E94010B460E571E681EDE
:10102000791EC40CD51CE61CF71CFE01EF5BFE4FBD
:10103000A081B0E0D09728EE33E00E94010BC60EED
:10104000D71EE81EF91EFE01E05CFE4FA081B0E055
:10105000D09720E137E20E94010BC60ED71EE81E92
:10106000F91EFE01E25CFE4FA081B0E0D09720EABD
:1010700036E841E050E00E94080BC60ED71EE81E7D
:10108000F91EFE01E35CFE4FA081B0E0D09720E4A2
:1010900032E44FE050E00E94080B6C0D7D1D8E1D68
:1010A0009F1D2CE330E040E050E00E94100B29012E
:1010B0003A01FE01E45CFE4FA081B0E0D09720E849
:1010C00036E948E950E00E94080B6B017C01CB3007
:1010D000D10540F1FE01E55CFE4F80818D3269F063
:1010E000A081B0E0D09720E031EE45EF55E00E94BE
:1010F000080BC60ED71EE81EF91ECC30D10590F0A5
:10110000C65CDE4F88818D3269F0A881B0E0D0974F
:1011100020E03AEC4AE95BE30E94080BC60ED71EBA
:10112000E81EF91EC701B601640D751D861D971DC9
:10113000209146012D3209F020E320931E0120E08A
:101140003AEC4AE95BE30E94100B205D20931F01FB
:1011500020E031EE45EF55E00E94100B205D20931A
:10116000200120E836E948E950E00E94100B205D9C
:10117000209321012EE22093220120E432E44FE06B
:1011800050E00E94100BA50194010E94100B20E179
:1011900037E240E050E00E94100B205D20932301D5
:1011A00028EE33E040E050E00E94100B205D2093D9
:1011B000240124E630E040E050E00E94100B205D66
:1011C000209325012AE030E040E050E00E94100B1F
:1011D000205D20932601605D609327011092280115
:1011E000CAE5D1E009900020E9F72197CA55D1401E
:1011F000DD27FE01E85AFE4FC080D12C80E3C81ADB
:10120000D108EE24D7FCE094FE2CFE01E95AFE4FF3
:10121000A081B0E0D097FE01EA5AFE4F408150E035
:10122000405351092AE030E00E94010B2B013C01A0
:1012300024E630E0DA010E94010B460E571E681EBC
:10124000791EC40CD51CE61CF71CFE01EB5AFE4FA0
:10125000A081B0E0D09728EE33E00E94010BC60ECB
:10126000D71EE81EF91EFE01EC5AFE4FA081B0E029
:10127000D09720E137E20E94010BC60ED71EE81E70
:10128000F91EFE01EE5AFE4FA081B0E0D09720EA91
:1012900036E841E050E00E94080BC60ED71EE81E5B
:1012A000F91EFE01EF5AFE4FA081B0E0D09720E476
:1012B00032E44FE050E00E94080B6C0D7D1D8E1D46
:1012C0009F1D2CE330E040E050E00E94100B6901CC
:1012D0007A01FE01E05BFE4FA081B0E0D09720E8EC
:1012E00036E948E950E00E94080B2B013C01CB3065
:1012F000D10590F0C15BDE4F88818D3269F0A88105
:10130000B0E0D09720E031EE45EF55E00E94080BA9
:10131000460E571E681E791EC301B2016C0D7D1D5D
:101320008E1D9F1D20915A012D3209F020E320933C
:10133000320120E031EE45EF55E00E94100B205DB8
:101340002093330120E836E948E950E00E94100B71
:10135000205D209334012EE22093350120E432E415
:101360004FE050E00E94100BA50194010E94100B69
:1013700020E137E240E050E00E94100B205D209316
:10138000360128EE33E040E050E00E94100B205D73
:101390002093370124E630E040E050E00E94100B3B
:1013A000205D209338012AE030E040E050E00E94C8
:1013B000100B205D20933901605D60933A0110921B
:1013C0003B0181E00E9481048CE191E00E9459027E
:1013D0000E94BB0381E00E9481048DE093E00E94A3
:1013E000590281E00E94810483E093E00E94590247
:1013F00088E192E00E944D0283EA92E00E94590245
:1014000081E00E948104C1E072C0C3E085E00E94D7
:10141000810484E491E00E94590282E00E948104E8
:1014200082E691E00E9459028AE00E94810483E5ED
:1014300091E00E9459020E946A02882389F04CE0E0
:1014400050E068E371E088ED92E00E944C0B68ED9B
:1014500072E08CE292E00E94170291E0813009F084
:1014600090E0C15019F0992389F203C0913009F03E
:1014700084C081E00E94810485E291E00E945902CB
:101480000E94C202C82F85E00E94810484E491E09A
:101490000E94590285E00E948104C13009F06DC0AC
:1014A00081E00E9481048CE191E00E9459020E9437
:1014B000BB0381E00E9481048DE093E00E94590209
:1014C00081E00E94810483E093E00E94590288E158
:1014D00092E00E944D0283EA92E00E94590281E06C
:1014E0000E9481048CE292E00E944D02C0E08BE0F9
:1014F00092E00E945902C11103C086E491E002C04B
:101500008EE191E00E944D0280E092E00E9459023B
:10151000C11103C08AE591E002C082E391E00E941C
:101520004D0282EF91E00E94590280E091E00E941A
:101530004D028DE192E00E945902C11103C08AE57B
:1015400091E002C082E391E00E944D028BE192E0C3
:101550000E945902C11103C086E491E002C08EE1ED
:1015600091E00E944D0288E192E00E94590281E0E0
:101570000E9481048AE10E9409028091D602815072
:101580008093D6028091D602882341F08CE30E949A
:1015900081048CE30E9481048CE301C08AE00E94F4
:1015A00081048091D602811106CDB1CBC11127C033
:1015B00081E00E9481048DE093E00E94590281E065
:1015C0000E94810483E093E00E94590288E192E046
:1015D0000E944D0283EA92E00E94590281E00E943B
:1015E000810487EA92E00E9459028AE10E9409027E
:1015F0008AE00E9481041092D60210E082CC11E0B1
:101600007FCC0E94320BB7FF0895821B930B089585
:10161000B7FF0C94410B0E94410B821B930B089562
:10162000A1E21A2EAA1BBB1BFD010DC0AA1FBB1FE6
:10163000EE1FFF1FA217B307E407F50720F0A21B58
:10164000B30BE40BF50B661F771F881F991F1A94C5
:1016500069F760957095809590959B01AC01BD01EF
:10166000CF010895A29FB001B39FC001A39F700D49
:10167000811D1124911DB29F700D811D1124911D9A
:1016800008950E94320BA59F900DB49F900DA49FCA
:10169000800D911D11240895FB01DC0102C005900D
:0E16A0000D9241505040D8F70895F894FFCFB6
:1016AE0031323334353637383930313233343536EA
:1016BE0037383930313233343536373839303132D4
:1016CE0033343536373839303132333435363738BE
:1016DE0039303132333435363738393031323334BC
:1016EE00353637383930313233343536373839309C
:1016FE00313233343536373839303132333435369A
:10170E003738393031323334353637383930313283
:10171E00333435363738393031323334353637386D
:10172E00393031323334353637383930313233346B
:10173E00353637383930313233343536373839304B
:10174E003132333435363738393031323334353649
:10175E003738393031323334353637383930313233
:10176E00333435363738393031323334353637381D
:10177E00393031323334353637383930313233341B
:10178E0035363738393031323334353637383930FB
:10179E0031323334353637383930313233343536F9
:1017AE0037383930313233343536373839303132E3
:1017BE0033343536373839303132333435363738CD
:1017CE0039303132333435363738393031323334CB
:1017DE0035363738393031323334353637383930AB
:1017EE0031323334353637383930313233343536A9
:1017FE003738393031323334353637383930313293
:10180E00333435363738393031323334353637387C
:10181E00393031323334353637383930313233347A
:10182E00353637383930313233343536373839305A
:10183E003132333435363738393031323334353658
:10184E003738393031323334353637383930313242
:10185E00333435363738393031323334353637382C
:10186E00393031323334353637383930313233342A
:06187E0035363738393021
:00000001FF
