:100000000C9476020C9428070C9493020C9493029F
:100010000C9493020C9493020C9493020C9493020C
:100020000C9493020C9493020C9493020C949302FC
:100030000C9493020C9493020C9493020C949302EC
:100040000C9493020C9493020C9493020C949302DC
:100050000C9493020C9493020C9493020C949302CC
:100060000C9493020C9493023030303030303030A6
:100070003030303030303030303030000041542BB0
:1000800043474E535057523D310D0A0041542B43C4
:10009000474E535057523D300D0A0041542B4347B1
:1000A00050535057523D300D0A0041542B43475096
:1000B000535253543D310D0A0041542B4347505382
:1000C0005253543D300D0A0041542B43475053497D
:1000D0004E463D300D0A002B434750535354415474
:1000E00055533A204C6F636174696F6E203244201F
:1000F000466978002B434750535354415455533A63
:10010000204C6F636174696F6E20334420466978B8
:100110000041542B434750535354415455533F0DC2
:100120000A0041542B434750535057523D310D0A5A
:100130000041542B4342430D0A0041542B43495084
:1001400047534D4C4F433D312C310D0A002B534149
:100150005042523A20312C310041542B53415042ED
:10016000523D302C310D0A0041542B534150425224
:100170003D322C310D0A0041542B53415042523D27
:10018000312C310D0A0041542B53415042523D3322
:100190002C312C22505744222C22696E7465726EC9
:1001A0006574220D0A0041542B53415042523D3395
:1001B0002C312C2255534552222C22696E746572C3
:1001C0006E6574220D0A0041542B53415042523D3A
:1001D000332C312C2241504E222C22696E746572D0
:1001E0006E6574220D0A0041542B53415042523D1A
:1001F000332C312C22434F4E54595045222C224748
:10020000505253220D0A000A424154544552595B40
:100210006D565D3D00204C415449545544453D00C8
:10022000204C4F4E475449545544453D000D0A005B
:100230002C000D0A20687474703A2F2F6D61707352
:100240002E676F6F676C652E636F6D2F6D617073B6
:100250003F713D0041542B434E45544C494748544F
:100260003D300D0A00415426570D0A0041542B49D8
:1002700050523D393630300D0A0041542B43534320
:100280004C4B3D300D0A0041542B4353434C4B3DE6
:10029000310D0A0041542B4346554E3D310D0A00A5
:1002A00041542B4346554E3D340D0A0041542B43D7
:1002B0004C49503D310D0A00220A0D00475541526C
:1002C00044204D4F44452053544F50504544004125
:1002D0004C4552542C20504F534954494F4E2043C3
:1002E00048414E47454420544F203A20200047556E
:1002F000415244204D4F44452041435449564154B6
:1003000045442E2E20504C454153452057414954D9
:100310002035204D494E55544553204245464F52B5
:1003200045204E45585420434F4D4D414E440A0000
:100330004143544956415445442043414C4C532079
:1003400046524F4D20004D554C5449504C45204D80
:100350004541535552454D454E545320494E20502A
:10036000524F47524553532E2E20504C4541534532
:100370002057414954203235204D494E555445535C
:10038000204245464F5245204E45585420434F4D3C
:100390004D414E440A0053494E474C45204D45417E
:1003A000535552454D454E5420494E2050524F47CB
:1003B000524553532E2E2E20504C45415345205725
:1003C00041495420372D38204D494E55544553202E
:1003D0004245464F5245204E45585420434F4D4DBF
:1003E000414E440A00434F4D4D414E44204143434A
:1003F00045505445440A0053544F5000475541520C
:10040000440041435449564154450053494E474CDA
:1004100045004D554C544900434D543A0041542B2E
:10042000434E4D493D312C322C302C302C300D0AAE
:100430000041542B434D4744413D2244454C20410B
:100440004C4C220D0A0041542B434D47533D220092
:1004500041542B434D47463D310D0A004154480A53
:100460000D0041542B43464752493D310A0D00418E
:10047000542B4350494E3D2231313131220A0D0077
:10048000415445300A0D0041542B4350494E3F0A18
:100490000D002B4350494E3A2053494D2050494EB0
:1004A000002B4350494E3A20524541445900415493
:1004B0002B435245473D300A0D0041542B435245D2
:1004C000473F0A0D002B435245473A20302C350058
:1004D0002B435245473A20302C310052494E4700B9
:1004E0004F4B0041540041540A0D000011241FBE1F
:1004F000CFEFD8E0DEBFCDBF13E0A0E0B1E0ECE28B
:10050000FEE102C005900D92A231B107D9F713E0C8
:10051000A2E1B3E001C01D92A334B107E1F70E944C
:1005200033070C94140F0C94000082E08093C000F9
:100530001092C5008CE08093C400E1ECF0E0808173
:1005400088608083808180618083E2ECF0E080813C
:100550008660808308959091C00095FFFCCF8093C2
:10056000C60008958091C00087FFFCCF8091C6002F
:100570000895CF93DF93AC01DC0190E020E03D9142
:10058000FB01E90FF11D8081381320C090E0892F15
:10059000820FFA01E80FF11D3081C92FD0E031112F
:1005A0000BC0FB0101900020E9F73197E61BF70B28
:1005B000CE17DF0759F40FC0FB01EC0FFD1F808140
:1005C000882379F33813EDCF9F5FE1CF2F5F2A3A6D
:1005D000B1F680E001C081E0DF91CF910895CF9323
:1005E000DF93EC018991882319F00E94AB02FACFC6
:1005F000DF91CF910895CF93DF93EC01CE01FE01FF
:100600002491222331F02196FC0184910E94AB02B7
:10061000F5CFDF91CF910895CF9310924203C6E9B1
:100620000E94B202282F30E02A30310579F02D30B7
:10063000310561F0E0914203F0E0E859FD4F80831D
:10064000809142038F5F809342030DC080914203EB
:10065000882349F0E0914203F0E0E859FD4F108211
:100660001092420302C0C150D9F681E0CF910895A3
:10067000CF9310923F03C6E90E94B202282F30E0C8
:100680002A30310579F02D30310561F0E0913F03DA
:10069000F0E0EA56FE4F808380913F038F5F8093A6
:1006A0003F030DC080913F03882349F0E0913F0351
:1006B000F0E0EA56FE4F108210923F0302C0C15094
:1006C000D9F681E0CF910895CF9310923D03109217
:1006D0003E0310924203C0E00E94B202CF5F8C3210
:1006E00019F0C431C9F75EC0C43109F45BC00E947F
:1006F000B202E0913D03F0E0E259FE4F8083909119
:100700003D039F5F90933D03CF5F8C3249F4E091AE
:100710003D03F0E0E359FE4F108210923D0305C007
:10072000C63429F7F4CFC63480F40E94B202E091B7
:100730003E03F0E0EE57FE4F808390913E039F5FB3
:1007400090933E03CF5F8C3271F7E0913E03F0E06F
:10075000EF57FE4F108210923E0305C02A3031053C
:10076000A9F0C63498F40E94B202282F30E0E0913C
:100770004203F0E0E859FD4F8083809142038F5F90
:1007800080934203CF5F2D30310541F7E091420362
:10079000F0E0E959FD4F1082109242030E94B2022C
:1007A00081E001C080E0CF910895CF931092410382
:1007B000C0E00E94B202CF5F8A3311F0C639C9F798
:1007C0000E94B202CF5F823211F0C639C8F30E9494
:1007D000B202E0914103F0E0EC5AFD4F808390912A
:1007E00041039F5F90934103CF5F823249F4E091D0
:1007F0004103F0E0ED5AFD4F10821092410307C013
:10080000C63928F3F4CF0D9749F0C63938F40E9461
:10081000B20290E0CF5F8A309105A9F781E0CF91D5
:100820000895109241031092420380E0E091420348
:10083000F0E0E859FD4F2081909142039F5F909333
:1008400042038F5F2A3311F0863981F7E09142032A
:10085000F0E0E859FD4F2081909142039F5F909313
:1008600042038F5F223211F0863980F3E091420318
:10087000F0E0E859FD4F2081909142039F5F9093F3
:100880004203E0914103F0E0EC5AFD4F2083909148
:1008900041039F5F909341038F5F223211F08639AD
:1008A00028F3E0914103F0E0ED5AFD4F10821092E1
:1008B00041031092420381E00895CF9310921303F5
:1008C000C0E00E94B202CF5F8C3219F0C634C9F783
:1008D0002BC0C63449F10E94B202CF5F8C3211F0B6
:1008E000C634C9F70E94B202282F30E0E09113030A
:1008F000F0E0E050FF4F8083809113038F5F80937F
:100900001303CF5F2A30310529F02D30310511F066
:10091000C63440F3E0911303F0E0E150FF4F108242
:100920001092130381E001C080E0CF910895CF932E
:1009300010923D0310923E0310923C0388EC90E02D
:100940000E94FB02C0E00E94B202CF5F8A3319F01E
:10095000C431C9F775C0C43109F472C00E94B20233
:10096000CF5F8C3211F0C639C9F70E94B202E09114
:100970003E03F0E0EE57FE4F808390913E039F5F71
:1009800090933E03CF5F8C3249F4E0913E03F0E058
:10099000EF57FE4F108210923E0305C0C63928F370
:1009A000F4CFC63980F40E94B202E0913D03F0E03A
:1009B000E259FE4F808390913D039F5F90933D03EA
:1009C000CF5F8C3271F7E0913D03F0E0E359FE4FC9
:1009D000108210923D0302C0C63940F40E94B20258
:1009E000CF5F8C32C9F702C0C63940F40E94B20210
:1009F000CF5F8C32C9F702C0C63940F40E94B20200
:100A0000CF5F8C32C9F702C0C63980F40E94B202AF
:100A1000E0913C03F0E0E65FFE4F808390913C0361
:100A20009F5F90933C03CF5F8C3271F7E0913C0362
:100A3000F0E0E75FFE4F108210923C0381E001C0BE
:100A400080E0CF910895882361F026E033E14EEAFB
:100A50004A95F1F73A95E1F72A95D1F700C0815010
:100A6000F2CF0895CF93DF9380911203813021F06C
:100A7000809112038530C9F481E090E00E94230543
:100A80008DE790E00E94FB0282E090E00E94230547
:100A900082E291E00E94FB0282E090E00E94230546
:100AA00089EB90E00E94FB0204C081E090E00E948C
:100AB0002305C0E0809112038F3F21F08FE090E08A
:100AC0000E94230581E191E00E94FB020E940C0339
:100AD000882309F446C04DE150E064EF70E084E102
:100AE00093E00E94D10E64E173E088E692E00E94F8
:100AF000B902D82FC33119F0D13091F417C04DE1AC
:100B000050E067ED70E084E193E00E94D10E64E173
:100B100073E088E692E00E94B902813069F706C06E
:100B2000809112038F3FC1F1CF5F1BC00E949704D9
:100B300082E090E00E942305C0911203C13071F55C
:100B40008BE990E00E94FB0281E090E00E94230587
:100B50008CE890E00E94FB0281E090E00E94230577
:100B60001EC0C43108F4A6CF82E090E00E942305A5
:100B700080911203813081F48BE990E00E94FB02A6
:100B800081E090E00E9423058CE890E00E94FB0247
:100B900081E090E00E942305C0E001C0C1E08C2FFD
:100BA000DF91CF91089520E12A95F1F700C00895D3
:100BB000CF9386EE94E00E94FB020E940C0343E078
:100BC00050E0882319F060EE74E002C063EE74E038
:100BD00084E193E00E94D10E64E173E088E692E044
:100BE0000E94B902C1E0813009F0C0E081E00E94BA
:100BF0002305CC23F1F281E00E94230580E894E0F4
:100C00000E94FB0281E00E94230581E0CF910895BC
:100C1000CF9382E00E94230587E894E00E94FB02C4
:100C20000E940C038823A9F34DE050E061EA74E0D0
:100C300084E193E00E94D10E64E173E088E692E0E3
:100C40000E94B902C82F4FE050E062E974E084E1ED
:100C500093E00E94D10E64E173E088E692E00E9486
:100C6000B902813049F40E9423058FE694E00E9486
:100C7000FB0281E00E942305C13059F681E0CF914B
:100C80000895CF93DF9381E00E9423058AEB94E0DF
:100C90000E94FB020E940C03811102C0C8E122C025
:100CA0004BE050E060ED74E084E193E00E94D10EEF
:100CB00064E173E088E692E00E94B902813009F4B1
:100CC00084C04BE050E065EC74E084E193E00E9466
:100CD000D10E64E173E088E692E00E94B9028130AF
:100CE000E9F673C081E00E94230584E992E00E9446
:100CF000FB028CE30E9423058AEB94E00E94FB0236
:100D00000E940C03882309F462C04BE050E060EDC0
:100D100074E084E193E00E94D10E64E173E088E620
:100D200092E00E94B902D82F4BE050E065EC74E0ED
:100D300084E193E00E94D10E64E173E088E692E0E2
:100D40000E94B902813009F440C081E0D13009F439
:100D500042C00E94230580EA92E00E94FB0281E0EB
:100D60000E9423058CE890E00E94FB0281E00E9433
:100D700023058BE990E00E94FB0281E00E9423059D
:100D800087E892E00E94FB02DEE18CE30E942305EB
:100D9000D150D9F7459886EE94E00E94FB0281E09D
:100DA0000E9423058AE792E00E94FB0281E00E94F4
:100DB0002305459A81E00E94230584E992E00E9480
:100DC000FB028CE30E94230502C081E004C0C150F5
:100DD00009F088CF80E0DF91CF91089581E00E94F3
:100DE000230587EE91E00E94FB0281E00E9423052B
:100DF00087EC91E00E94FB0281E00E94230586EAD5
:100E000091E00E94FB0281E00E94230586E891E0C8
:100E10000E94FB0281E00E94230581E0089583B7D0
:100E2000817F846083BF83B7816083BF52985A9A61
:100E3000F894E9E6F0E080818D7F808380818E7F69
:100E40008083E89A7894889583B78E7F83BF0895CE
:100E50001F920F920FB60F921124E8980F900FBEB9
:100E60000F901F9018951092120352985A9A3D9A1B
:100E7000459A45E150E068E670E082E391E00E9427
:100E8000D10E45E150E068E670E08AE591E00E940D
:100E9000D10E45E150E068E670E08EE191E00E94FD
:100EA000D10E45E150E068E670E086E491E00E94F2
:100EB000D10E0E9495028AE00E94230580E894E00A
:100EC0000E94FB0281E00E9423050E94D80581E078
:100ED0000E9423058CE692E00E94FB0281E00E94C2
:100EE000230584E992E00E94FB0281E00E94230531
:100EF0008EEA94E00E94FB0281E00E94230585E6D1
:100F000092E00E94FB0283E00E9423050E940806F3
:100F100081E00E94230580E594E00E94FB0281E0CD
:100F20000E94230581E394E00E94FB028DE20E946F
:100F300023050E94410620EA822E26E8922EAA244A
:100F4000A394B12CDFEF15E01092120381E00E9410
:100F500023058CEA92E00E94FB0281E00E942305B7
:100F600080E594E00E94FB0281E00E9423058DE170
:100F700094E00E94FB0281E00E9423058CE890E04F
:100F80000E94FB0281E00E9423058BE990E00E9411
:100F9000FB0281E00E94230587E892E00E94FB02A9
:100FA00082E00E94230590E8C92E98EAD92E92E1AA
:100FB000E92EFF24F3948091C00087FD2AC00E948F
:100FC000D30581E0C81AD108E108F108A1F74598D6
:100FD00086EE94E00E94FB0281E00E9423058AE7EE
:100FE00092E00E94FB0281E00E942305459A81E085
:100FF0000E9423050E94410681E00E94230587E8A4
:1010000092E00E94FB0281E00E94230510921203ED
:10101000CACF0E940C03882309F425C245E050E0A2
:1010200068E174E084E193E00E94D10E64E173E032
:1010300088E692E00E94B902813009F08AC10E94DC
:1010400038030E9411041092120346E050E062E15E
:1010500074E084E193E00E94D10E86E991E00E9461
:10106000DA0E64E173E00E94B902813009F045C0F4
:10107000459886EE94E00E94FB0281E00E942305E1
:101080008AE792E00E94FB0281E00E942305459AD4
:1010900081E00E94230580E594E00E94FB0281E04C
:1010A0000E94230586E494E00E94FB0284E592E01E
:1010B0000E94EF0288EB92E00E94FB0281E00E9416
:1010C000230586E493E00E94FB028AE10E94AB02C2
:1010D0008AE00E94230580E594E00E94FB0281E003
:1010E0000E94230581E394E00E94FB0282E00E94BB
:1010F000230510931203C1E001C0C0E047E050E0B7
:101100006BE074E084E193E00E94D10E86E991E007
:101110000E94DA0E64E173E00E94B902082F813068
:1011200009F044C0459886EE94E00E94FB0281E0FD
:101130000E9423058AE792E00E94FB0281E00E9460
:101140002305459A81E00E94230580E594E00E94F2
:10115000FB0281E00E94230586E494E00E94FB02EA
:1011600084E592E00E94EF0288EB92E00E94FB028D
:1011700081E00E94230586E993E00E94FB028AE158
:101180000E94AB028AE00E94230580E594E00E9461
:10119000FB0281E00E94230581E394E00E94FB02B0
:1011A00082E00E94230500931203C1E049E050E071
:1011B00062E074E084E193E00E94D10E86E991E060
:1011C0000E94DA0E64E173E00E94B902813009F0F6
:1011D00052C0459886EE94E00E94FB0281E00E9496
:1011E00023058AE792E00E94FB0281E00E9423052A
:1011F000459A81E00E94230544E150E060E070E000
:1012000084E592E00E94FC0E80E594E00E94FB02DF
:1012100081E00E94230586E494E00E94FB0284E5BD
:1012200092E00E94EF0288EB92E00E94FB0281E0D4
:101230000E94230580E393E00E94FB0284E592E094
:101240000E94EF028AE10E94AB028AE00E9423051D
:1012500080E594E00E94FB0281E00E94230581E387
:1012600094E00E94FB0282E00E9423051092120388
:1012700001E0C0E001C00C2F46E050E06CEF73E0ED
:1012800084E193E00E94D10E86E991E00E94DA0E9B
:1012900064E173E00E94B902813009F05CC04598B6
:1012A00086EE94E00E94FB0281E00E9423058AE71B
:1012B00092E00E94FB0281E00E942305459A81E0B2
:1012C0000E94230580E594E00E94FB0281E00E94D9
:1012D000230586E494E00E94FB0284E592E00E94EC
:1012E000EF0288EB92E00E94FB0281E00E9423055E
:1012F0008EEE92E00E94FB028AE10E94AB028AE03D
:101300000E94230580E594E00E94FB0281E00E9498
:10131000230581E394E00E94FB0282E00E94230502
:10132000D09312038DE790E00E94FB0282E00E94BE
:10133000230582E291E00E94FB0282E00E942305E5
:1013400089EB90E00E94FB0281E00E94230501E00E
:1013500001C000E0C1E045E050E06BED74E084E1E5
:1013600093E00E94D10E64E173E088E692E00E946F
:10137000B902813009F040C045980E94D50386EE3D
:1013800094E00E94FB0281E00E9423058AE792E03C
:101390000E94FB0281E00E942305459A81E00E94A1
:1013A00023058CE594E00E94FB0281E00E94230566
:1013B00080E594E00E94FB0281E00E94230581E326
:1013C00094E00E94FB0282E00E94230544E150E089
:1013D00060E070E080E492E00E94EC0E64E572E070
:1013E00080E492E00E94B902813019F480931203E4
:1013F0003AC01092120302C0011132C0459886EE25
:1014000094E00E94FB0281E00E9423058AE792E0BB
:101410000E94FB0281E00E942305459A81E00E9420
:1014200023050E9408060E94410681E00E942305D0
:1014300080E594E00E94FB0281E00E94230581E3A5
:1014400094E00E94FB0282E00E94230589E591E07E
:101450000E94FB0285E00E9423051092120374CDC6
:10146000CC2309F471CD0E943205813009F003C20A
:10147000CEE6D1E009900020E9F72197CE56D14081
:10148000DD27FE01E459FE4FC080D12C90E3C91A3C
:10149000D108EE24D7FCE094FE2CFE01E559FE4F66
:1014A000A081B0E0D097FE01E659FE4F408150E0A8
:1014B000405351092AE030E00E94680E2B013C01A4
:1014C00024E630E0DA010E94680E460E571E681EC0
:1014D000791EC40CD51CE61CF71CFE01E759FE4F13
:1014E000A081B0E0D09728EE33E00E94680EC60ECF
:1014F000D71EE81EF91EFE01E859FE4FA081B0E09C
:10150000D09720E137E20E94680EC60ED71EE81E73
:10151000F91EFE01EA59FE4FA081B0E0D09720EA03
:1015200036E841E050E00E946F0EC60ED71EE81E5E
:10153000F91EFE01EB59FE4FA081B0E0D09720E4E8
:1015400032E44FE050E00E946F0E6C0D7D1D8E1D49
:101550009F1D2CE330E040E050E00E94770E29010F
:101560003A01FE01EC59FE4FA081B0E0D09720E88F
:1015700036E948E950E00E946F0E6B017C01CB30E8
:10158000D10540F1FE01ED59FE4F80818D3269F0A9
:10159000A081B0E0D09720E031EE45EF55E00E9409
:1015A0006F0EC60ED71EE81EF91ECC30D10590F086
:1015B000CE59DE4F88818D3269F0A881B0E0D09796
:1015C00020E03AEC4AE95BE30E946F0EC60ED71E9C
:1015D000E81EF91EC701B601640D751D861D971D15
:1015E00020916E012D3209F020E32093460120E086
:1015F0003AEC4AE95BE30E94770E205D20934701B5
:1016000020E031EE45EF55E00E94770E205D2093FB
:10161000480120E836E948E950E00E94770E205D55
:10162000209349012EE220934A0120E432E44FE066
:1016300050E00E94770EA50194010E94770E20E1F0
:1016400037E240E050E00E94770E205D20934B018E
:1016500028EE33E040E050E00E94770E205D2093BA
:101660004C0124E630E040E050E00E94770E205D1F
:1016700020934D012AE030E040E050E00E94770ED8
:10168000205D20934E01605D60934F0110925001E8
:10169000C2E8D1E009900020E9F72197C258D14073
:1016A000DD27FE01E058FE4FC080D12C80E3C81A30
:1016B000D108EE24D7FCE094FE2CFE01E158FE4F49
:1016C000A081B0E0D097FE01E258FE4F408150E08B
:1016D000405351092AE030E00E94680E2B013C0182
:1016E00024E630E0DA010E94680E460E571E681E9E
:1016F000791EC40CD51CE61CF71CFE01E358FE4FF6
:10170000A081B0E0D09728EE33E00E94680EC60EAC
:10171000D71EE81EF91EFE01E458FE4FA081B0E07E
:10172000D09720E137E20E94680EC60ED71EE81E51
:10173000F91EFE01E658FE4FA081B0E0D09720EAE6
:1017400036E841E050E00E946F0EC60ED71EE81E3C
:10175000F91EFE01E758FE4FA081B0E0D09720E4CB
:1017600032E44FE050E00E946F0E6C0D7D1D8E1D27
:101770009F1D2CE330E040E050E00E94770E6901AD
:101780007A01FE01E858FE4FA081B0E0D09720E832
:1017900036E948E950E00E946F0E2B013C01CB3046
:1017A000D10590F0C958DE4F88818D3269F0A8814B
:1017B000B0E0D09720E031EE45EF55E00E946F0E8B
:1017C000460E571E681E791EC301B2016C0D7D1DA9
:1017D0008E1D9F1D209182012D3209F020E3209360
:1017E0005A0120E031EE45EF55E00E94770E205D72
:1017F00020935B0120E836E948E950E00E94770E2B
:10180000205D20935C012EE220935D0120E432E410
:101810004FE050E00E94770EA50194010E94770EE0
:1018200020E137E240E050E00E94770E205D2093F7
:101830005E0128EE33E040E050E00E94770E205D2C
:1018400020935F0124E630E040E050E00E94770EF4
:10185000205D209360012AE030E040E050E00E94EB
:10186000770E205D20936101605D609362011092AC
:101870006301C1E056C0809112038F3F09F4C8C0D4
:10188000C3E081E00E94230589E591E00E94FB020C
:1018900084E00E9423050E94EE0687E791E00E9403
:1018A000FB028AE00E94230588E691E00E94FB0289
:1018B0000E940C03882309F409C24CE050E06DE457
:1018C00071E084E193E00E94D10E64E173E088E668
:1018D00092E00E94B90291E0813009F0F7C1C15055
:1018E00009F493C0992369F281E00E9423058AE3F9
:1018F00091E00E94FB020E946403C82F811103C083
:1019000087E30E94230585E00E94230589E591E095
:101910000E94FB0285E00E942305C13009F078C0D7
:10192000C0E0809112038F3F09F473C081E00E94F0
:10193000230581E391E00E94FB020E945D0481E0A7
:101940000E94230580E594E00E94FB0281E00E9452
:10195000230586E494E00E94FB0284E592E00E9465
:10196000EF0288EB92E00E94FB0281E00E942305D7
:10197000C11104C088E692E00E94EF0280E292E08A
:101980000E94FB02C11103C08EE691E002C086E412
:1019900091E00E94EF0285E192E00E94FB02C111FA
:1019A00003C082E891E002C08AE591E00E94EF0264
:1019B00087E092E00E94FB0280E091E00E94EF024B
:1019C00082E392E00E94FB02C11103C082E891E031
:1019D00002C08AE591E00E94EF0280E392E00E945B
:1019E000FB02C11103C08EE691E002C086E491E0E3
:1019F0000E94EF028DE292E00E94FB0281E00E94D1
:101A000023058AE10E94AB0204C0913009F46CCF37
:101A1000C0E086E391E00E94B30E8C0183E291E086
:101A20000E94B30EC13009F08DC0209112032F3FE8
:101A300009F088C0012B09F485C0892B09F482C004
:101A400086E391E00E94B30EEC018EE591E00E94E6
:101A5000B30E6C0183E291E00E94B30E7C018BE433
:101A600091E00E94B30EE81AF90AF7FE03C0F19460
:101A7000E194F1089BEFE916F1045CF4CC19DD095F
:101A8000D7FF03C0D195C195D109CB3FD1050CF447
:101A900059C081E00E94230580E594E00E94FB028A
:101AA00081E00E94230586E494E00E94FB0284E525
:101AB00092E00E94EF0288EB92E00E94FB0281E03C
:101AC0000E9423058FEC92E00E94FB0282E392E0E9
:101AD0000E94FB028AE591E00E94EF0280E392E01F
:101AE0000E94FB0286E491E00E94EF028DE292E008
:101AF0000E94FB0281E00E9423058AE10E94AB0262
:101B00008AE00E94230581E0809312038BE990E034
:101B10000E94FB0281E00E9423058CE890E00E9475
:101B2000FB0281E00E94230580E594E00E94FB0215
:101B300081E00E94230581E394E00E94FB0282E0A1
:101B40000E9423058AE0EAE5F1E0A2E3B1E001901A
:101B50000D928A95E1F78BE0E6E4F1E0AEE1B1E0C9
:101B600001900D928A95E1F7809112038F3F29F041
:101B70008091120381508093120380911203882375
:101B800069F0809112038F3F49F08CE30E94230596
:101B90008CE30E9423058CE30E94230580911203AD
:101BA000811103C08AE00E942305809112038F3FB8
:101BB00009F087C081E00E9423058091C00087FF63
:101BC00003C08091C600F9CFC12C85E3D82E8CE0EC
:101BD000E82EF12C0E94D3058091C00091E0C91A33
:101BE000D108E108F10809F46CC087FFF3CF0E9427
:101BF0000C03882309F465C045E050E068E174E017
:101C000084E193E00E94D10E64E173E088E692E003
:101C10000E94B902813009F054C00E9438030E942A
:101C2000110445E050E067EF73E084E193E00E9427
:101C3000D10E86E991E00E94DA0E64E173E00E9421
:101C4000B9028130F1F580E594E00E94FB0281E069
:101C50000E94230586E494E00E94FB0284E592E062
:101C60000E94EF0288EB92E00E94FB0281E00E945A
:101C700023058CEB92E00E94FB028AE10E94AB02FA
:101C80008AE00E94230580E594E00E94FB0281E047
:101C90000E94230581E394E00E94FB0282E00E94FF
:101CA00023058BE990E00E94FB0281E00E9423055E
:101CB0008CE890E00E94FB0281E00E9423051092D4
:101CC0001203809112038111CECB3CC990E007CE64
:101CD0000E94990EB7FF0895821B930B0895B7FFDA
:101CE0000C94A80E0E94A80E821B930B0895A1E2EB
:101CF0001A2EAA1BBB1BFD010DC0AA1FBB1FEE1F86
:101D0000FF1FA217B307E407F50720F0A21BB30BD0
:101D1000E40BF50B661F771F881F991F1A9469F74C
:101D200060957095809590959B01AC01BD01CF01A8
:101D30000895A29FB001B39FC001A39F700D811DA4
:101D40001124911DB29F700D811D1124911D0895C4
:101D50000E94990EA59F900DB49F900DA49F800D99
:101D6000911D11240895FC0188279927E894219159
:101D70002032E9F3293010F02E30C8F32B3241F035
:101D80002D3239F4689404C00E94E40E820F911D34
:101D9000219120532A30C0F31EF4909581959F4FD6
:101DA0000895FB01DC0102C005900D9241505040A6
:101DB000D8F70895DC016C9161566A3108F0605ED5
:101DC0006F5B6D93C1F708957AE0979F902D879F81
:101DD000802D910D11240895DC01CB01FC01F999AE
:101DE000FECF06C0F2BDE1BDF89A319600B40D9267
:101DF00041505040B8F70895DC01CB0103C02D914C
:101E00000E94070F41505040D0F70895262FF999AE
:101E1000FECF1FBA92BD81BD20BD0FB6F894FA9ACD
:0C1E2000F99A0FBE01960895F894FFCFC8
:101E2C0030303030303030303030303030303030A6
:101E3C003030303030303030303030303030303096
:101E4C003030303030303030303030303030303086
:101E5C003030303030303030303030303030303076
:101E6C003030303030303030303030303030303066
:101E7C003030303030303030303030303030303056
:101E8C003030303030303030303030303030303046
:101E9C003030303030303030303030303030303036
:101EAC003030303030303030303030303030303026
:101EBC0030303030303031323334353637383930E9
:101ECC0031323334353637383930313233343536C4
:101EDC0037383930313233343536373839303132AE
:101EEC003334353637383930313233343536373898
:101EFC003930313233343536373839303132333496
:101F0C003536373839303132333435363738393075
:101F1C003132333435363738393031323334353673
:101F2C00373839303132333435363738393031325D
:101F3C003334353637383930313233343536373847
:101F4C003930313233343536373839303132333445
:101F5C003536373839303132333435363738393025
:101F6C003132333435363738393031323334353623
:101F7C00373839303132333435363738393031320D
:101F8C0033343536373839303132333435363738F7
:101F9C0039303132333435363738393031323334F5
:101FAC0035363738393031323334353637383930D5
:101FBC0031323334353637383930313233343536D3
:101FCC0037383930313233343536373839303132BD
:101FDC0033343536373839303132333435363738A7
:101FEC0039303132333435363738393031323334A5
:101FFC003536373839303132333435363738393085
:10200C003132333435363738393031323334353682
:10201C00373839303132333435363738393031326C
:10202C003334353637383930313233343536373856
:02203C00393039
:00000001FF
