:100000000C94B3010C9431050C94D0010C94D001E4
:100010000C94D0010C94D0010C94D0010C94D0011C
:100020000C94D0010C94D0010C94D0010C94D0010C
:100030000C94D0010C94D0010C94D0010C94D001FC
:100040000C94D0010C94D0010C94D0010C94D001EC
:100050000C94D0010C94D0010C94D0010C94D001DC
:100060000C94D0010C94D00141542B43474E535073
:1000700057523D310D0A0041542B43474E535057C0
:10008000523D300D0A0041542B43475053505752B4
:100090003D300D0A0041542B434750535253543DB9
:1000A000310D0A0041542B434750535253543D30B5
:1000B0000D0A0041542B43475053494E463D300DE5
:1000C0000A002B434750535354415455533A204C44
:1000D0006F636174696F6E20324420466978002B2B
:1000E000434750535354415455533A204C6F636126
:1000F00074696F6E203344204669780041542B4365
:100100004750535354415455533F0D0A0041542B0B
:10011000434750535057523D310D0A0041542B4331
:1001200042430D0A0041542B43495047534D4C4F15
:10013000433D312C310D0A002B53415042523A209D
:10014000312C310041542B53415042523D302C311F
:100150000D0A0041542B53415042523D322C310D77
:100160000A0041542B53415042523D312C310D0A6B
:100170000041542B53415042523D332C312C2250DC
:100180005744222C22696E7465726E6574220D0AC2
:100190000041542B53415042523D332C312C2255B7
:1001A000534552222C22696E7465726E6574220D5D
:1001B0000A0041542B53415042523D332C312C22E2
:1001C00041504E222C22696E7465726E6574220D48
:1001D0000A0041542B53415042523D332C312C22C2
:1001E000434F4E54595045222C2247505253220D12
:1001F0000A000A424154544552595B6D565D3D0018
:10020000204C41545449545544453D00204C4F4ED8
:10021000475449545544453D000D0A002C000D0A31
:1002200020687474703A2F2F6D6170732E676F6F32
:10023000676C652E636F6D2F6D6170733F713D004C
:1002400041542B434E45544C494748543D300D0AC8
:1002500000415426570D0A0041542B4950523D3954
:100260003630300D0A0041542B4353434C4B3D3044
:100270000D0A0041542B4353434C4B3D310D0A00B2
:1002800041542B4346554E3D310D0A0041542B43FA
:1002900046554E3D340D0A0041542B434C49503DC8
:1002A000310D0A00220A0D0041542B434D474441B1
:1002B0003D2244454C20414C4C220D0A0041542B18
:1002C000434D47533D220041542B434D47463D315A
:1002D0000D0A004154480A0D0041542B4346475231
:1002E000493D310A0D0041542B4350494E3D2231C6
:1002F000313131220A0D00415445300A0D0041547C
:100300002B4350494E3F0A0D002B4350494E3A2093
:1003100053494D2050494E002B4350494E3A2052EC
:10032000454144590041542B435245473D300A0D45
:100330000041542B435245473F0A0D002B43524581
:10034000473A20302C35002B435245473A20302C79
:100350003100494E470052494E47004F4B0041542F
:100360000041540A0D0011241FBECFEFD8E0DEBFBC
:10037000CDBF11E0A0E0B1E0E8E4F3E102C00590F8
:100380000D92A23DB107D9F712E0A2EDB1E001C094
:100390001D92A030B107E1F70E943C050C94A20920
:1003A0000C94000082E08093C0001092C5008CE0A5
:1003B0008093C400E1ECF0E08081886080838081DC
:1003C00080618083E2ECF0E0808186608083089524
:1003D0009091C00095FFFCCF8093C6000895809156
:1003E000C00087FFFCCF8091C6000895CF93DF93B4
:1003F000AC01DC0190E020E03D91FB01E90FF11D33
:100400008081381320C090E0892F820FFA01E80F15
:10041000F11D3081C92FD0E031110BC0FB010190DB
:100420000020E9F73197E61BF70BCE17DF0759F4E9
:100430000FC0FB01EC0FFD1F8081882379F3381377
:10044000EDCF9F5FE1CF2F5F2035B1F680E001C097
:1004500081E0DF91CF910895CF93DF93EC018991F3
:10046000882319F00E94E801FACFDF91CF91089517
:10047000CF93DF93EC01CE01FE012491222331F0D2
:100480002196FC0184910E94E801F5CFDF91CF9184
:1004900008951092FF010E94EF01282F30E02A30CA
:1004A000310579F02D30310561F0E091FF01F0E088
:1004B000EE57FE4F80838091FF018F5F8093FF0195
:1004C000EACF8091FF01882331F3E091FF01F0E052
:1004D000EE57FE4F10821092FF0181E008951092B6
:1004E000FC011092FD011092FF010E94EF018C327D
:1004F000E1F70E94EF01E091FC01F0E0EA5BFE4FC2
:1005000080839091FC019F5F9093FC018C3289F76E
:10051000E091FC01F0E0EB5BFE4F10821092FC01D9
:100520000E94EF01E091FD01F0E0E65AFE4F80836A
:100530009091FD019F5F9093FD018C3289F7E091CE
:10054000FD01F0E0E75AFE4F10821092FD010E947B
:10055000EF01282F30E0E091FF01F0E0EE57FE4F71
:1005600080838091FF018F5F8093FF012D303105E3
:1005700019F02A30310559F7E091FF01F0E0EF570B
:10058000FE4F10821092FF010E94EF0181E008955A
:100590001092FE010E94EF018A33E1F70E94EF0101
:1005A0008232E1F70E94EF01E091FE01F0E0E259B2
:1005B000FE4F80839091FE019F5F9093FE018232F7
:1005C00089F7E091FE01F0E0E359FE4F10821092AE
:1005D000FE010E94EF0190E08A30910511F00D9725
:1005E000C1F781E008951092D2010E94EF018C3290
:1005F000E1F70E94EF018C32E1F70E94EF01282F12
:1006000030E0E091D201F0E0E050FF4F8083809134
:10061000D2018F5F8093D2012A30310519F02D303D
:10062000310559F7E091D201F0E0E150FF4F10821F
:100630001092D20181E008951092FC011092FD0108
:100640001092FB0183EB90E00E9438020E94EF01C0
:100650008A33E1F70E94EF018C32E1F70E94EF014B
:10066000E091FD01F0E0E65AFE4F80839091FD019C
:100670009F5F9093FD018C3289F7E091FD01F0E0DE
:10068000E75AFE4F10821092FD010E94EF01E091A7
:10069000FC01F0E0EA5BFE4F80839091FC019F5FDC
:1006A0009093FC018C3289F7E091FC01F0E0EB5B68
:1006B000FE4F10821092FC010E94EF018C32E1F794
:1006C0000E94EF018C32E1F70E94EF018C32E1F7DA
:1006D0000E94EF01E091FB01F0E0E65FFE4F8083B6
:1006E0009091FB019F5F9093FB018C3289F7E09121
:1006F000FB01F0E0E75FFE4F10821092FB0181E00A
:100700000895882361F026E033E14EEA4A95F1F737
:100710003A95E1F72A95D1F700C08150F2CF0895BC
:10072000CF93DF9381E090E00E94810388E690E020
:100730000E94380282E090E00E9481038DE091E007
:100740000E94380282E090E00E94810384EA90E0F7
:100750000E943802C0E08FE090E00E9481038CEF9D
:1007600090E00E9438020E9449028823E9F14DE19D
:1007700050E06FED70E083ED91E00E94990963ED28
:1007800071E082E891E00E94F601D82FC33119F0A0
:10079000D13049F510C04DE150E062EC70E083EDDE
:1007A00091E00E94990963ED71E082E891E00E9476
:1007B000F601813069F70E941C0382E090E00E94FC
:1007C000810386E890E00E94380281E090E00E9478
:1007D000810387E790E00E94380281E090E00E9468
:1007E000810381E019C0CF5FC43108F4B4CF82E047
:1007F00090E00E94810386E890E00E94380282E047
:1008000090E00E94810387E790E00E94380282E036
:1008100090E00E94810380E0DF91CF910895CF9313
:1008200081E693E00E9438020E94490243E050E0D2
:10083000882319F06BE573E002C06EE573E083ED89
:1008400091E00E94990963ED71E082E891E00E94D5
:10085000F601C1E0813009F0C0E081E00E9481032F
:10086000CC23F1F282E00E94810387EF92E00E94A4
:10087000380281E00E94810381E0CF910895CF93F7
:1008800082E00E9481038EEF92E00E9438020E9473
:1008900049028823A9F34DE050E068E173E083ED5D
:1008A00091E00E94990963ED71E082E891E00E9475
:1008B000F601C82F4FE050E069E073E083ED91E06E
:1008C0000E94990963ED71E082E891E00E94F601CF
:1008D000813049F40E94810386EE92E00E94380242
:1008E00081E00E948103C13059F681E0CF910895E3
:1008F000CF93DF93C8E181E00E94810380E892E01A
:100900000E9438028EE10E94810381E393E00E94FD
:1009100038020E944902882309F462C04BE050E08B
:1009200067E473E083ED91E00E94990963ED71E063
:1009300082E891E00E94F601D82F4BE050E06CE392
:1009400073E083ED91E00E94990963ED71E082E824
:1009500091E00E94F601813009F440C081E0D1307D
:1009600009F442C00E9481038CE892E00E943802A0
:1009700081E00E94810387E790E00E94380281E0D5
:100980000E94810386E890E00E94380281E00E9484
:10099000810383E792E00E943802DEE18CE30E944B
:1009A0008103D150D9F7459881E693E00E9438023F
:1009B00081E00E94810386E692E00E94380281E095
:1009C0000E948103459A81E00E94810380E892E0C1
:1009D0000E9438028EE10E94810302C081E004C0BF
:1009E000C15009F088CF80E0DF91CF91089581E078
:1009F0000E94810382ED91E00E94380281E00E9412
:100A0000810382EB91E00E94380281E00E94810321
:100A100081E991E00E94380281E00E94810381E730
:100A200091E00E94380281E00E94810381E00895F4
:100A300083B7817F846083BF83B7816083BF52980F
:100A40005A9AF894E9E6F0E080818D7F8083808176
:100A50008E7F8083E89A7894889583B78E7F83BF52
:100A600008951F920F920FB60F921124E8980F90DD
:100A70000FBE0F901F90189552985A9A3D9A45981C
:100A8000459A0E94D2018AE00E9481030E940F04CD
:100A900082E00E94810388E592E00E94380282E0B1
:100AA0000E94810385E293E00E94380282E00E9466
:100AB000810380E892E00E9438028AE00E9481036C
:100AC00081E592E00E94380283E00E9481030E9447
:100AD0003F040E9478040E94F704812C912C540159
:100AE00080E892E00E94380282E00E94810388E957
:100AF00092E00E94380282E00E94810387E790E042
:100B00000E94380281E00E94810386E890E00E9402
:100B1000380281E00E94810383E792E00E9438025C
:100B200082E00E9481038091C00087FD32C08FEF78
:100B3000881A980AA80AB80A81E00E94810388E00E
:100B4000881687E09806A104B10469F7459881E604
:100B500093E00E94380281E00E94810386E692E0E1
:100B60000E94380281E00E948103459A81E00E9440
:100B700081030E94780481E00E94810383E792E070
:100B80000E94380281E00E948103812C912C540143
:100B9000CACF0E944902882309F4B4C045E050E05E
:100BA00066E573E083ED91E00E94990963ED71E0E1
:100BB00082E891E00E94F601813071F545980E942B
:100BC000C80281E693E00E94380281E00E9481031E
:100BD00086E692E00E94380281E00E948103459AF5
:100BE00081E00E94810383ED92E00E94380281E05F
:100BF0000E9481030E94F70487EC92E00E94380271
:100C000082E00E94810388EA92E00E94380283E039
:100C10000E948103C1E001C0C0E044E050E062E511
:100C200073E083ED91E00E94990963ED71E082E841
:100C300091E00E94F601813079F5C11163C04598B9
:100C40000E94C80281E693E00E94380281E00E947F
:100C5000810386E692E00E94380281E00E948103CF
:100C6000459A81E00E94810383ED92E00E94380260
:100C700081E00E9481030E94F70487EC92E00E94C9
:100C8000380282E00E94810388EA92E00E943802E2
:100C900083E00E94810336C0C11134C0459881E6CB
:100CA00093E00E94380281E00E94810386E692E090
:100CB0000E94380281E00E948103459A81E00E94EF
:100CC00081030E943F040E9478040E94F70488E98F
:100CD00092E00E94380282E00E94810387EC92E059
:100CE0000E94380282E00E94810388EA92E00E941A
:100CF000380283E00E94810384E491E00E9438027C
:100D000085E036C20E949003813009F07FC2C6E4BC
:100D1000D1E009900020E9F72197C654D140DD27A2
:100D2000FE01EC5BFE4FC080D12C80E3C81AD108D5
:100D3000EE24D7FCE094FE2CFE01ED5BFE4FA0817B
:100D4000B0E0D097FE01EE5BFE4F408150E0405393
:100D500051092AE030E00E944E092B013C0124E6B3
:100D600030E0DA010E944E09460E571E681E791EB9
:100D7000C40CD51CE61CF71CFE01EF5BFE4FA081E6
:100D8000B0E0D09728EE33E00E944E09C60ED71E81
:100D9000E81EF91EFE01E05CFE4FA081B0E0D09796
:100DA00020E137E20E944E09C60ED71EE81EF91E4A
:100DB000FE01E25CFE4FA081B0E0D09720EA36E869
:100DC00041E050E00E945509C60ED71EE81EF91EEC
:100DD000FE01E35CFE4FA081B0E0D09720E432E456
:100DE0004FE050E00E9455096C0D7D1D8E1D9F1D2A
:100DF0002CE330E040E050E00E945D0929013A0117
:100E0000FE01E45CFE4FA081B0E0D09720E836E917
:100E100048E950E00E9455096B017C01CB30D105B7
:100E200008F0A9C1C701B601640D751D861D971D87
:100E3000209146012D3209F020E320931E0120E08D
:100E40003AEC4AE95BE30E945D09205D20931F01B3
:100E500020E031EE45EF55E00E945D09205D2093D2
:100E6000200120E836E948E950E00E945D09205D54
:100E7000209321012EE22093220120E432E44FE06E
:100E800050E00E945D0920EA36E841E050E00E940F
:100E90005D0920E137E240E050E00E945D09205DFD
:100EA0002093230128EE33E040E050E00E945D09EA
:100EB000205D2093240124E630E040E050E00E94D1
:100EC0005D09205D209325012AE030E040E050E0FC
:100ED0000E945D09205D20932601605D60932701DB
:100EE00010922801CAE5D1E009900020E9F7219786
:100EF000CA55D140DD27FE01E85AFE4FC080D12CF3
:100F000080E3C81AD108EE24D7FCE094FE2CFE0141
:100F1000E95AFE4FA081B0E0D097FE01EA5AFE4F99
:100F2000408150E0405351092AE030E00E944E09D0
:100F30002B013C0124E630E0DA010E944E09460E06
:100F4000571E681E791EC40CD51CE61CF71CFE013A
:100F5000EB5AFE4FA081B0E0D09728EE33E00E941C
:100F60004E09C60ED71EE81EF91EFE01EC5AFE4FB2
:100F7000A081B0E0D09720E137E20E944E09C60E72
:100F8000D71EE81EF91EFE01EE5AFE4FA081B0E00A
:100F9000D09720EA36E841E050E00E945509C60E9D
:100FA000D71EE81EF91EFE01EF5AFE4FA081B0E0E9
:100FB000D09720E432E44FE050E00E9455096C0DD8
:100FC0007D1D8E1D9F1D2CE330E040E050E00E940F
:100FD0005D0969017A01FE01E05BFE4FA081B0E08E
:100FE000D09720E836E948E950E00E9455092B01E6
:100FF0003C01CB30D10508F0E9C0C301B2016C0D52
:101000007D1D8E1D9F1D20915A012D3209F020E378
:101010002093320120E031EE45EF55E00E945D095A
:10102000205D2093330120E836E948E950E00E9432
:101030005D09205D209334012EE22093350120E4E8
:1010400032E44FE050E00E945D0920EA36E841E0DA
:1010500050E00E945D0920E137E240E050E00E944C
:101060005D09205D2093360128EE33E040E050E03A
:101070000E945D09205D2093370124E630E040E0C6
:1010800050E00E945D09205D209338012AE030E0A5
:1010900040E050E00E945D09205D20933901605DD1
:1010A00060933A0110923B01C1E081E00E9481030C
:1010B0008CE191E00E9438020E94F30281E00E94DC
:1010C000810387EC92E00E94380281E00E94810354
:1010D0008DEB92E00E9438028EE691E00E942C0295
:1010E00084EA92E00E94380281E00E948103C111EB
:1010F00004C082E891E00E942C028CE092E00E9401
:101100003802C11177C086E491E00E942C0280E091
:1011100092E00E943802C11170C08AE591E00E94FD
:101120002C0282EF91E00E94380280E091E00E9460
:101130002C028EE192E00E943802C11161C08AE562
:1011400091E00E942C028CE192E00E943802C111D1
:101150005AC086E491E00E942C0289E192E00E944C
:10116000380281E00E9481038AE10E94E8018AE05E
:101170000E948103B5CCFE01E55CFE4F80818D327B
:1011800069F0A081B0E0D09720E031EE45EF55E066
:101190000E945509C60ED71EE81EF91ECC30D10597
:1011A00008F440CEC65CDE4F88818D3209F43ACE19
:1011B000A881B0E0D09720E03AEC4AE95BE30E94D6
:1011C0005509C60ED71EE81EF91E2CCEC15BDE4F98
:1011D00088818D3209F411CFA881B0E0D09720E04A
:1011E00031EE45EF55E00E945509460E571E681E28
:1011F000791E03CF8EE191E088CF82E391E08FCF1B
:1012000082E391E09ECF8EE191E0A5CFC3E085E03F
:101210000E94810384E491E00E94380282E00E94EF
:10122000810382E691E00E9438028AE00E948103F5
:1012300083E591E00E9438020E944902882389F0E8
:101240004CE050E068E371E083ED91E00E94990981
:1012500063ED71E082E891E00E94F60191E0813057
:1012600009F090E0C15019F0992389F202C0913041
:1012700099F481E00E94810385E291E00E943802A6
:101280000E946F0285E00E94810384E491E00E9445
:10129000380285E00E948103C0E007CF0E947F09E9
:1012A000B7FF0895821B930B0895B7FF0C948E0926
:1012B0000E948E09821B930B0895A1E21A2EAA1B8D
:1012C000BB1BFD010DC0AA1FBB1FEE1FFF1FA217F6
:1012D000B307E407F50720F0A21BB30BE40BF50BF3
:1012E000661F771F881F991F1A9469F7609570957C
:1012F000809590959B01AC01BD01CF010895A29FFF
:10130000B001B39FC001A39F700D811D1124911DD9
:10131000B29F700D811D1124911D08950E947F09B7
:10132000A59F900DB49F900DA49F800D911D112439
:101330000895FB01DC0102C005900D924150504020
:08134000D8F70895F894FFCFDF
:101348003132333435363738393031323334353653
:10135800373839303132333435363738393031323D
:101368003334353637383930313233343536373827
:101378003930313233343536373839303132333425
:101388003536373839303132333435363738393005
:101398003132333435363738393031323334353603
:1013A80037383930313233343536373839303132ED
:1013B80033343536373839303132333435363738D7
:1013C80039303132333435363738393031323334D5
:1013D80035363738393031323334353637383930B5
:1013E80031323334353637383930313233343536B3
:1013F800373839303132333435363738393031329D
:101408003334353637383930313233343536373886
:02141800393069
:00000001FF
