:100000000C94B4010C9406050C94D1010C94D1010C
:100010000C94D1010C94D1010C94D1010C94D10118
:100020000C94D1010C94D1010C94D1010C94D10108
:100030000C94D1010C94D1010C94D1010C94D101F8
:100040000C94D1010C94D1010C94D1010C94D101E8
:100050000C94D1010C94D1010C94D1010C94D101D8
:100060000C94D1010C94D10141542B43474E535071
:1000700057523D310D0A0041542B43474E535057C0
:10008000523D300D0A0041542B43475053505752B4
:100090003D300D0A0041542B434750535253543DB9
:1000A000310D0A0041542B434750535253543D30B5
:1000B0000D0A0041542B43475053494E463D300DE5
:1000C0000A002B434750535354415455533A204C44
:1000D0006F636174696F6E20334420466978004114
:1000E000542B434750535354415455533F0D0A002A
:1000F00041542B434750535057523D310D0A004154
:10010000542B4342430D0A0041542B43495047535B
:100110004D4C4F433D312C310D0A002B5341504281
:10012000523A20312C310041542B53415042523D20
:10013000302C310D0A0041542B53415042523D3274
:100140002C310D0A0041542B53415042523D312C69
:10015000310D0A0041542B53415042523D332C3152
:100160002C22505744222C22696E7465726E65747D
:10017000220D0A0041542B53415042523D332C3141
:100180002C2255534552222C22696E7465726E657D
:1001900074220D0A0041542B53415042523D332CDE
:1001A000312C2241504E222C22696E7465726E658C
:1001B00074220D0A0041542B53415042523D332CBE
:1001C000312C22434F4E54595045222C2247505235
:1001D00053220D0A000A424154544552595B6D5650
:1001E0005D3D00204C41545449545544453D002048
:1001F0005554430A204C4F4E475449545544453DAD
:10020000000D0A002C000D0A20687474703A2F2F1C
:100210006D6170732E676F6F676C652E636F6D2FE6
:100220006D6170733F713D0041542B434E45544CFA
:10023000494748543D300D0A00415426570D0A00E5
:1002400041542B4950523D393630300D0A0041544B
:100250002B4353434C4B3D300D0A0041542B435329
:10026000434C4B3D310D0A0041542B4346554E3D06
:10027000310D0A0041542B4346554E3D340D0A00C2
:1002800041542B434C49503D310D0A00220A0D00C8
:1002900041542B434D4744413D2244454C20414C61
:1002A0004C220D0A0041542B434D47533D2200413F
:1002B000542B434D47463D310D0A004154480A0D29
:1002C0000041542B43464752493D310A0D004154E9
:1002D0002B4350494E3D2231313131220A0D00412C
:1002E0005445300A0D0041542B4350494E3F0A0DEE
:1002F000002B4350494E3A2053494D2050494E005F
:100300002B4350494E3A20524541445900435245EF
:10031000473D30002B435245473D20312C32002BC6
:10032000435245473D20312C300041542B43524528
:10033000473D310A0D0041542B435245473F0A0DBA
:10034000002B435245473A20312C35002B43524570
:10035000473A20312C310052494E47004F4B004163
:10036000540041540A0D000011241FBECFEFD8E005
:10037000DEBFCDBF11E0A0E0B1E0E8E2FDE002C0E9
:1003800005900D92A83CB107D9F711E0A8ECB1E0B7
:1003900001C01D92A23EB107E1F70E9411050C9425
:1003A00092060C94000082E08093C0001092C50079
:1003B0008CE08093C400E1ECF0E080818860808371
:1003C000808180618083E2ECF0E0808186608083C0
:1003D00008959091C00095FFFCCF8093C6000895CA
:1003E0008091C00087FFFCCF8091C6000895CF9315
:1003F000DF93AC01DC0190E020E03D91FB01E90FCF
:10040000F11D8081381320C090E0892F820FFA01FE
:10041000E80FF11D3081C92FD0E031110BC0FB0175
:1004200001900020E9F73197E61BF70BCE17DF07A5
:1004300059F40FC0FB01EC0FFD1F8081882379F375
:100440003813EDCF9F5FE1CF2F5F2832B1F680E008
:1004500001C081E0DF91CF910895CF93DF93EC014C
:100460008991882319F00E94E901FACFDF91CF9199
:100470000895CF93DF93EC01CE01FE012491222356
:1004800031F02196FC0184910E94E901F5CFDF91C2
:10049000CF9108951092E1010E94F001282F30E0E1
:1004A0002A30310579F02D30310561F0E091E1011C
:1004B000F0E0E056FE4F80838091E1018F5F8093F2
:1004C000E101EACF8091E101882331F3E091E1017C
:1004D000F0E0E056FE4F10821092E10181E00895B5
:1004E0001092DD011092DE011092E1010E94F001F4
:1004F0008C32E1F70E94F001E091DD01F0E0EB5F6A
:10050000FE4F80839091DD019F5F9093DD018C32DF
:1005100089F7E091DD01F0E0EC5FFE4F1082109270
:10052000DD010E94F001E091DE01F0E0E15FFE4FAD
:1005300080839091DE019F5F9093DE018C3289F77A
:10054000E091DE01F0E0E25FFE4F10821092DE01EA
:100550000E94F001282F30E0E091E101F0E0E05648
:10056000FE4F80838091E1018F5F8093E1012D3008
:10057000310519F02A30310559F7E091E101F0E039
:10058000E156FE4F10821092E1010E94F00181E0DD
:1005900008951092DF010E94F0018232E1F70E947B
:1005A000F001E091DF01F0E0E75EFE4F8083909183
:1005B000DF019F5F9093DF01823289F7E091DF01D5
:1005C000F0E0E85EFE4F10821092DF010E94F00121
:1005D00090E08A30910511F00D97C1F781E0089500
:1005E0001092C8010E94F0018C32E1F70E94F001E4
:1005F0008C32E1F70E94F001282F30E0E091C80131
:10060000F0E0E050FF4F80838091C8018F5F8093BE
:10061000C8012A30310519F02D30310559F7E09124
:10062000C801F0E0E150FF4F10821092C80181E054
:1006300008951092DD011092DE0183EB90E00E949C
:1006400039020E94F0018C32E1F70E94F001E09142
:10065000DE01F0E0E15FFE4F80839091DE019F5F5D
:100660009093DE018C3289F7E091DE01F0E0E25FE9
:10067000FE4F10821092DE010E94F001E091DD0138
:10068000F0E0EB5FFE4F80839091DD019F5F9093E0
:10069000DD018C3289F7E091DD01F0E0EC5FFE4F87
:1006A00010821092DD0181E00895882361F026E038
:1006B00033E14EEA4A95F1F73A95E1F72A95D1F7F9
:1006C00000C08150F2CF0895CF93DF9381E090E096
:1006D0000E94550388E690E00E94390282E090E093
:1006E0000E94550380EF90E00E94390282E090E082
:1006F0000E94550384EA90E00E943902D0E084E130
:1007000090E00E9455038FED90E00E9439020E9414
:100710004A02882309F14DE150E062EC70E089EC77
:1007200091E00E94890669EC71E080EA91E00E9404
:10073000F701C82F813079F40E94190382E090E01C
:100740000E94550386E890E00E94390282E090E022
:100750000E94550318C0DF5FD93088F282E090E034
:100760000E94550386E890E00E94390282E090E002
:100770000E94550387E790E00E94390282E090E0F2
:100780000E945503C0E08C2FDF91CF910895CF9345
:1007900082E693E00E9439020E944A0243E050E060
:1007A000882319F06CE573E002C06FE573E089EC13
:1007B00091E00E94890669EC71E080EA91E00E9474
:1007C000F701C1E0813009F0C0E081E00E945503EB
:1007D000CC23F1F282E00E9455038FED92E00E945B
:1007E000390281E0CF910895CF9382E00E945503B2
:1007F00086EE92E00E9439020E944A028823A9F301
:100800004DE050E060E073E089EC91E00E948906E1
:1008100069EC71E080EA91E00E94F701C82F4FE097
:1008200050E061EF72E089EC91E00E94890669EC8A
:1008300071E080EA91E00E94F701813039F48EEC9A
:1008400092E00E94390281E00E945503C13069F6AE
:1008500081E0CF9108951F93CF93DF9382E00E94B0
:10086000550386E393E00E9439020E944A028823DE
:1008700009F483C04BE050E06CE473E089EC91E054
:100880000E94890669EC71E080EA91E00E94F7011C
:10089000182F4BE050E061E473E089EC91E00E9496
:1008A000890669EC71E080EA91E00E94F701C1E0FD
:1008B000813019F0113009F0C0E047E050E06FE1FD
:1008C00073E089EC91E00E94890669EC71E080EAAE
:1008D00091E00E94F701813009F4C0E047E050E068
:1008E00064E173E089EC91E00E94890669EC71E0B3
:1008F00080EA91E00E94F701813011F0C1113FC000
:1009000084E792E00E94390287E790E00E94390272
:1009100081E00E94550386E890E00E94390281E060
:100920000E9455038BE592E00E9439028CE30E94FD
:1009300055038CE30E945503459882E693E00E949C
:10094000390281E00E9455038EE492E00E94390250
:1009500081E00E9455038EE492E00E94390281E01A
:100960000E945503459A81E00E94550388E692E073
:100970000E9439028CE30E94550380E001C081E0AF
:10098000DF5F811104C0D43609F068CF01C081E077
:10099000DF91CF911F91089581E00E94550385EB6F
:1009A00091E00E94390281E00E94550385E991E0BF
:1009B0000E94390281E00E94550384E791E00E9481
:1009C000390281E00E94550384E591E00E943902DA
:1009D00081E00E94550381E0089583B7817F8460A0
:1009E00083BF83B7816083BF52985A9AF894E9E62F
:1009F000F0E080818D7F808380818E7F8083E89A84
:100A00007894889583B78E7F83BF08951F920F9245
:100A10000FB60F921124E8980F900FBE0F901F9001
:100A200018953D9A4598459A5098589A0E94D30136
:100A30008AE00E9455038FED92E00E94390282E025
:100A40000E9455030E94C70382E00E94550380E480
:100A500092E00E94390282E00E9455038AE293E00C
:100A60000E94390282E00E94550389E392E00E94CD
:100A7000390283E00E9455030E94F4030E942B0474
:100A80000E94CC0482E00E94550380E892E00E941C
:100A9000390282E00E94550387E291E00E94390208
:100AA00082E00E94550387E790E00E94390281E0CE
:100AB0000E94550386E890E00E94390281E00E947E
:100AC00055038BE592E00E94390282E00E945503B3
:100AD0000E944A02882339F345E050E067E573E05D
:100AE00089EC91E00E94890669EC71E080EA91E06E
:100AF0000E94F7018130D1F50E94C902459882E633
:100B000093E00E94390281E00E9455038EE492E056
:100B10000E94390281E00E9455038EE492E00E9417
:100B2000390281E00E945503459A81E00E945503F5
:100B30008BEB92E00E94390281E00E9455030E94F3
:100B4000CC048FEA92E00E94390282E00E945503B1
:100B500080E992E00E94390283E00E9455030E94DE
:100B60006403813009F479C0C3E049C0459882E646
:100B700093E00E94390281E00E9455038EE492E0E6
:100B80000E94390281E00E9455038EE492E00E94A7
:100B9000390281E00E945503459A81E00E94550385
:100BA0000E94F4030E942B040E94CC0480E892E08F
:100BB0000E94390282E00E9455038FEA92E00E946F
:100BC000390282E00E94550380E992E00E943902D6
:100BD00083E060CF4CE050E06BE171E089EC91E0A4
:100BE0000E94890669EC71E080EA91E00E94F701B9
:100BF00091E08130E9F4C150E9F091111DC085E028
:100C00000E94550387E291E00E94390282E00E942F
:100C1000550385E491E00E94390285E00E94550366
:100C200086E391E00E9439020E944A028111D2CFEC
:100C300090E0E1CF913099F481E00E94550388E083
:100C400091E00E9439020E94700285E00E945503E3
:100C500087E291E00E94390202C0C1E001C0C0E019
:100C600081E00E9455038FEF90E00E9439020E94BC
:100C7000F0028FEA92E00E94390281E00E9455035F
:100C800085EA92E00E94390289E191E00E942D02FA
:100C90008CE892E00E94390281E00E945503C11164
:100CA00004C080EA91E00E942D028FEE91E00E9444
:100CB000390285E091E00E942D0283EE91E00E94CE
:100CC00039028FE091E00E942D0285ED91E00E94B3
:100CD000390280E091E00E942D0286E092E00E94BD
:100CE00039028FE091E00E942D0284E092E00E94A0
:100CF000390285E091E00E942D0281E092E00E949D
:100D0000390281E00E9455038AE10E94E9018AE0EC
:100D1000C8CEFB01DC0102C005900D92415050404D
:080D2000D8F70895F894FFCF05
:100D2800313233343531323334353637383930317E
:100D38003233343536373839303132333435363763
:100D48003839303132333435313233343536373857
:100D5800393031323334353637383930313233344B
:100D6800353637383930313233343536373839302B
:100D78003132333435363738393031323334353629
:100D88003738393031323334353637383930313213
:100D980033343536373839303132333435363738FD
:100DA80039303132333435363738393031323334FB
:100DB80035363738393031323334353637383930DB
:100DC80031323334353637383930313233343536D9
:100DD80037383930313233343536373839303132C3
:080DE800333435363738393059
:00000001FF
