:100000000C94B0020C9462070C94CD020C94CD02B7
:100010000C94CD020C94CD020C94CD020C94CD0224
:100020000C94CD020C94CD020C94CD020C94CD0214
:100030000C94CD020C94CD020C94CD020C94CD0204
:100040000C94CD020C94CD020C94CD020C94CD02F4
:100050000C94CD020C94CD020C94CD020C94CD02E4
:100060000C94CD020C94CD02303030303030303032
:100070003030303030303030303030000041542BB0
:1000800043474E535057523D310D0A0041542B43C4
:10009000474E535057523D300D0A0041542B4347B1
:1000A00050535057523D300D0A0041542B43475096
:1000B000535253543D310D0A0041542B4347505382
:1000C0005253543D300D0A0041542B43475053497D
:1000D0004E463D300D0A002B434750535354415474
:1000E00055533A204C6F636174696F6E203244201F
:1000F000466978002B434750535354415455533A63
:10010000204C6F636174696F6E20334420466978B8
:100110000041542B434750535354415455533F0DC2
:100120000A0041542B434750535057523D310D0A5A
:100130000041542B4342430D0A0041542B43495084
:1001400047534D4C4F433D312C310D0A002B534149
:100150005042523A20312C310041542B53415042ED
:10016000523D302C310D0A0041542B534150425224
:100170003D322C310D0A0041542B53415042523D27
:10018000312C310D0A0041542B53415042523D3322
:100190002C312C22505744222C22696E7465726EC9
:1001A0006574220D0A0041542B53415042523D3395
:1001B0002C312C2255534552222C22696E746572C3
:1001C0006E6574220D0A0041542B53415042523D3A
:1001D000332C312C2241504E222C22696E746572D0
:1001E0006E6574220D0A0041542B53415042523D1A
:1001F000332C312C22434F4E54595045222C224748
:10020000505253220D0A000A424154544552595B40
:100210006D565D3D00204C415449545544453D00C8
:10022000204C4F4E475449545544453D000D0A005B
:100230002C000D0A20687474703A2F2F6D61707352
:100240002E676F6F676C652E636F6D2F6D617073B6
:100250003F713D0041542B434E45544C494748544F
:100260003D300D0A00415426570D0A0041542B49D8
:1002700050523D393630300D0A0041542B43534320
:100280004C4B3D300D0A0041542B4353434C4B3DE6
:10029000310D0A0041542B4346554E3D310D0A00A5
:1002A00041542B4346554E3D340D0A0041542B43D7
:1002B0004C49503D310D0A00220A0D00475541526C
:1002C00044204D4F44452053544F50504544004125
:1002D0004C4552542C20504F534954494F4E2043C3
:1002E00048414E47454420544F203A20200047556E
:1002F000415244204D4F44452041435449564154B6
:1003000045442E2E20504C454153452057414954D9
:100310002035204D494E55544553204245464F52B5
:1003200045204E45585420434F4D4D414E440A0000
:100330004143544956415445442043414C4C532079
:1003400046524F4D20004D554C5449504C45204D80
:100350004541535552454D454E545320494E20502A
:10036000524F47524553532E2E20504C4541534532
:100370002057414954203235204D494E555445535C
:10038000204245464F5245204E45585420434F4D3C
:100390004D414E440A0053494E474C45204D45417E
:1003A000535552454D454E5420494E2050524F47CB
:1003B000524553532E2E2E20504C45415345205725
:1003C00041495420372D38204D494E55544553202E
:1003D0004245464F5245204E45585420434F4D4DBF
:1003E000414E440A00434F4D4D414E44204143434A
:1003F00045505445440A004341522042415454451B
:10040000525920495320444953434F4E4E4543547B
:1004100045440A0043415220424154544552592018
:100420004953205745414B0A004341522042415411
:1004300054455259204953204F5645524C4F414440
:1004400045440A00436172204261747465727920E8
:10045000766F6C746167652072656164696E672090
:100460005B6D565D203D20004143430053544F5087
:1004700000475541524400414354495641544500B8
:1004800053494E474C45004D554C544900434D543B
:100490003A0041542B434E4D493D312C322C302CE7
:1004A000302C300D0A0041542B434D4744413D222E
:1004B00044454C20414C4C220D0A0041542B434DE5
:1004C00047533D220041542B434D47463D310D0AD1
:1004D000004154480A0D0041542B43464752493DC0
:1004E000310A0D0041542B4350494E3D22313131E8
:1004F00031220A0D00415445300A0D0041542B436E
:1005000050494E3F0A0D002B4350494E3A20534963
:100510004D2050494E002B4350494E3A2052454100
:1005200044590041542B435245473D300A0D004188
:10053000542B435245473F0A0D002B435245473A3F
:1005400020302C35002B435245473A20302C3100C7
:1005500052494E47004F4B0041540041540A0D0090
:1005600011241FBECFEFD8E0DEBFCDBF13E0A0E067
:10057000B1E0E8E9F0E202C005900D92A231B107C6
:10058000D9F713E0A2E1B3E001C01D92A334B10793
:10059000E1F70E946D070C944A100C94000082E071
:1005A0008093C0001092C5008CE08093C400E1EC01
:1005B000F0E0808188608083808180618083E2ECCC
:1005C000F0E080818660808308959091C00095FF5F
:1005D000FCCF8093C60008958091C00087FFFCCFB8
:1005E0008091C6000895CF93DF93AC01DC0190E0C9
:1005F00020E03D91FB01E90FF11D8081381320C0FF
:1006000090E0892F820FFA01E80FF11D3081C92F88
:10061000D0E031110BC0FB0101900020E9F73197C8
:10062000E61BF70BCE17DF0759F40FC0FB01EC0FE9
:10063000FD1F8081882379F33813EDCF9F5FE1CFD1
:100640002F5F2A3AB1F680E001C081E0DF91CF91BF
:100650000895CF93DF93EC018991882319F00E94CC
:10066000E502FACFDF91CF910895CF93DF93EC01AC
:10067000CE01FE012491222331F02196FC018491C8
:100680000E94E502F5CFDF91CF910895CF931092AC
:100690004203C6E90E94EC02282F30E02A303105DF
:1006A00079F02D30310561F0E0914203F0E0E85936
:1006B000FD4F8083809142038F5F809342030DC082
:1006C00080914203882349F0E0914203F0E0E85929
:1006D000FD4F10821092420302C0C150D9F681E052
:1006E000CF910895CF9310923F03C6E90E94EC0288
:1006F000282F30E02A30310579F02D30310561F0B6
:10070000E0913F03F0E0EA56FE4F808380913F0383
:100710008F5F80933F030DC080913F03882349F092
:10072000E0913F03F0E0EA56FE4F108210923F0343
:1007300002C0C150D9F681E0CF910895CF931092B5
:100740003D0310923E0310924203C0E00E94EC026F
:10075000CF5F8C3219F0C431C9F75EC0C43109F4DF
:100760005BC00E94EC02E0913D03F0E0E259FE4FD5
:10077000808390913D039F5F90933D03CF5F8C32C8
:1007800049F4E0913D03F0E0E359FE4F10821092EE
:100790003D0305C0C63429F7F4CFC63480F40E9467
:1007A000EC02E0913E03F0E0EE57FE4F8083909123
:1007B0003E039F5F90933E03CF5F8C3271F7E091D1
:1007C0003E03F0E0EF57FE4F108210923E0305C04B
:1007D0002A303105A9F0C63498F40E94EC02282F83
:1007E00030E0E0914203F0E0E859FD4F80838091D2
:1007F00042038F5F80934203CF5F2D30310541F775
:10080000E0914203F0E0E959FD4F1082109242035B
:100810000E94EC0281E001C080E0CF910895CF9367
:1008200010924103C0E00E94EC02CF5F8A3311F0C6
:10083000C639C9F70E94EC02CF5F823211F0C63987
:10084000C8F30E94EC02E0914103F0E0EC5AFD4F46
:100850008083909141039F5F90934103CF5F8232E9
:1008600049F4E0914103F0E0ED5AFD4F10821092FF
:10087000410307C0C63928F3F4CF0D9749F0C639B4
:1008800038F40E94EC0290E0CF5F8A309105A9F71E
:1008900081E0CF910895109241031092420380E0CD
:1008A000E0914203F0E0E859FD4F2081909142032E
:1008B0009F5F909342038F5F2A3311F0863981F74F
:1008C000E0914203F0E0E859FD4F2081909142030E
:1008D0009F5F909342038F5F223211F0863980F33D
:1008E000E0914203F0E0E859FD4F208190914203EE
:1008F0009F5F90934203E0914103F0E0EC5AFD4F7B
:100900002083909141039F5F909341038F5F223238
:1009100011F0863928F3E0914103F0E0ED5AFD4FE4
:100920001082109241031092420381E00895CF9308
:1009300010921303C0E00E94EC02CF5F8C3219F0DA
:10094000C634C9F72BC0C63449F10E94EC02CF5F10
:100950008C3211F0C634C9F70E94EC02282F30E027
:10096000E0911303F0E0E050FF4F80838091130388
:100970008F5F80931303CF5F2A30310529F02D302C
:10098000310511F0C63440F3E0911303F0E0E1507B
:10099000FF4F10821092130381E001C080E0CF91DD
:1009A0000895CF9310923D0310923E0310923C03A2
:1009B00088EC90E00E943503C0E00E94EC02CF5F1B
:1009C0008A3319F0C431C9F775C0C43109F472C053
:1009D0000E94EC02CF5F8C3211F0C639C9F70E9439
:1009E000EC02E0913E03F0E0EE57FE4F80839091E1
:1009F0003E039F5F90933E03CF5F8C3249F4E091BA
:100A00003E03F0E0EF57FE4F108210923E0305C008
:100A1000C63928F3F4CFC63980F40E94EC02E09185
:100A20003D03F0E0E259FE4F808390913D039F5FCC
:100A300090933D03CF5F8C3271F7E0913D03F0E07E
:100A4000E359FE4F108210923D0302C0C63940F4B4
:100A50000E94EC02CF5F8C32C9F702C0C63940F465
:100A60000E94EC02CF5F8C32C9F702C0C63940F455
:100A70000E94EC02CF5F8C32C9F702C0C63980F405
:100A80000E94EC02E0913C03F0E0E65FFE4F8083C1
:100A900090913C039F5F90933C03CF5F8C3271F742
:100AA000E0913C03F0E0E75FFE4F108210923C03C0
:100AB00081E001C080E0CF910895882361F026E0B5
:100AC00033E14EEA4A95F1F73A95E1F72A95D1F7E5
:100AD00000C08150F2CF0895CF93DF93809112032D
:100AE000813021F0809112038530C9F481E090E0DB
:100AF0000E945D058DE790E00E94350382E090E062
:100B00000E945D0582E291E00E94350382E090E060
:100B10000E945D0589EB90E00E94350304C081E0EE
:100B200090E00E945D05C0E0809112038F3F21F0AC
:100B30008FE090E00E945D0581E191E00E94350325
:100B40000E944603882309F446C04DE150E064EF5B
:100B500070E084E193E00E94C20F64E173E088E6F4
:100B600092E00E94F302D82FC33119F0D13091F4F2
:100B700017C04DE150E067ED70E084E193E00E9422
:100B8000C20F64E173E088E692E00E94F3028130D4
:100B900069F706C0809112038F3FC1F1CF5F1BC080
:100BA0000E94D10482E090E00E945D05C091120392
:100BB000C13071F58BE990E00E94350381E090E04F
:100BC0000E945D058CE890E00E94350381E090E092
:100BD0000E945D051EC0C43108F4A6CF82E090E0FB
:100BE0000E945D0580911203813081F48BE990E0D1
:100BF0000E94350381E090E00E945D058CE890E062
:100C00000E94350381E090E00E945D05C0E001C0D4
:100C1000C1E08C2FDF91CF91089520E12A95F1F763
:100C200000C00895CF938BE595E00E9435030E94A4
:100C3000460343E050E0882319F065E575E002C003
:100C400068E575E084E193E00E94C20F64E173E01F
:100C500088E692E00E94F302C1E0813009F0C0E032
:100C600081E00E945D05CC23F1F281E00E945D05E8
:100C700085EF94E00E94350381E00E945D0581E0EC
:100C8000CF910895CF9382E00E945D058CEF94E0B0
:100C90000E9435030E9446038823A9F34DE050E0EB
:100CA00066E175E084E193E00E94C20F64E173E0C5
:100CB00088E692E00E94F302C82F4FE050E067E020
:100CC00075E084E193E00E94C20F64E173E088E67E
:100CD00092E00E94F302813049F40E945D0584EEA7
:100CE00094E00E94350381E00E945D05C13059F611
:100CF00081E0CF910895CF93DF9381E00E945D055D
:100D00008FE295E00E9435030E944603811102C0E4
:100D1000C8E122C04BE050E065E475E084E193E077
:100D20000E94C20F64E173E088E692E00E94F30241
:100D3000813009F484C04BE050E06AE375E084E15F
:100D400093E00E94C20F64E173E088E692E00E94A3
:100D5000F3028130E9F673C081E00E945D0584E909
:100D600092E00E9435038CE30E945D058FE295E0DE
:100D70000E9435030E944603882309F462C04BE0B9
:100D800050E065E475E084E193E00E94C20F64E105
:100D900073E088E692E00E94F302D82F4BE050E027
:100DA0006AE375E084E193E00E94C20F64E173E0BE
:100DB00088E692E00E94F302813009F440C081E0AD
:100DC000D13009F442C00E945D0580EA92E00E94A1
:100DD000350381E00E945D058CE890E00E943503B8
:100DE00081E00E945D058BE990E00E94350381E07F
:100DF0000E945D0587E892E00E943503DEE18CE306
:100E00000E945D05D150D9F745988BE595E00E9489
:100E1000350381E00E945D058AE792E00E94350378
:100E200081E00E945D05459A81E00E945D0584E9AC
:100E300092E00E9435038CE30E945D0502C081E0D0
:100E400004C0C15009F088CF80E0DF91CF910895B0
:100E500081E00E945D0587EE91E00E94350381E00C
:100E60000E945D0587EC91E00E94350381E00E94BD
:100E70005D0586EA91E00E94350381E00E945D05F0
:100E800086E891E00E94350381E00E945D0581E0E3
:100E9000089583B7817F846083BF83B7816083BFF8
:100EA00052985A9AF894E9E6F0E080818D7F808329
:100EB00080818E7F8083E89A7894889583B78E7F2F
:100EC00083BF08951F920F920FB60F921124E898D6
:100ED0000F900FBE0F901F9018951092120352980A
:100EE0005A9A3D9A459A80917C00806480937C0058
:100EF00080917A00866880937A0045E150E068E648
:100F000070E082E391E00E94C20F45E150E068E6A4
:100F100070E08AE591E00E94C20F45E150E068E68A
:100F200070E08EE191E00E94C20F45E150E068E67A
:100F300070E086E491E00E94C20F0E94CF028AE036
:100F40000E945D0585EF94E00E94350381E00E94D8
:100F50005D050E94120681E00E945D058CE692E02C
:100F60000E94350381E00E945D0584E992E00E94C1
:100F7000350381E00E945D0583E295E00E94350320
:100F800081E00E945D0585E692E00E94350383E0E2
:100F90000E945D050E94420681E00E945D0585EC8D
:100FA00094E00E94350381E00E945D0586EA94E0AA
:100FB0000E9435038DE20E945D050E947B061FEFB3
:100FC00005E01092120381E00E945D058CEA92E038
:100FD0000E94350381E00E945D0585EC94E00E944B
:100FE000350381E00E945D0582E994E00E943503AB
:100FF00081E00E945D058CE890E00E94350381E06D
:101000000E945D058BE990E00E94350381E00E941B
:101010005D0587E892E00E94350382E00E945D054D
:1010200060E8C62E68EAD62E62E1E62EFF24F3942D
:101030008091C00087FD2AC00E940D0681E0C81A79
:10104000D108E108F108A1F745988BE595E00E94E9
:10105000350381E00E945D058AE792E00E94350336
:1010600081E00E945D05459A81E00E945D050E9435
:101070007B0681E00E945D0587E892E00E943503CF
:1010800081E00E945D0510921203CACF0E944603C0
:10109000882309F4D4C245E050E06DE874E084E1AF
:1010A00093E00E94C20F64E173E088E692E00E9440
:1010B000F302813009F039C20E9472030E944B048E
:1010C0001092120346E050E067E874E084E193E098
:1010D0000E94C20F86E991E00E94CB0F64E173E0A9
:1010E0000E94F302813009F045C045988BE595E0F8
:1010F0000E94350381E00E945D058AE792E00E942C
:10110000350381E00E945D05459A81E00E945D05FE
:1011100085EC94E00E94350381E00E945D058BEB35
:1011200094E00E94350384E592E00E94290388EB55
:1011300092E00E94350381E00E945D0586E493E021
:101140000E9435038AE10E94E5028AE00E945D0563
:1011500085EC94E00E94350381E00E945D0586EAFB
:1011600094E00E94350382E00E945D050093120323
:10117000C1E001C0C0E047E050E060E874E084E115
:1011800093E00E94C20F86E991E00E94CB0F64E1D8
:1011900073E00E94F302D82F813009F044C04598D3
:1011A0008BE595E00E94350381E00E945D058AE7AA
:1011B00092E00E94350381E00E945D05459A81E03E
:1011C0000E945D0585EC94E00E94350381E00E9459
:1011D0005D058BEB94E00E94350384E592E00E946C
:1011E000290388EB92E00E94350381E00E945D05AF
:1011F00086E993E00E9435038AE10E94E5028AE0D5
:101200000E945D0585EC94E00E94350381E00E9418
:101210005D0586EA94E00E94350382E00E945D0548
:10122000D0931203C1E049E050E067E774E084E145
:1012300093E00E94C20F86E991E00E94CB0F64E127
:1012400073E00E94F302813009F052C045988BE5AB
:1012500095E00E94350381E00E945D058AE792E0F7
:101260000E94350381E00E945D05459A81E00E945D
:101270005D0544E150E060E070E084E592E00E94AA
:101280000E1085EC94E00E94350381E00E945D051C
:101290008BEB94E00E94350384E592E00E942903E1
:1012A00088EB92E00E94350381E00E945D0580E3B7
:1012B00093E00E94350384E592E00E9429038AE1CD
:1012C0000E94E5028AE00E945D0585EC94E00E94A0
:1012D000350381E00E945D0586EA94E00E943503B3
:1012E00082E00E945D0510921203D1E0C0E001C0CF
:1012F000DC2F46E050E061E774E084E193E00E9477
:10130000C20F86E991E00E94CB0F64E173E00E9476
:10131000F302813009F05AC045988BE595E00E94B0
:10132000350381E00E945D058AE792E00E94350363
:1013300081E00E945D05459A81E00E945D0585EC93
:1013400094E00E94350381E00E945D058BEB94E000
:101350000E94350384E592E00E94290388EB92E025
:101360000E94350381E00E945D058EEE92E00E94AE
:1013700035038AE10E94E5028AE00E945D0585EC62
:1013800094E00E94350381E00E945D0586EA94E0C6
:101390000E94350382E00E945D05109312038DE7E1
:1013A00090E00E94350382E00E945D0582E291E0B8
:1013B0000E94350382E00E945D0589EB90E00E9467
:1013C000350381E00E945D05D1E0C1E044E050E0DA
:1013D00068E674E084E193E00E94C20F86E991E040
:1013E0000E94CB0F64E173E00E94F302813009F0A8
:1013F0009EC045988BE595E00E94350381E00E94F0
:101400005D058AE792E00E94350381E00E945D0558
:10141000459A81E00E945D0598E020E030E08091EF
:101420007C00807F816080937C0080917A00806462
:1014300080937A0080917A0086FDFCCF40917800FD
:1014400050917900240F351F915049F743E03695AC
:1014500027954A95E1F7A4EEBCE00E94590F6B0175
:101460007C015AE0F694E794D794C7945A95D1F743
:10147000E6014AE050E060E071E0C6010E94D50F4D
:1014800085EC94E00E94350381E00E945D058BEBC2
:1014900094E00E94350384E592E00E94290388EBE2
:1014A00092E00E94350381E00E945D059FECC91621
:1014B00093E0D906E104F10420F089E294E00E946F
:1014C000350382E3C81A81E0D80A94E5C91691E091
:1014D000D90618F484E194E005C0C233D14020F469
:1014E00087EF93E00E94350384E494E00E94350383
:1014F00080E091E00E9429038AE10E94E5028AE0EF
:101500000E945D0585EC94E00E94350381E00E9415
:101510005D0586EA94E00E94350382E00E945D0545
:1015200010921203D1E0C0E002C0D0E0C1E045E07B
:1015300050E060E575E084E193E00E94C20F64E151
:1015400073E088E692E00E94F302813009F040C027
:1015500045980E940F048BE595E00E94350381E0D9
:101560000E945D058AE792E00E94350381E00E94B7
:101570005D05459A81E00E945D0581ED94E00E9441
:10158000350381E00E945D0585EC94E00E943503FF
:1015900081E00E945D0586EA94E00E94350382E0C6
:1015A0000E945D0544E150E060E070E080E492E07C
:1015B0000E94FE0F64E572E080E492E00E94F30274
:1015C000813019F4809312033AC01092120302C0C2
:1015D000D11132C045988BE595E00E94350381E03A
:1015E0000E945D058AE792E00E94350381E00E9437
:1015F0005D05459A81E00E945D050E9442060E94B9
:101600007B0681E00E945D0585EC94E00E94350335
:1016100081E00E945D0586EA94E00E94350382E045
:101620000E945D0589E591E00E94350385E00E94F6
:101630005D0510921203C5CCCC2309F4C2CC9AE00C
:10164000892E912CA12CB12C0E946C05813009F0BF
:1016500003C2CEE6D1E009900020E9F72197CE56EB
:10166000D140DD27FE01E459FE4FC080D12C90E32C
:10167000C91AD108EE24D7FCE094FE2CFE01E559EE
:10168000FE4FA081B0E0D097FE01E659FE4F4081A9
:1016900050E0405351092AE030E00E94680F2B01CE
:1016A0003C0124E630E0DA010E94680F460E571E26
:1016B000681E791EC40CD51CE61CF71CFE01E759F8
:1016C000FE4FA081B0E0D09728EE33E00E94680F73
:1016D000C60ED71EE81EF91EFE01E859FE4FA08176
:1016E000B0E0D09720E137E20E94680FC60ED71E07
:1016F000E81EF91EFE01EA59FE4FA081B0E0D09726
:1017000020EA36E841E050E00E946F0FC60ED71E77
:10171000E81EF91EFE01EB59FE4FA081B0E0D09704
:1017200020E432E44FE050E00E946F0F6C0D7D1D0D
:101730008E1D9F1D2CE330E040E050E00E94770FAB
:1017400029013A01FE01EC59FE4FA081B0E0D0978B
:1017500020E836E948E950E00E946F0F6B017C01F8
:10176000CB30D10540F1FE01ED59FE4F80818D3225
:1017700069F0A081B0E0D09720E031EE45EF55E070
:101780000E946F0FC60ED71EE81EF91ECC30D10581
:1017900090F0CE59DE4F88818D3269F0A881B0E09B
:1017A000D09720E03AEC4AE95BE30E946F0FC60E47
:1017B000D71EE81EF91EC701B601640D751D861DF2
:1017C000971D20916E012D3209F020E320934601F0
:1017D00020E03AEC4AE95BE30E94770F205D20931A
:1017E000470120E031EE45EF55E00E94770F205D84
:1017F0002093480120E836E948E950E00E94770F3D
:10180000205D209349012EE220934A0120E432E436
:101810004FE050E00E94770F20EA36E841E050E0C8
:101820000E94770F20E137E240E050E00E94770FFE
:10183000205D20934B0128EE33E040E050E00E9411
:10184000770F205D20934C0124E630E040E050E02B
:101850000E94770F205D20934D01A50194010E9405
:10186000770F205D20934E01605D60934F011092D1
:101870005001C2E8D1E009900020E9F72197C25851
:10188000D140DD27FE01E058FE4FC080D12C80E31F
:10189000C81AD108EE24D7FCE094FE2CFE01E158D2
:1018A000FE4FA081B0E0D097FE01E258FE4F40818C
:1018B00050E0405351092AE030E00E94680F2B01AC
:1018C0003C0124E630E0DA010E94680F460E571E04
:1018D000681E791EC40CD51CE61CF71CFE01E358DB
:1018E000FE4FA081B0E0D09728EE33E00E94680F51
:1018F000C60ED71EE81EF91EFE01E458FE4FA08159
:10190000B0E0D09720E137E20E94680FC60ED71EE4
:10191000E81EF91EFE01E658FE4FA081B0E0D09708
:1019200020EA36E841E050E00E946F0FC60ED71E55
:10193000E81EF91EFE01E758FE4FA081B0E0D097E7
:1019400020E432E44FE050E00E946F0F6C0D7D1DEB
:101950008E1D9F1D2CE330E040E050E00E94770F89
:1019600069017A01FE01E858FE4FA081B0E0D097EE
:1019700020E836E948E950E00E946F0F2B013C0156
:10198000CB30D10590F0C958DE4F88818D3269F097
:10199000A881B0E0D09720E031EE45EF55E00E94FD
:1019A0006F0F460E571E681E791EC301B2016C0DE3
:1019B0007D1D8E1D9F1D209182012D3209F020E397
:1019C00020935A0120E031EE45EF55E00E94770F59
:1019D000205D20935B0120E836E948E950E00E9451
:1019E000770F205D20935C012EE220935D0120E4BF
:1019F00032E44FE050E00E94770F20EA36E841E001
:101A000050E00E94770F20E137E240E050E00E9472
:101A1000770F205D20935E0128EE33E040E050E038
:101A20000E94770F205D20935F0124E630E040E0C4
:101A300050E00E94770F205D20936001A501940182
:101A40000E94770F205D20936101605D60936201C9
:101A500010926301C1E056C0809112038F3F09F4D8
:101A6000C8C0C3E081E00E945D0589E591E00E9465
:101A7000350384E00E945D050E94280787E791E016
:101A80000E9435038AE00E945D0588E691E00E948D
:101A900035030E944603882309F409C24CE050E054
:101AA0006DE471E084E193E00E94C20F64E173E0B1
:101AB00088E692E00E94F30291E0813009F0F7C1DC
:101AC000C15009F493C0992369F281E00E945D0539
:101AD0008AE391E00E9435030E949E03C82F811182
:101AE00003C087E30E945D0585E00E945D0589E5EE
:101AF00091E00E94350385E00E945D05C13009F048
:101B000078C0C0E0809112038F3F09F473C081E078
:101B10000E945D0581E391E00E9435030E949704D5
:101B200081E00E945D0585EC94E00E94350381E030
:101B30000E945D058BEB94E00E94350384E592E002
:101B40000E94290388EB92E00E94350381E00E9405
:101B50005D05C11104C088E692E00E94290380E27D
:101B600092E00E943503C11103C08EE691E002C0ED
:101B700086E491E00E94290385E192E00E9435030A
:101B8000C11103C082E891E002C08AE591E00E94A1
:101B9000290387E092E00E94350380E091E00E94F3
:101BA000290382E392E00E943503C11103C082E859
:101BB00091E002C08AE591E00E94290380E392E06F
:101BC0000E943503C11103C08EE691E002C086E495
:101BD00091E00E9429038DE292E00E94350381E0AA
:101BE0000E945D058AE10E94E50204C0913009F47B
:101BF0006CCFC0E086E391E00E94A40F8C0183E2E9
:101C000091E00E94A40FC13009F08DC02091120311
:101C10002F3F09F088C0012B09F485C0892B09F4F6
:101C200082C086E391E00E94A40FEC018EE591E072
:101C30000E94A40F6C0183E291E00E94A40F7C013A
:101C40008BE491E00E94A40FE81AF90AF7FE03C0A2
:101C5000F194E194F1089BEFE916F1045CF4CC19DE
:101C6000DD09D7FF03C0D195C195D109CB3FD1057F
:101C70000CF459C081E00E945D0585EC94E00E945F
:101C8000350381E00E945D058BEB94E00E943503F3
:101C900084E592E00E94290388EB92E00E943503DC
:101CA00081E00E945D058FEC92E00E94350382E3A3
:101CB00092E00E9435038AE591E00E94290380E3C7
:101CC00092E00E94350386E491E00E9429038DE2B0
:101CD00092E00E94350381E00E945D058AE10E9446
:101CE000E5028AE00E945D0581E0809312038BE9A2
:101CF00090E00E94350381E00E945D058CE890E051
:101D00000E94350381E00E945D0585EC94E00E940D
:101D1000350381E00E945D0586EA94E00E94350368
:101D200082E00E945D058AE0EAE5F1E0A2E3B1E02D
:101D300001900D928A95E1F78BE0E6E4F1E0AEE1E7
:101D4000B1E001900D928A95E1F7809112038F3FE7
:101D500029F0809112038150809312038091120325
:101D6000882369F0809112038F3F49F08CE30E9431
:101D70005D058CE30E945D058CE30E945D0580910A
:101D80001203811103C08AE00E945D058091120355
:101D90008F3F09F087C081E00E945D058091C000FF
:101DA00087FF03C08091C600F9CFC12C85E3D82EF0
:101DB0008CE0E82EF12C0E940D068091C00091E08D
:101DC000C91AD108E108F10809F46CC087FFF3CF04
:101DD0000E944603882309F465C045E050E06DE8A1
:101DE00074E084E193E00E94C20F64E173E088E64E
:101DF00092E00E94F302813009F054C00E94720305
:101E00000E944B0445E050E06CE674E084E193E00E
:101E10000E94C20F86E991E00E94CB0F64E173E05B
:101E20000E94F3028130F1F585EC94E00E943503C5
:101E300081E00E945D058BEB94E00E94350384E510
:101E400092E00E94290388EB92E00E94350381E032
:101E50000E945D058CEB92E00E9435038AE10E94AE
:101E6000E5028AE00E945D0585EC94E00E9435035E
:101E700081E00E945D0586EA94E00E94350382E0DD
:101E80000E945D058BE990E00E94350381E00E948D
:101E90005D058CE890E00E94350381E00E945D05BD
:101EA00010921203809112038111CECB88C890E06A
:101EB00007CEA29FB001B39FC001A39F700D811DEB
:101EC0001124911DB29F700D811D1124911D089543
:101ED0000E94590FB7FF0895821B930B0895B7FF17
:101EE0000C94990F0E94990F821B930B0895A1E205
:101EF0001A2EAA1BBB1BFD010DC0AA1FBB1FEE1F84
:101F0000FF1FA217B307E407F50720F0A21BB30BCE
:101F1000E40BF50B661F771F881F991F1A9469F74A
:101F200060957095809590959B01AC01BD01CF01A6
:101F300008950E94590FA59F900DB49F900DA49FE6
:101F4000800D911D11240895FC0188279927E8949C
:101F500021912032E9F3293010F02E30C8F32B32D2
:101F600041F02D3239F4689404C00E94F60F820FBC
:101F7000911D219120532A30C0F31EF49095819534
:101F80009F4F0895FB01DC0102C005900D92415066
:101F90005040D8F70895DC016C9161566A3108F021
:101FA000605E6F5B6D93C1F70895FB019F01E8943C
:101FB0004230C4F04532B4F44A3029F497FB1EF4A1
:101FC000909581959F4F642F77270E943610805DF2
:101FD0008A330CF0895D8193CB010097A1F716F449
:101FE0005DE251931082C9010C9426107AE0979F0C
:101FF000902D879F802D910D11240895DC01CB0138
:10200000FC01F999FECF06C0F2BDE1BDF89A319608
:1020100000B40D9241505040B8F70895DC01CB0157
:1020200003C02D910E94191041505040D0F70895DF
:10203000262FF999FECF1FBA92BD81BD20BD0FB6E4
:10204000F894FA9AF99A0FBE01960895DC01FC0102
:10205000672F71917723E1F7329704C07C916D93DC
:1020600070836291AE17BF07C8F30895AA1BBB1B0C
:1020700051E107C0AA1FBB1FA617B70710F0A61B88
:10208000B70B881F991F5A95A9F780959095BC01A9
:08209000CD010895F894FFCF83
:102098003030303030303030303030303030303038
:1020A8003030303030303030303030303030303028
:1020B8003030303030303030303030303030303018
:1020C8003030303030303030303030303030303008
:1020D80030303030303030303030303030303030F8
:1020E80030303030303030303030303030303030E8
:1020F80030303030303030303030303030303030D8
:1021080030303030303030303030303030303030C7
:1021180030303030303030303030303030303030B7
:10212800303030303030313233343536373839307A
:102138003132333435363738393031323334353655
:10214800373839303132333435363738393031323F
:102158003334353637383930313233343536373829
:102168003930313233343536373839303132333427
:102178003536373839303132333435363738393007
:102188003132333435363738393031323334353605
:1021980037383930313233343536373839303132EF
:1021A80033343536373839303132333435363738D9
:1021B80039303132333435363738393031323334D7
:1021C80035363738393031323334353637383930B7
:1021D80031323334353637383930313233343536B5
:1021E800373839303132333435363738393031329F
:1021F8003334353637383930313233343536373889
:102208003930313233343536373839303132333486
:102218003536373839303132333435363738393066
:102228003132333435363738393031323334353664
:10223800373839303132333435363738393031324E
:102248003334353637383930313233343536373838
:102258003930313233343536373839303132333436
:102268003536373839303132333435363738393016
:102278003132333435363738393031323334353614
:1022880037383930313233343536373839303132FE
:1022980033343536373839303132333435363738E8
:0222A8003930CB
:00000001FF
