:100000000C9476020C941E070C9493020C949302A9
:100010000C9493020C9493020C9493020C9493020C
:100020000C9493020C9493020C9493020C949302FC
:100030000C9493020C9493020C9493020C949302EC
:100040000C9493020C9493020C9493020C949302DC
:100050000C9493020C9493020C9493020C949302CC
:100060000C9493020C9493023030303030303030A6
:100070003030303030303030303030000041542BB0
:1000800043474E535057523D310D0A0041542B43C4
:10009000474E535057523D300D0A0041542B4347B1
:1000A00050535057523D300D0A0041542B43475096
:1000B000535253543D310D0A0041542B4347505382
:1000C0005253543D300D0A0041542B43475053497D
:1000D0004E463D300D0A002B434750535354415474
:1000E00055533A204C6F636174696F6E203244201F
:1000F000466978002B434750535354415455533A63
:10010000204C6F636174696F6E20334420466978B8
:100110000041542B434750535354415455533F0DC2
:100120000A0041542B434750535057523D310D0A5A
:100130000041542B4342430D0A0041542B43495084
:1001400047534D4C4F433D312C310D0A002B534149
:100150005042523A20312C310041542B53415042ED
:10016000523D302C310D0A0041542B534150425224
:100170003D322C310D0A0041542B53415042523D27
:10018000312C310D0A0041542B53415042523D3322
:100190002C312C22505744222C22696E7465726EC9
:1001A0006574220D0A0041542B53415042523D3395
:1001B0002C312C2255534552222C22696E746572C3
:1001C0006E6574220D0A0041542B53415042523D3A
:1001D000332C312C2241504E222C22696E746572D0
:1001E0006E6574220D0A0041542B53415042523D1A
:1001F000332C312C22434F4E54595045222C224748
:10020000505253220D0A000A424154544552595B40
:100210006D565D3D00204C415449545544453D00C8
:10022000204C4F4E475449545544453D000D0A005B
:100230002C000D0A20687474703A2F2F6D61707352
:100240002E676F6F676C652E636F6D2F6D617073B6
:100250003F713D0041542B434E45544C494748544F
:100260003D300D0A00415426570D0A0041542B49D8
:1002700050523D393630300D0A0041542B43534320
:100280004C4B3D300D0A0041542B4353434C4B3DE6
:10029000310D0A0041542B4346554E3D310D0A00A5
:1002A00041542B4346554E3D340D0A0041542B43D7
:1002B0004C49503D310D0A00220A0D00475541526C
:1002C00044204D4F44452053544F50504544004125
:1002D0004C4552542C20504F534954494F4E2043C3
:1002E00048414E47454420544F203A20200047556E
:1002F000415244204D4F44452041435449564154B6
:1003000045442E2E20504C454153452057414954D9
:100310002035204D494E55544553204245464F52B5
:1003200045204E45585420434F4D4D414E440A0000
:100330004143544956415445442043414C4C532079
:1003400046524F4D20004D554C5449504C45204D80
:100350004541535552454D454E545320494E20502A
:10036000524F47524553532E2E20504C4541534532
:100370002057414954203235204D494E555445535C
:10038000204245464F5245204E45585420434F4D3C
:100390004D414E440A0053494E474C45204D45417E
:1003A000535552454D454E5420494E2050524F47CB
:1003B000524553532E2E2E20504C45415345205725
:1003C00041495420372D38204D494E55544553202E
:1003D0004245464F5245204E45585420434F4D4DBF
:1003E000414E440A00434F4D4D414E44204143434A
:1003F00045505445440A0053544F5000475541520C
:10040000440041435449564154450053494E474CDA
:1004100045004D554C544900434D543A0041542B2E
:10042000434E4D493D312C322C302C302C300D0AAE
:100430000041542B434D4744413D2244454C20410B
:100440004C4C220D0A0041542B434D47533D220092
:1004500041542B434D47463D310D0A004154480A53
:100460000D0041542B43464752493D310A0D00418E
:10047000542B4350494E3D2231313131220A0D0077
:10048000415445300A0D0041542B4350494E3F0A18
:100490000D002B4350494E3A2053494D2050494EB0
:1004A000002B4350494E3A20524541445900415493
:1004B0002B435245473D300A0D0041542B435245D2
:1004C000473F0A0D002B435245473A20302C350058
:1004D0002B435245473A20302C310052494E4700B9
:1004E0004F4B0041540041540A0D000011241FBE1F
:1004F000CFEFD8E0DEBFCDBF13E0A0E0B1E0E8E190
:10050000FDE102C005900D92A231B107D9F713E0C9
:10051000A2E1B3E001C01D92A334B107E1F70E944C
:1005200029070C948A0E0C94000082E08093C0008E
:100530001092C5008CE08093C400E1ECF0E0808173
:1005400088608083808180618083E2ECF0E080813C
:100550008660808308959091C00095FFFCCF8093C2
:10056000C60008958091C00087FFFCCF8091C6002F
:100570000895EF92FF920F931F93CF93DF939C0107
:10058000182FFC0190E08E2F811B841748F5A19154
:10059000EB01C90FD11D5881A513F5CF90E0592F5C
:1005A000580FD901A50FB11D0C91C92FD0E0011131
:1005B0000CC0DB010D900020E9F71197A61BB70BCB
:1005C000CA17DB0701F781E00CC07B01EC0EFD1EB2
:1005D000D7015C91552369F30513EBCF9F5FDFCF04
:1005E00080E0DF91CF911F910F91FF90EF900895E0
:1005F000CF93DF93EC018991882319F00E94AB021D
:10060000FACFDF91CF910895CF93DF93EC01CE0124
:10061000FE012491222331F02196FC0184910E9455
:10062000AB02F5CFDF91CF910895CF9310924203A3
:10063000C6E90E94B202282F30E02A30310579F055
:100640002D30310561F0E0914203F0E0E859FD4FB3
:100650008083809142038F5F809342030DC080911D
:100660004203882349F0E0914203F0E0E859FD4F4E
:1006700010821092420302C0C150D9F681E0CF919E
:100680000895CF9310923F03C6E90E94B202282F2B
:1006900030E02A30310579F02D30310561F0E091FC
:1006A0003F03F0E0EA56FE4F808380913F038F5F67
:1006B00080933F030DC080913F03882349F0E09170
:1006C0003F03F0E0EA56FE4F108210923F0302C053
:1006D000C150D9F681E0CF910895CF9310923D0398
:1006E00010923E0310924203C0E00E94B202CF5F1C
:1006F0008C3219F0C431C9F75EC0C43109F45BC053
:100700000E94B202E0913D03F0E0E259FE4F808387
:1007100090913D039F5F90933D03CF5F8C3249F4EE
:10072000E0913D03F0E0E359FE4F108210923D034B
:1007300005C0C63429F7F4CFC63480F40E94B20253
:10074000E0913E03F0E0EE57FE4F808390913E0330
:100750009F5F90933E03CF5F8C3271F7E0913E0331
:10076000F0E0EF57FE4F108210923E0305C02A3092
:100770003105A9F0C63498F40E94B202282F30E067
:10078000E0914203F0E0E859FD4F808380914203FD
:100790008F5F80934203CF5F2D30310541F7E091A9
:1007A0004203F0E0E959FD4F1082109242030E948B
:1007B000B20281E001C080E0CF910895CF93109202
:1007C0004103C0E00E94B202CF5F8A3311F0C63904
:1007D000C9F70E94B202CF5F823211F0C639C8F366
:1007E0000E94B202E0914103F0E0EC5AFD4F808399
:1007F000909141039F5F90934103CF5F823249F410
:10080000E0914103F0E0ED5AFD4F10821092410358
:1008100007C0C63928F3F4CF0D9749F0C63938F42C
:100820000E94B20290E0CF5F8A309105A9F781E083
:10083000CF910895109241031092420380E0E0911D
:100840004203F0E0E859FD4F2081909142039F5F01
:10085000909342038F5F2A3311F0863981F7E0913C
:100860004203F0E0E859FD4F2081909142039F5FE1
:10087000909342038F5F223211F0863980F3E0912A
:100880004203F0E0E859FD4F2081909142039F5FC1
:1008900090934203E0914103F0E0EC5AFD4F208336
:1008A000909141039F5F909341038F5F223211F03B
:1008B000863928F3E0914103F0E0ED5AFD4F1082B4
:1008C000109241031092420381E00895CF93109259
:1008D0001303C0E00E94B202CF5F8C3219F0C6341D
:1008E000C9F72BC0C63449F10E94B202CF5F8C32E7
:1008F00011F0C634C9F70E94B202282F30E0E0910F
:100900001303F0E0E050FF4F8083809113038F5F6B
:1009100080931303CF5F2A30310529F02D30310544
:1009200011F0C63440F3E0911303F0E0E150FF4FC3
:1009300010821092130381E001C080E0CF910895EE
:10094000CF9310923D0310923E0310923C0388EC2B
:1009500090E00E940403C0E00E94B202CF5F8A339D
:1009600019F0C431C9F775C0C43109F472C00E94CE
:10097000B202CF5F8C3211F0C639C9F70E94B202C1
:10098000E0913E03F0E0EE57FE4F808390913E03EE
:100990009F5F90933E03CF5F8C3249F4E0913E031A
:1009A000F0E0EF57FE4F108210923E0305C0C639AB
:1009B00028F3F4CFC63980F40E94B202E0913D03DF
:1009C000F0E0E259FE4F808390913D039F5F90934A
:1009D0003D03CF5F8C3271F7E0913D03F0E0E359C6
:1009E000FE4F108210923D0302C0C63940F40E94AF
:1009F000B202CF5F8C32C9F702C0C63940F40E9400
:100A0000B202CF5F8C32C9F702C0C63940F40E94EF
:100A1000B202CF5F8C32C9F702C0C63980F40E949F
:100A2000B202E0913C03F0E0E65FFE4F80839091DC
:100A30003C039F5F90933C03CF5F8C3271F7E09152
:100A40003C03F0E0E75FFE4F108210923C0381E030
:100A500001C080E0CF910895882361F026E033E162
:100A60004EEA4A95F1F73A95E1F72A95D1F700C099
:100A70008150F2CF0895CF93DF938091120381309C
:100A800021F0809112038530C9F481E090E00E944A
:100A90002C058DE790E00E94040382E090E00E9424
:100AA0002C0582E291E00E94040382E090E00E9423
:100AB0002C0589EB90E00E94040304C081E090E0E3
:100AC0000E942C05C0E0809112038F3F21F08FE03F
:100AD00090E00E942C0581E191E00E9404030E94B5
:100AE0001503882309F448C04DE150E064EF70E03D
:100AF00084E193E00E94470E4AEA64E173E088E6ED
:100B000092E00E94B902D82FC33119F0D13099F484
:100B100018C04DE150E067ED70E084E193E00E9481
:100B2000470E4AEA64E173E088E692E00E94B90267
:100B3000813061F706C0809112038F3FC1F1CF5F12
:100B40001BC00E94A00482E090E00E942C05C0918E
:100B50001203C13071F58BE990E00E94040381E03B
:100B600090E00E942C058CE890E00E94040381E054
:100B700090E00E942C051EC0C43108F4A4CF82E08E
:100B800090E00E942C0580911203813081F48BE962
:100B900090E00E94040381E090E00E942C058CE824
:100BA00090E00E94040381E090E00E942C05C0E0E8
:100BB00001C0C1E08C2FDF91CF91089520E12A95EB
:100BC000F1F700C00895CF9386EE94E00E940403ED
:100BD0000E94150343E050E0882319F060EE74E0B2
:100BE00002C063EE74E084E193E00E94470E4AEA9B
:100BF00064E173E088E692E00E94B902C1E08130CE
:100C000009F0C0E081E00E942C05CC23E9F281E0EC
:100C10000E942C0580E894E00E94040381E00E9479
:100C20002C0581E0CF910895CF9382E00E942C059E
:100C300087E894E00E9404030E9415038823A9F327
:100C40004DE050E061EA74E084E193E00E94470ED9
:100C50004AEA64E173E088E692E00E94B902C82F94
:100C60004FE050E062E974E084E193E00E94470EB7
:100C70004AEA64E173E088E692E00E94B9028130BA
:100C800049F40E942C058FE694E00E94040381E061
:100C90000E942C05C13049F681E0CF910895CF9391
:100CA000DF9381E00E942C058AEB94E00E9404030C
:100CB0000E941503811102C0C8E124C04BE050E03E
:100CC00060ED74E084E193E00E94470E4AEA64E13B
:100CD00073E088E692E00E94B902813009F46BC0AB
:100CE0004BE050E065EC74E084E193E00E94470E35
:100CF0004AEA64E173E088E692E00E94B90281303A
:100D0000D9F659C081E00E942C0584E992E00E9446
:100D100004038CE30E942C058AEB94E00E940403F8
:100D20000E941503882309F448C04BE050E060EDB1
:100D300074E084E193E00E94470E4AEA64E173E0C4
:100D400088E692E00E94B902D82F4BE050E065ECB3
:100D500074E084E193E00E94470E4AEA64E173E0A4
:100D600088E692E00E94B902813029F181E0D13019
:100D700041F10E942C0580EA92E00E94040381E088
:100D80000E942C058CE890E00E94040381E00E9400
:100D90002C058BE990E00E940403DEE18CE30E94C5
:100DA0002C05D150D9F784E992E00E9404038CE32A
:100DB0000E942C0502C081E004C0C15009F0A2CFFE
:100DC00080E0DF91CF91089581E00E942C0587EEAD
:100DD00091E00E94040381E00E942C0587EC91E0E1
:100DE0000E94040381E00E942C0586EA91E00E94A3
:100DF000040381E00E942C0586E891E00E94040330
:100E000081E00E942C0581E0089583B7817F846092
:100E100083BF83B7816083BF52985A9AF894E9E6FA
:100E2000F0E080818D7F808380818E7F8083E89A4F
:100E30007894889583B78E7F83BF08951F920F9211
:100E40000FB60F921124E8980F900FBE0F901F90CD
:100E500018951092120352985A9A3D9A459A45E174
:100E600050E068E670E082E391E00E94470E45E1C1
:100E700050E068E670E08AE591E00E94470E45E1A7
:100E800050E068E670E08EE191E00E94470E45E197
:100E900050E068E670E086E491E00E94470E0E9410
:100EA00095028AE00E942C0580E894E00E940403E9
:100EB00081E00E942C050E94E30581E00E942C0540
:100EC0008CE692E00E94040381E00E942C0584E9F4
:100ED00092E00E94040381E00E942C058EEA94E0D7
:100EE0000E94040381E00E942C0585E692E00E94A6
:100EF000040383E00E942C050E94140681E00E94F6
:100F00002C0580E594E00E94040381E00E942C05FA
:100F100081E394E00E9404038DE20E942C050E946C
:100F20004F0620EA822E26E8922EAA24A394B12C02
:100F3000DFEF15E01092120381E00E942C058CEA8D
:100F400092E00E94040381E00E942C0580E594E079
:100F50000E94040381E00E942C058DE194E00E9430
:100F6000040381E00E942C058CE890E00E940403B9
:100F700081E00E942C058BE990E00E94040381E04F
:100F80000E942C0590E8C92E98EAD92E92E1E92E0C
:100F9000FF24F3948091C00087FD10C00E94DE05FD
:100FA00081E0C81AD108E108F108A1F70E944F06B4
:100FB00081E00E942C0510921203E4CF0E941503D9
:100FC000882309F4C3C145E050E068E174E084E19E
:100FD00093E00E94470E4AEA64E173E088E692E0FB
:100FE0000E94B902813009F049C10E9441030E9468
:100FF0001A041092120346E050E062E174E084E1CA
:1010000093E00E94470E86E991E00E94500E4AEA62
:1010100064E173E00E94B9028130A1F50E942C05C1
:1010200080E594E00E94040381E00E942C0586E4A0
:1010300094E00E94040384E592E00E94F80288EBA9
:1010400092E00E94040381E00E942C0586E493E074
:101050000E9404038AE10E94AB028AE00E942C05F0
:1010600080E594E00E94040381E00E942C0581E366
:1010700094E00E94040382E00E942C051093120366
:10108000C1E001C0C0E047E050E06BE074E084E103
:1010900093E00E94470E86E991E00E94500E4AEAD2
:1010A00064E173E00E94B902082F8130A1F581E06C
:1010B0000E942C0580E594E00E94040381E00E94D8
:1010C0002C0586E494E00E94040384E592E00E94EB
:1010D000F80288EB92E00E94040381E00E942C0554
:1010E00086E993E00E9404038AE10E94AB028AE051
:1010F0000E942C0580E594E00E94040381E00E9498
:101100002C0581E394E00E94040382E00E942C05F8
:1011100000931203C1E049E050E062E074E084E132
:1011200093E00E94470E86E991E00E94500E4AEA41
:1011300064E173E00E94B902813009F041C00E946D
:101140002C0544E150E060E070E084E592E00E940C
:10115000720E80E594E00E94040381E00E942C0559
:1011600086E494E00E94040384E592E00E94F80281
:1011700088EB92E00E94040381E00E942C0580E34A
:1011800093E00E94040384E592E00E94F8028AE161
:101190000E94AB028AE00E942C0580E594E00E9448
:1011A000040381E00E942C0581E394E00E94040383
:1011B00082E00E942C051092120301E0C0E001C001
:1011C0000C2F46E050E06CEF73E084E193E00E9466
:1011D000470E86E991E00E94500E4AEA64E173E00E
:1011E0000E94B902813009F04BC00E942C0580E5B5
:1011F00094E00E94040381E00E942C0586E494E0C0
:101200000E94040384E592E00E94F80288EB92E0D9
:101210000E94040381E00E942C058EEE92E00E9461
:1012200004038AE10E94AB028AE00E942C0580E55B
:1012300094E00E94040381E00E942C0581E394E085
:101240000E94040382E00E942C05D09312038DE7D4
:1012500090E00E94040382E00E942C0582E291E06B
:101260000E94040382E00E942C0589EB90E00E941A
:10127000040381E00E942C0501E001C000E0C1E010
:1012800045E050E06BED74E084E193E00E94470E8E
:101290004AEA64E173E088E692E00E94B902813094
:1012A00071F50E94DE038CE594E00E94040381E066
:1012B0000E942C0580E594E00E94040381E00E94D6
:1012C0002C0581E394E00E94040382E00E942C0537
:1012D00044E150E060E070E080E492E00E94620E41
:1012E00044E164E572E080E492E00E94B90281305A
:1012F00019F4809312032AC01092120302C0011144
:1013000022C081E00E942C050E9414060E944F0614
:1013100081E00E942C0580E594E00E94040381E0B6
:101320000E942C0581E394E00E94040382E00E9465
:101330002C0589E591E00E94040385E00E942C05BC
:1013400010921203F7CDCC2309F4F4CD0E943B0593
:10135000813009F003C2CEE6D1E009900020E9F720
:101360002197CE56D140DD27FE01E459FE4FC080C3
:10137000D12C90E3C91AD108EE24D7FCE094FE2CBE
:10138000FE01E559FE4FA081B0E0D097FE01E6597D
:10139000FE4F408150E0405351092AE030E00E9466
:1013A000DE0D2B013C0124E630E0DA010E94DE0D67
:1013B000460E571E681E791EC40CD51CE61CF71C71
:1013C000FE01E759FE4FA081B0E0D09728EE33E050
:1013D0000E94DE0DC60ED71EE81EF91EFE01E8595A
:1013E000FE4FA081B0E0D09720E137E20E94DE0DF1
:1013F000C60ED71EE81EF91EFE01EA59FE4FA08157
:10140000B0E0D09720EA36E841E050E00E94E50DD8
:10141000C60ED71EE81EF91EFE01EB59FE4FA08135
:10142000B0E0D09720E432E44FE050E00E94E50DB8
:101430006C0D7D1D8E1D9F1D2CE330E040E050E0C3
:101440000E94ED0D29013A01FE01EC59FE4FA081E9
:10145000B0E0D09720E836E948E950E00E94E50D79
:101460006B017C01CB30D10540F1FE01ED59FE4FFF
:1014700080818D3269F0A081B0E0D09720E031EE1C
:1014800045EF55E00E94E50DC60ED71EE81EF91E79
:10149000CC30D10590F0CE59DE4F88818D3269F085
:1014A000A881B0E0D09720E03AEC4AE95BE30E94E3
:1014B000E50DC60ED71EE81EF91EC701B601640D64
:1014C000751D861D971D20916E012D3209F020E3B8
:1014D0002093460120E03AEC4AE95BE30E94ED0DDF
:1014E000205D2093470120E031EE45EF55E00E945A
:1014F000ED0D205D2093480120E836E948E950E0F1
:101500000E94ED0D205D209349012EE220934A01B7
:1015100020E432E44FE050E00E94ED0DA50194017B
:101520000E94ED0D20E137E240E050E00E94ED0D19
:10153000205D20934B0128EE33E040E050E00E9414
:10154000ED0D205D20934C0124E630E040E050E0BA
:101550000E94ED0D205D20934D012AE030E040E037
:1015600050E00E94ED0D205D20934E01605D609380
:101570004F0110925001C2E8D1E009900020E9F734
:101580002197C258D140DD27FE01E058FE4FC080B0
:10159000D12C80E3C81AD108EE24D7FCE094FE2CAD
:1015A000FE01E158FE4FA081B0E0D097FE01E25865
:1015B000FE4F408150E0405351092AE030E00E9444
:1015C000DE0D2B013C0124E630E0DA010E94DE0D45
:1015D000460E571E681E791EC40CD51CE61CF71C4F
:1015E000FE01E358FE4FA081B0E0D09728EE33E033
:1015F0000E94DE0DC60ED71EE81EF91EFE01E4583D
:10160000FE4FA081B0E0D09720E137E20E94DE0DCE
:10161000C60ED71EE81EF91EFE01E658FE4FA08139
:10162000B0E0D09720EA36E841E050E00E94E50DB6
:10163000C60ED71EE81EF91EFE01E758FE4FA08118
:10164000B0E0D09720E432E44FE050E00E94E50D96
:101650006C0D7D1D8E1D9F1D2CE330E040E050E0A1
:101660000E94ED0D69017A01FE01E858FE4FA0814C
:10167000B0E0D09720E836E948E950E00E94E50D57
:101680002B013C01CB30D10590F0C958DE4F888149
:101690008D3269F0A881B0E0D09720E031EE45EFBF
:1016A00055E00E94E50D460E571E681E791EC301C7
:1016B000B2016C0D7D1D8E1D9F1D209182012D326A
:1016C00009F020E320935A0120E031EE45EF55E088
:1016D0000E94ED0D205D20935B0120E836E948E98A
:1016E00050E00E94ED0D205D20935C012EE22093DE
:1016F0005D0120E432E44FE050E00E94ED0DA501D1
:1017000094010E94ED0D20E137E240E050E00E949C
:10171000ED0D205D20935E0128EE33E040E050E0C7
:101720000E94ED0D205D20935F0124E630E040E053
:1017300050E00E94ED0D205D209360012AE030E032
:1017400040E050E00E94ED0D205D20936101605D5E
:101750006093620110926301C1E057C0809112034F
:101760008F3F09F4C9C0C3E081E00E942C0589E5E0
:1017700091E00E94040384E00E942C050E94E4068C
:1017800087E791E00E9404038AE00E942C0588E626
:1017900091E00E9404030E941503882309F40CC2FF
:1017A0004CE050E06DE471E084E193E00E94470E6C
:1017B0004AEA64E173E088E692E00E94B90291E0AF
:1017C000813009F0F9C1C15009F493C0992361F245
:1017D00081E00E942C058AE391E00E9404030E94AC
:1017E0006D03C82F811103C087E30E942C0585E09B
:1017F0000E942C0589E591E00E94040385E00E9487
:101800002C05C13009F078C0C0E0809112038F3FF1
:1018100009F473C081E00E942C0581E391E00E94ED
:1018200004030E94660481E00E942C0580E594E098
:101830000E94040381E00E942C0586E494E00E944B
:10184000040384E592E00E94F80288EB92E00E9493
:10185000040381E00E942C05C11104C088E692E0D7
:101860000E94F80280E292E00E940403C11103C0CA
:101870008EE691E002C086E491E00E94F80285E1E4
:1018800092E00E940403C11103C082E891E002C00B
:101890008AE591E00E94F80287E092E00E9404034A
:1018A00080E091E00E94F80282E392E00E9404034B
:1018B000C11103C082E891E002C08AE591E00E9474
:1018C000F80280E392E00E940403C11103C08EE697
:1018D00091E002C086E491E00E94F8028DE292E07D
:1018E0000E94040381E00E942C058AE10E94AB0261
:1018F00004C0913009F46CCFC0E086E391E00E940F
:10190000290E8C0183E291E00E94290EC13009F07A
:101910008DC0209112032F3F09F088C0012B09F4DC
:1019200085C0892B09F482C086E391E00E94290ECC
:10193000EC018EE591E00E94290E6C0183E291E0BA
:101940000E94290E7C018BE491E00E94290EE81A86
:10195000F90AF7FE03C0F194E194F1089BEFE91650
:10196000F1045CF4CC19DD09D7FF03C0D195C19512
:10197000D109CB3FD1050CF459C081E00E942C0560
:1019800080E594E00E94040381E00E942C0586E437
:1019900094E00E94040384E592E00E94F80288EB40
:1019A00092E00E94040381E00E942C058FEC92E0FB
:1019B0000E94040382E392E00E9404038AE591E01E
:1019C0000E94F80280E392E00E94040386E491E022
:1019D0000E94F8028DE292E00E94040381E00E94DE
:1019E0002C058AE10E94AB028AE00E942C0581E06E
:1019F000809312038BE990E00E94040381E00E942F
:101A00002C058CE890E00E94040381E00E942C05E4
:101A100080E594E00E94040381E00E942C0581E3AC
:101A200094E00E94040382E00E942C058AE0EAE52B
:101A3000F1E0A2E3B1E001900D928A95E1F78BE02D
:101A4000E6E4F1E0AEE1B1E001900D928A95E1F7B4
:101A5000809112038F3F29F080911203815080936F
:101A6000120380911203882369F0809112038F3F43
:101A700049F08CE30E942C058CE30E942C058CE33A
:101A80000E942C0580911203811103C08AE00E94FC
:101A90002C05809112038F3F09F089C081E00E94DC
:101AA0002C058091C00087FF03C08091C600F9CF4C
:101AB000C12C85E3D82E8CE0E82EF12C0E94DE05A7
:101AC0008091C00091E0C91AD108E108F10809F439
:101AD0006EC087FFF3CF0E941503882309F467C007
:101AE00045E050E068E174E084E193E00E94470E35
:101AF0004AEA64E173E088E692E00E94B90281302C
:101B000009F055C00E9441030E941A0445E050E0CC
:101B100067EF73E084E193E00E94470E86E991E06D
:101B20000E94500E4AEA64E173E00E94B9028130DB
:101B3000F1F580E594E00E94040381E00E942C0509
:101B400086E494E00E94040384E592E00E94F80297
:101B500088EB92E00E94040381E00E942C058CEB4C
:101B600092E00E9404038AE10E94AB028AE00E9494
:101B70002C0580E594E00E94040381E00E942C057E
:101B800081E394E00E94040382E00E942C058BE92B
:101B900090E00E94040381E00E942C058CE890E014
:101BA0000E94040381E00E942C0510921203809190
:101BB00012038111CBCBBCC990E005CE0E940F0E61
:101BC000B7FF0895821B930B0895B7FF0C941E0E68
:101BD0000E941E0E821B930B0895A1E21A2EAA1BCF
:101BE000BB1BFD010DC0AA1FBB1FEE1FFF1FA217CD
:101BF000B307E407F50720F0A21BB30BE40BF50BCA
:101C0000661F771F881F991F1A9469F76095709552
:101C1000809590959B01AC01BD01CF010895A29FD5
:101C2000B001B39FC001A39F700D811D1124911DB0
:101C3000B29F700D811D1124911D08950E940F0EF9
:101C4000A59F900DB49F900DA49F800D911D112410
:101C50000895FC0188279927E89421912032E9F31F
:101C6000293010F02E30C8F32B3241F02D3239F4E8
:101C7000689404C00E945A0E820F911D2191205336
:101C80002A30C0F31EF4909581959F4F0895FB0173
:101C9000DC0102C005900D9241505040D8F70895E4
:101CA000DC016C9161566A3108F0605E6F5B6D9388
:101CB000C1F708957AE0979F902D879F802D910D11
:101CC00011240895DC01CB01FC01F999FECF06C077
:101CD000F2BDE1BDF89A319600B40D9241505040EA
:101CE000B8F70895DC01CB0103C02D910E947D0E51
:101CF00041505040D0F70895262FF999FECF1FBAD2
:101D000092BD81BD20BD0FB6F894FA9AF99A0FBE24
:081D100001960895F894FFCF3D
:101D180030303030303030303030303030303030BB
:101D280030303030303030303030303030303030AB
:101D3800303030303030303030303030303030309B
:101D4800303030303030303030303030303030308B
:101D5800303030303030303030303030303030307B
:101D6800303030303030303030303030303030306B
:101D7800303030303030303030303030303030305B
:101D8800303030303030303030303030303030304B
:101D9800303030303030303030303030303030303B
:101DA80030303030303031323334353637383930FE
:101DB80031323334353637383930313233343536D9
:101DC80037383930313233343536373839303132C3
:101DD80033343536373839303132333435363738AD
:101DE80039303132333435363738393031323334AB
:101DF800353637383930313233343536373839308B
:101E08003132333435363738393031323334353688
:101E18003738393031323334353637383930313272
:101E2800333435363738393031323334353637385C
:101E3800393031323334353637383930313233345A
:101E4800353637383930313233343536373839303A
:101E58003132333435363738393031323334353638
:101E68003738393031323334353637383930313222
:101E7800333435363738393031323334353637380C
:101E8800393031323334353637383930313233340A
:101E980035363738393031323334353637383930EA
:101EA80031323334353637383930313233343536E8
:101EB80037383930313233343536373839303132D2
:101EC80033343536373839303132333435363738BC
:101ED80039303132333435363738393031323334BA
:101EE800353637383930313233343536373839309A
:101EF8003132333435363738393031323334353698
:101F08003738393031323334353637383930313281
:101F1800333435363738393031323334353637386B
:021F280039304E
:00000001FF
