:100000000C94E4010C9497060C9401020C940102E8
:100010000C9401020C9401020C9401020C94010254
:100020000C9401020C9401020C9401020C94010244
:100030000C9401020C9401020C9401020C94010234
:100040000C9401020C9401020C9401020C94010224
:100050000C9401020C9401020C9401020C94010214
:100060000C9401020C94010241542B43474E53500F
:1000700057523D310D0A0041542B43474E535057C0
:10008000523D300D0A0041542B43475053505752B4
:100090003D300D0A0041542B434750535253543DB9
:1000A000310D0A0041542B434750535253543D30B5
:1000B0000D0A0041542B43475053494E463D300DE5
:1000C0000A002B434750535354415455533A204C44
:1000D0006F636174696F6E20324420466978002B2B
:1000E000434750535354415455533A204C6F636126
:1000F00074696F6E203344204669780041542B4365
:100100004750535354415455533F0D0A0041542B0B
:10011000434750535057523D310D0A0041542B4331
:1001200042430D0A0041542B43495047534D4C4F15
:10013000433D312C310D0A002B53415042523A209D
:10014000312C310041542B53415042523D302C311F
:100150000D0A0041542B53415042523D322C310D77
:100160000A0041542B53415042523D312C310D0A6B
:100170000041542B53415042523D332C312C2250DC
:100180005744222C22696E7465726E6574220D0AC2
:100190000041542B53415042523D332C312C2255B7
:1001A000534552222C22696E7465726E6574220D5D
:1001B0000A0041542B53415042523D332C312C22E2
:1001C00041504E222C22696E7465726E6574220D48
:1001D0000A0041542B53415042523D332C312C22C2
:1001E000434F4E54595045222C2247505253220D12
:1001F0000A000A424154544552595B6D565D3D0018
:10020000204C415449545544453D00204C4F4E47E5
:100210005449545544453D000D0A002C000D0A2058
:10022000687474703A2F2F6D6170732E676F6F67EB
:100230006C652E636F6D2F6D6170733F713D004172
:10024000542B434E45544C494748543D300D0A0009
:10025000415426570D0A0041542B4950523D39361E
:1002600030300D0A0041542B4353434C4B3D300D6D
:100270000A0041542B4353434C4B3D310D0A00417E
:10028000542B4346554E3D310D0A0041542B4346F5
:10029000554E3D340D0A0041542B434C49503D31DD
:1002A0000D0A00220A0D0041435449564154454469
:1002B0002043414C4C532046524F4D200057524F43
:1002C0004E4720434F4D4D414E440A00434F4D4D44
:1002D000414E442041434345505445440A00414364
:1002E0005449564154450053494E474C45004D55DD
:1002F0004C544900434D543A0041542B434E4D4910
:100300003D312C322C302C302C300D0A0041542B36
:10031000434D4744413D2244454C20414C4C220D25
:100320000A0041542B434D47533D220041542B4377
:100330004D47463D310D0A004154480A0D004154D5
:100340002B43464752493D310A0D0041542B43503F
:10035000494E3D2231313131220A0D0041544530A0
:100360000A0D0041542B4350494E3F0A0D002B43C8
:1003700050494E3A2053494D2050494E002B43508E
:10038000494E3A2052454144590041542B4352456D
:10039000473D300A0D0041542B435245473F0A0D5B
:1003A000002B435245473A20302C35002B43524511
:1003B000473A20302C310052494E47004F4B004104
:1003C000540041540A0D000011241FBECFEFD8E0A5
:1003D000DEBFCDBF12E0A0E0B1E0ECE3F9E102C086
:1003E00005900D92AA3EB107D9F713E0AAEEB2E04C
:1003F00001C01D92AB31B107E1F70E94A2060C9437
:100400009C0C0C94000082E08093C0001092C50008
:100410008CE08093C400E1ECF0E080818860808310
:10042000808180618083E2ECF0E08081866080835F
:1004300008959091C00095FFFCCF8093C600089569
:100440008091C00087FFFCCF8091C6000895CF93B4
:10045000DF93AC01DC0190E020E03D91FB01E90F6E
:10046000F11D8081381320C090E0892F820FFA019E
:10047000E80FF11D3081C92FD0E031110BC0FB0115
:1004800001900020E9F73197E61BF70BCE17DF0745
:1004900059F40FC0FB01EC0FFD1F8081882379F315
:1004A0003813EDCF9F5FE1CF2F5F2A3AB1F680E09E
:1004B00001C081E0DF91CF910895CF93DF93EC01EC
:1004C0008991882319F00E941902FACFDF91CF9108
:1004D0000895CF93DF93EC01CE01FE0124912223F6
:1004E00031F02196FC0184910E941902F5CFDF9131
:1004F000CF910895CF9310921A03C6E90E9420026B
:10050000282F30E02A30310579F02D30310561F0A7
:10051000E0911A03F0E0E05CFD4F808380911A03C4
:100520008F5F80931A030DC080911A03882349F0CE
:10053000E0911A03F0E0E05CFD4F108210921A0384
:1005400002C0C150D9F681E0CF910895CF931092A7
:100550001703C6E90E942002282F30E02A30310517
:1005600079F02D30310561F0E0911703F0E0E259A8
:10057000FE4F8083809117038F5F809317030DC018
:1005800080911703882349F0E0911703F0E0E259C6
:10059000FE4F10821092170302C0C150D9F681E0BD
:1005A000CF910895CF9310921503109216031092D5
:1005B0001A03C0E00E942002CF5F8C3219F0C431D0
:1005C000C9F75EC0C43109F45BC00E942002E0910B
:1005D0001503F0E0EA5BFE4F8083909115039F5F67
:1005E00090931503CF5F8C3249F4E0911503F0E04E
:1005F000EB5BFE4F10821092150305C0C63429F73D
:10060000F4CFC63480F40E942002E0911603F0E09B
:10061000E65AFE4F8083909116039F5F90931603D6
:10062000CF5F8C3271F7E0911603F0E0E75AFE4F8E
:1006300010821092160305C02A303105A9F0C63485
:1006400098F40E942002282F30E0E0911A03F0E095
:10065000E05CFD4F808380911A038F5F80931A03C3
:10066000CF5F2D30310541F7E0911A03F0E0E15CF6
:10067000FD4F108210921A030E94200281E001C0F7
:1006800080E0CF910895CF9310921903C0E00E94AB
:100690002002CF5F8A3311F0C639C9F70E942002C9
:1006A000CF5F823211F0C639C8F30E942002E09178
:1006B0001903F0E0E45DFD4F8083909119039F5F83
:1006C00090931903CF5F823249F4E0911903F0E06F
:1006D000E55DFD4F10821092190307C0C63928F35B
:1006E000F4CF0D9749F0C63938F40E94200290E00B
:1006F000CF5F8A309105A9F781E0CF9108951092DC
:10070000190310921A0380E0E0911A03F0E0E05C14
:10071000FD4F208190911A039F5F90931A038F5F82
:100720002A3311F0863981F7E0911A03F0E0E05C9A
:10073000FD4F208190911A039F5F90931A038F5F62
:10074000223211F0863980F3E0911A03F0E0E05C88
:10075000FD4F208190911A039F5F90931A03E091BF
:100760001903F0E0E45DFD4F2083909119039F5F32
:10077000909319038F5F223211F0863928F3E091AC
:100780001903F0E0E55DFD4F1082109219031092FD
:100790001A0381E00895CF931092EB02C0E00E940B
:1007A0002002CF5F8C3219F0C634C9F72BC0C63493
:1007B00049F10E942002CF5F8C3211F0C634C9F794
:1007C0000E942002282F30E0E091EB02F0E0E050A0
:1007D000FF4F80838091EB028F5F8093EB02CF5FAE
:1007E0002A30310529F02D30310511F0C63440F39F
:1007F000E091EB02F0E0E150FF4F10821092EB022B
:1008000081E001C080E0CF910895CF93109215034D
:10081000109216031092140383EB90E00E94690279
:10082000C0E00E942002CF5F8A3319F0C431C9F7BB
:1008300075C0C43109F472C00E942002CF5F8C32AF
:1008400011F0C639C9F70E942002E0911603F0E0CA
:10085000E65AFE4F8083909116039F5F9093160394
:10086000CF5F8C3249F4E0911603F0E0E75AFE4F77
:1008700010821092160305C0C63928F3F4CFC6398A
:1008800080F40E942002E0911503F0E0EA5BFE4F45
:100890008083909115039F5F90931503CF5F8C32F7
:1008A00071F7E0911503F0E0EB5BFE4F10821092C0
:1008B000150302C0C63940F40E942002CF5F8C327B
:1008C000C9F702C0C63940F40E942002CF5F8C32C3
:1008D000C9F702C0C63940F40E942002CF5F8C32B3
:1008E000C9F702C0C63980F40E942002E0911403C7
:1008F000F0E0E65FFE4F8083909114039F5F90933A
:100900001403CF5F8C3271F7E0911403F0E0E75FDE
:10091000FE4F10821092140381E001C080E0CF915D
:100920000895882361F026E033E14EEA4A95F1F715
:100930003A95E1F72A95D1F700C08150F2CF08959A
:10094000CF93DF938091EA02813021F08091EA0217
:100950008530C9F481E090E00E94910488E690E03F
:100960000E94690282E090E00E9491048DE091E093
:100970000E94690282E090E00E94910484EA90E083
:100980000E94690204C081E090E00E949104C0E0EE
:100990008FE090E00E9491048CEF90E00E94690249
:1009A0000E947A02882309F440C04DE150E06FEDC7
:1009B00070E08CEE92E00E94890C6CEE72E080E4B4
:1009C00092E00E942702D82FC33119F0D13061F58F
:1009D00010C04DE150E062EC70E08CEE92E00E94BD
:1009E000890C6CEE72E080E492E00E942702813074
:1009F00069F70E94050482E090E00E949104C09192
:100A0000EA02C13071F586E890E00E94690281E057
:100A100090E00E94910487E790E00E94690281E0E3
:100A200090E00E94910420C0CF5FC43108F4B0CFA1
:100A300082E090E00E9491048091EA02813099F472
:100A400086E890E00E94690281E090E00E949104B3
:100A500087E790E00E94690281E090E00E949104A3
:100A600002C0C1E001C0C0E08C2FDF91CF9108959A
:100A7000611571058105910549F020E12A95F1F78D
:100A800000C06150710981099109F2CF0895CF9397
:100A900082EC93E00E9469020E947A0243E050E0F7
:100AA000882319F06CEB73E002C06FEB73E08CEEFF
:100AB00092E00E94890C6CEE72E080E492E00E9469
:100AC0002702C1E0813009F0C0E081E00E9491047A
:100AD000CC23F1F282E00E9491048CE593E00E9425
:100AE000690281E00E94910481E0CF910895CF9343
:100AF00082E00E94910483E693E00E9469020E94D2
:100B00007A028823A9F34DE050E06DE773E08CEEA4
:100B100092E00E94890C6CEE72E080E492E00E9408
:100B20002702C82F4FE050E06EE673E08CEE92E0B3
:100B30000E94890C6CEE72E080E492E00E94270231
:100B4000813049F40E9491048BE493E00E94690291
:100B500081E00E949104C13059F681E0CF9108955F
:100B6000CF93DF9381E00E94910486E993E00E9495
:100B700069020E947A02811102C0C8E122C04BE0E2
:100B800050E06CEA73E08CEE92E00E94890C6CEE0F
:100B900072E080E492E00E942702813009F484C070
:100BA0004BE050E061EA73E08CEE92E00E94890C29
:100BB0006CEE72E080E492E00E9427028130E9F658
:100BC00073C081E00E9491048FE792E00E94690265
:100BD00088E70E94910486E993E00E9469020E94DE
:100BE0007A02882309F462C04BE050E06CEA73E0BB
:100BF0008CEE92E00E94890C6CEE72E080E492E050
:100C00000E942702D82F4BE050E061EA73E08CEE9F
:100C100092E00E94890C6CEE72E080E492E00E9407
:100C20002702813009F440C081E0D13009F442C08C
:100C30000E9491048BE892E00E94690281E00E9488
:100C4000910487E790E00E94690281E00E9491048C
:100C500086E890E00E94690281E00E94910482E7A8
:100C600092E00E946902DEE18CE30E949104D1507F
:100C7000D9F7459882EC93E00E94690281E00E94D6
:100C8000910485E692E00E94690281E00E9491044D
:100C9000459A81E00E9491048FE792E00E946902E8
:100CA0008CE30E94910402C081E004C0C15009F0AD
:100CB00088CF80E0DF91CF91089581E00E94910478
:100CC00082ED91E00E94690281E00E94910482EB32
:100CD00091E00E94690281E00E94910481E991E023
:100CE0000E94690281E00E94910481E791E00E94E4
:100CF000690281E00E94910481E0089583B7817FB9
:100D0000846083BF83B7816083BF52985A9AF894F6
:100D1000E9E6F0E080818D7F808380818E7F808313
:100D2000E89A7894889583B78E7F83BF08951F9241
:100D30000F920FB60F921124E8980F900FBE0F90EC
:100D40001F90189552985A9A3D9A4598459A0E9434
:100D500003028AE00E9491048CE593E00E946902FC
:100D600081E00E9491040E94470581E00E94910465
:100D700087E592E00E94690282E00E9491048AE87D
:100D800093E00E94690282E00E94910480E592E073
:100D90000E94690283E00E9491040E94770581E02D
:100DA0000E9491048FE792E00E94690288E70E9406
:100DB00091040E94B00590EA892E96E8992EAA2403
:100DC000A394B12CC4E1D5E01092EA0281E00E9424
:100DD000910487E992E00E94690282E00E949104F6
:100DE0008CE293E00E94690282E00E94910489EF04
:100DF00092E00E94690282E00E94910487E790E0FD
:100E00000E94690281E00E94910486E890E00E94BD
:100E1000690281E00E94910482E792E00E946902E7
:100E200082E00E94910480E8C82E88EAD82E82E1F0
:100E3000E82EFF24F3948091C00087FD2EC061E06E
:100E400070E080E090E00E94380581E0C81AD10887
:100E5000E108F10881F7459882EC93E00E9469026D
:100E600081E00E94910485E692E00E94690281E09F
:100E70000E949104459A81E00E9491040E94B0056D
:100E800081E00E94910482E792E00E94690281E081
:100E90000E9491041092EA02C6CF0E947A0288232F
:100EA00009F4EAC145E050E064EF72E08CEE92E0B4
:100EB0000E94890C6CEE72E080E492E00E942702AE
:100EC000813009F056C10E94A6020E947F03109251
:100ED000EA0246E050E06EEE72E08CEE92E00E9494
:100EE000890C8EE691E00E94920C6CEE72E00E94FA
:100EF0002702813009F045C0459882EC93E00E94BA
:100F0000690281E00E94910485E692E00E946902F4
:100F100081E00E949104459A81E00E9491048CE254
:100F200093E00E94690281E00E94910482E293E0D2
:100F30000E9469028CE292E00E945D0283EA92E0E4
:100F40000E94690281E00E9491048CEC92E00E9470
:100F500069028AE10E9419028AE00E9491048CE2EF
:100F600093E00E94690282E00E9491048DE093E088
:100F70000E94690283E00E949104D093EA0211E08A
:100F800001C010E047E050E067EE72E08CEE92E0C6
:100F90000E94890C8EE691E00E94920C6CEE72E049
:100FA0000E942702082F813009F044C0459882EC46
:100FB00093E00E94690281E00E94910485E692E03C
:100FC0000E94690281E00E949104459A81E00E949A
:100FD00091048CE293E00E94690281E00E949104F6
:100FE00082E293E00E9469028CE292E00E945D023C
:100FF00083EA92E00E94690281E00E9491048CECF5
:1010000092E00E9469028AE10E9419028AE00E942D
:1010100091048CE293E00E94690282E00E949104B4
:101020008DE093E00E94690283E00E9491040093A6
:10103000EA0211E049E050E06EED72E08CEE92E0E1
:101040000E94890C8EE691E00E94920C6CEE72E098
:101050000E942702813009F053C0459882EC93E04A
:101060000E94690281E00E94910485E692E00E945C
:10107000690281E00E949104459A81E00E949104F6
:10108000ECE2F2E0A8E1B2E08C2F01900D928A959B
:10109000E1F78CE293E00E94690281E00E949104F2
:1010A00082E293E00E94690288E192E00E945D0280
:1010B00083EA92E00E94690281E00E94910487EA3B
:1010C00092E00E9469028CE292E00E945D028AE155
:1010D0000E9419028AE00E9491048CE293E00E942F
:1010E000690282E00E9491048DE093E00E9469020F
:1010F00083E00E9491041092EA0201E010E03DC0FA
:10110000111139C0459882EC93E00E94690281E098
:101110000E94910485E692E00E94690281E00E94AB
:101120009104459A81E00E9491048CE293E00E9430
:10113000690281E00E94910482E293E00E946902C8
:101140008CE292E00E945D0283EA92E00E946902D2
:1011500081E00E9491048DEB92E00E9469028AE195
:101160000E9419028AE00E9491041092EA0200E0B3
:1011700004C000E001C001E011E045E050E067EB91
:1011800073E08CEE92E00E94890C6CEE72E080E4D9
:1011900092E00E9427028130C1F545980E944303E6
:1011A00082EC93E00E94690281E00E94910485E64E
:1011B00092E00E94690281E00E949104459A81E0D8
:1011C0000E94910488E393E00E94690281E00E94FA
:1011D00091048CE293E00E94690282E00E949104F3
:1011E0008DE093E00E94690283E00E94910468E12F
:1011F00072E08CE292E00E942702813019F4809321
:10120000EA023AC01092EA0202C0011132C04598C7
:1012100082EC93E00E94690281E00E94910485E6DD
:1012200092E00E94690281E00E949104459A81E067
:101230000E9491040E9477050E94B00581E00E94FF
:1012400091048CE293E00E94690282E00E94910482
:101250008DE093E00E94690283E00E94910484E49F
:1012600091E00E94690285E00E9491041092EA02D6
:10127000ABCD112309F4A8CD0E94A004813009F060
:1012800025C2C6E4D1E009900020E9F72197C654B1
:10129000D140DD27FE01EC5BFE4FC080D12C80E306
:1012A000C81AD108EE24D7FCE094FE2CFE01ED5BB9
:1012B000FE4FA081B0E0D097FE01EE5BFE4F408173
:1012C00050E0405351092AE030E00E943E0C2B01CF
:1012D0003C0124E630E0DA010E943E0C460E571E27
:1012E000681E791EC40CD51CE61CF71CFE01EF5BC2
:1012F000FE4FA081B0E0D09728EE33E00E943E0C74
:10130000C60ED71EE81EF91EFE01E05CFE4FA0814E
:10131000B0E0D09720E137E20E943E0CC60ED71E07
:10132000E81EF91EFE01E25CFE4FA081B0E0D097FE
:1013300020EA36E841E050E00E94450CC60ED71E78
:10134000E81EF91EFE01E35CFE4FA081B0E0D097DD
:1013500020E432E44FE050E00E94450C6C0D7D1D0E
:101360008E1D9F1D2CE330E040E050E00E944D0CAC
:1013700029013A01FE01E45CFE4FA081B0E0D09764
:1013800020E836E948E950E00E94450C6B017C01F9
:10139000CB30D10540F1FE01E55CFE4F80818D32FE
:1013A00069F0A081B0E0D09720E031EE45EF55E044
:1013B0000E94450CC60ED71EE81EF91ECC30D10582
:1013C00090F0C65CDE4F88818D3269F0A881B0E074
:1013D000D09720E03AEC4AE95BE30E94450CC60E48
:1013E000D71EE81EF91EC701B601640D751D861DC6
:1013F000971D209146012D3209F020E320931E0114
:1014000020E03AEC4AE95BE30E944D0C205D20931A
:101410001F0120E031EE45EF55E00E944D0C205DAC
:101420002093200120E836E948E950E00E944D0C65
:10143000205D209321012EE22093220120E432E45A
:101440004FE050E00E944D0CA50194010E944D0C0C
:1014500020E137E240E050E00E944D0C205D2093F7
:10146000230128EE33E040E050E00E944D0C205D67
:101470002093240124E630E040E050E00E944D0C2F
:10148000205D209325012AE030E040E050E00E94FA
:101490004D0C205D20932601605D60932701109222
:1014A0002801CAE5D1E009900020E9F72197CA5543
:1014B000D140DD27FE01E85AFE4FC080D12C80E3E9
:1014C000C81AD108EE24D7FCE094FE2CFE01E95A9C
:1014D000FE4FA081B0E0D097FE01EA5AFE4F408156
:1014E00050E0405351092AE030E00E943E0C2B01AD
:1014F0003C0124E630E0DA010E943E0C460E571E05
:10150000681E791EC40CD51CE61CF71CFE01EB5AA4
:10151000FE4FA081B0E0D09728EE33E00E943E0C51
:10152000C60ED71EE81EF91EFE01EC5AFE4FA08122
:10153000B0E0D09720E137E20E943E0CC60ED71EE5
:10154000E81EF91EFE01EE5AFE4FA081B0E0D097D2
:1015500020EA36E841E050E00E94450CC60ED71E56
:10156000E81EF91EFE01EF5AFE4FA081B0E0D097B1
:1015700020E432E44FE050E00E94450C6C0D7D1DEC
:101580008E1D9F1D2CE330E040E050E00E944D0C8A
:1015900069017A01FE01E05BFE4FA081B0E0D097C7
:1015A00020E836E948E950E00E94450C2B013C0157
:1015B000CB30D10590F0C15BDE4F88818D3269F070
:1015C000A881B0E0D09720E031EE45EF55E00E94D1
:1015D000450C460E571E681E791EC301B2016C0DE4
:1015E0007D1D8E1D9F1D20915A012D3209F020E393
:1015F0002093320120E031EE45EF55E00E944D0C82
:10160000205D2093330120E836E948E950E00E944C
:101610004D0C205D209334012EE22093350120E40F
:1016200032E44FE050E00E944D0CA50194010E946D
:101630004D0C20E137E240E050E00E944D0C205D6F
:101640002093360128EE33E040E050E00E944D0C3C
:10165000205D2093370124E630E040E050E00E9416
:101660004D0C205D209338012AE030E040E050E04E
:101670000E944D0C205D20933901605D60933A011A
:1016800010923B0181E00E9491048CE191E00E9464
:1016900069020E94CB0381E00E9491048CE293E0F6
:1016A0000E94690281E00E94910482E293E00E941C
:1016B00069028CE292E00E945D0283EA92E00E945D
:1016C000690281E00E949104C1E079C0C3E081E039
:1016D0000E94910484E491E00E94690284E00E94E7
:1016E00091040E945D0682E691E00E9469028AE010
:1016F0000E94910483E591E00E9469020E947A02AF
:10170000882389F04CE050E068E371E08CEE92E0D1
:101710000E94890C6CEE72E080E492E00E94270245
:1017200091E0813009F090E0C15019F0992379F2ED
:1017300003C0913009F089C081E00E94910485E2E4
:1017400091E00E9469020E94D202C82F811103C059
:1017500087E30E94910485E00E94910484E491E073
:101760000E94690285E00E949104C13009F06DC0B9
:1017700081E00E9491048CE191E00E9469020E9444
:10178000CB0381E00E9491048CE293E00E94690205
:1017900081E00E94910482E293E00E9469028CE25F
:1017A00092E00E945D0283EA92E00E94690281E079
:1017B0000E94910480E492E00E945D02C0E08BE010
:1017C00092E00E946902C11103C086E491E002C068
:1017D0008EE191E00E945D0280E092E00E94690249
:1017E000C11103C08AE591E002C082E391E00E944A
:1017F0005D0282EF91E00E94690280E091E00E9428
:101800005D028DE192E00E946902C11103C08AE588
:1018100091E002C082E391E00E945D028BE192E0E0
:101820000E946902C11103C086E491E002C08EE10A
:1018300091E00E945D0288E192E00E94690281E0ED
:101840000E9491048AE10E9419028091EA0281506B
:101850008093EA028091EA02882341F08CE30E949F
:1018600091048CE30E9491048CE301C08AE00E9401
:1018700091048091EA028111FFCCA4CA0E946F0CEE
:10188000B7FF0895821B930B0895B7FF0C947E0C4D
:101890000E947E0C821B930B0895A1E21A2EAA1BB4
:1018A000BB1BFD010DC0AA1FBB1FEE1FFF1FA21710
:1018B000B307E407F50720F0A21BB30BE40BF50B0D
:1018C000661F771F881F991F1A9469F76095709596
:1018D000809590959B01AC01BD01CF010895A29F19
:1018E000B001B39FC001A39F700D811D1124911DF4
:1018F000B29F700D811D1124911D08950E946F0CDF
:10190000A59F900DB49F900DA49F800D911D112453
:101910000895FB01DC0102C005900D92415050403A
:10192000D8F70895DC016C9161566A3108F0605E69
:0C1930006F5B6D93C1F70895F894FFCF32
:10193C003132333435363738393031323334353659
:10194C003738393031323334353637383930313243
:10195C00333435363738393031323334353637382D
:10196C00393031323334353637383930313233342B
:10197C00353637383930313233343536373839300B
:10198C003132333435363738393031323334353609
:10199C0037383930313233343536373839303132F3
:1019AC0033343536373839303132333435363738DD
:1019BC0039303132333435363738393031323334DB
:1019CC0035363738393031323334353637383930BB
:1019DC0031323334353637383930313233343536B9
:1019EC0037383930313233343536373839303132A3
:1019FC00333435363738393031323334353637388D
:101A0C00393031323334353637383930313233348A
:101A1C00353637383930313233343536373839306A
:101A2C003132333435363738393031323334353668
:101A3C003738393031323334353637383930313252
:101A4C00333435363738393031323334353637383C
:101A5C00393031323334353637383930313233343A
:101A6C00353637383930313233343536373839301A
:101A7C003132333435363738393031323334353618
:101A8C003738393031323334353637383930313202
:101A9C0033343536373839303132333435363738EC
:101AAC0039303132333435363738393031323334EA
:101ABC0035363738393031323334353637383930CA
:101ACC0031323334353637383930313233343536C8
:101ADC0037383930313233343536373839303132B2
:101AEC00333435363738393031323334353637389C
:101AFC00393031323334353637383930313233349A
:101B0C003536373839303132333435363738393079
:0A1B1C0031323334353637383930B2
:00000001FF
