:100000000C94B0020C9474070C94CD020C94CD02A5
:100010000C94CD020C94CD020C94CD020C94CD0224
:100020000C94CD020C94CD020C94CD020C94CD0214
:100030000C94CD020C94CD020C94CD020C94CD0204
:100040000C94CD020C94CD020C94CD020C94CD02F4
:100050000C94CD020C94CD020C94CD020C94CD02E4
:100060000C94CD020C94CD02303030303030303032
:100070003030303030303030303030000041542BB0
:1000800043474E535057523D310D0A0041542B43C4
:10009000474E535057523D300D0A0041542B4347B1
:1000A00050535057523D300D0A0041542B43475096
:1000B000535253543D310D0A0041542B4347505382
:1000C0005253543D300D0A0041542B43475053497D
:1000D0004E463D300D0A002B434750535354415474
:1000E00055533A204C6F636174696F6E203244201F
:1000F000466978002B434750535354415455533A63
:10010000204C6F636174696F6E20334420466978B8
:100110000041542B434750535354415455533F0DC2
:100120000A0041542B434750535057523D310D0A5A
:100130000041542B4342430D0A0041542B43495084
:1001400047534D4C4F433D312C310D0A002B534149
:100150005042523A20312C310041542B53415042ED
:10016000523D302C310D0A0041542B534150425224
:100170003D322C310D0A0041542B53415042523D27
:10018000312C310D0A0041542B53415042523D3322
:100190002C312C22505744222C22696E7465726EC9
:1001A0006574220D0A0041542B53415042523D3395
:1001B0002C312C2255534552222C22696E746572C3
:1001C0006E6574220D0A0041542B53415042523D3A
:1001D000332C312C2241504E222C22696E746572D0
:1001E0006E6574220D0A0041542B53415042523D1A
:1001F000332C312C22434F4E54595045222C224748
:10020000505253220D0A000A424154544552595B40
:100210006D565D3D00204C415449545544453D00C8
:10022000204C4F4E475449545544453D000D0A005B
:100230002C000D0A20687474703A2F2F6D61707352
:100240002E676F6F676C652E636F6D2F6D617073B6
:100250003F713D0041542B434E45544C494748544F
:100260003D300D0A00415426570D0A0041542B49D8
:1002700050523D393630300D0A0041542B43534320
:100280004C4B3D300D0A0041542B4353434C4B3DE6
:10029000310D0A0041542B4346554E3D310D0A00A5
:1002A00041542B4346554E3D340D0A0041542B43D7
:1002B0004C49503D310D0A00220A0D00475541526C
:1002C00044204D4F44452053544F50504544004125
:1002D0004C4552542C20504F534954494F4E2043C3
:1002E00048414E47454420544F203A20200047556E
:1002F000415244204D4F44452041435449564154B6
:1003000045442E2E20504C454153452057414954D9
:100310002035204D494E55544553204245464F52B5
:1003200045204E45585420434F4D4D414E440A0000
:100330004143544956415445442043414C4C532079
:1003400046524F4D20004D554C5449504C45204D80
:100350004541535552454D454E545320494E20502A
:10036000524F47524553532E2E20504C4541534532
:100370002057414954203235204D494E555445535C
:10038000204245464F5245204E45585420434F4D3C
:100390004D414E440A0053494E474C45204D45417E
:1003A000535552454D454E5420494E2050524F47CB
:1003B000524553532E2E2E20504C45415345205725
:1003C00041495420372D38204D494E55544553202E
:1003D0004245464F5245204E45585420434F4D4DBF
:1003E000414E440A00434F4D4D414E44204143434A
:1003F00045505445440A004341522042415454451B
:10040000525920495320444953434F4E4E4543547B
:1004100045440A0043415220424154544552592018
:100420004953205745414B0A004341522042415411
:1004300054455259204953204F5645524C4F414440
:1004400045440A00436172204261747465727920E8
:10045000766F6C746167652072656164696E672090
:100460005B565D203D20004143430053544F5000F4
:100470004755415244004143544956415445005365
:10048000494E474C45004D554C544900434D543A54
:100490000041542B434E4D493D312C322C302C30F1
:1004A0002C300D0A0041542B434D4744413D22441A
:1004B000454C20414C4C220D0A0041542B434D47E2
:1004C000533D220041542B434D47463D310D0A0018
:1004D0004154480A0D0041542B43464752493D318F
:1004E0000A0D0041542B4350494E3D2231313131E8
:1004F000220A0D00415445300A0D0041542B43504F
:10050000494E3F0A0D002B4350494E3A2053494D66
:100510002050494E002B4350494E3A205245414409
:10052000590041542B435245473D300A0D00415478
:100530002B435245473F0A0D002B435245473A2073
:10054000302C35002B435245473A20302C31005295
:10055000494E47004F4B0041540041540A0D0000E2
:1005600011241FBECFEFD8E0DEBFCDBF13E0A0E067
:10057000B1E0E6E9F1E202C005900D92A231B107C7
:10058000D9F713E0A2E1B3E001C01D92A334B10793
:10059000E1F70E94B9070C94C9100C94000082E0A6
:1005A0008093C0001092C5008CE08093C400E1EC01
:1005B000F0E0808188608083808180618083E2ECCC
:1005C000F0E080818660808308959091C00095FF5F
:1005D000FCCF8093C60008958091C00087FFFCCFB8
:1005E0008091C6000895EF92FF920F931F93CF93CF
:1005F000DF939C01182FFC0190E08E2F811B841744
:1006000048F5A191EB01C90FD11D5881A513F5CF74
:1006100090E0592F580FD901A50FB11D0C91C92F8A
:10062000D0E001110CC0DB010D900020E9F711971B
:10063000A61BB70BCA17DB0701F781E00CC07B01D3
:10064000EC0EFD1ED7015C91552369F30513EBCF2A
:100650009F5FDFCF80E0DF91CF911F910F91FF90DF
:10066000EF900895CF93DF93EC018991882319F0DF
:100670000E94E502FACFDF91CF910895CF93DF93E7
:10068000EC01CE01FE012491222331F02196FC01E0
:1006900084910E94E502F5CFDF91CF910895CF9329
:1006A00010924203C6E90E94EC02282F30E02A3063
:1006B000310579F02D30310561F0E0914203F0E031
:1006C000E859FD4F8083809142038F5F80934203FE
:1006D0000DC080914203882349F0E0914203F0E08D
:1006E000E859FD4F10821092420302C0C150D9F662
:1006F00081E0CF910895CF9310923F03C6E90E9405
:10070000EC02282F30E02A30310579F02D30310508
:1007100061F0E0913F03F0E0EA56FE4F8083809164
:100720003F038F5F80933F030DC080913F03882379
:1007300049F0E0913F03F0E0EA56FE4F108210923C
:100740003F0302C0C150D9F681E0CF910895CF9305
:1007500010923D0310923E0310924203C0E00E94AB
:10076000EC02CF5F8C3219F0C431C9F75EC0C431DE
:1007700009F45BC00E94EC02E0913D03F0E0E25915
:10078000FE4F808390913D039F5F90933D03CF5F29
:100790008C3249F4E0913D03F0E0E359FE4F1082C2
:1007A00010923D0305C0C63429F7F4CFC63480F457
:1007B0000E94EC02E0913E03F0E0EE57FE4F808392
:1007C00090913E039F5F90933E03CF5F8C3271F711
:1007D000E0913E03F0E0EF57FE4F108210923E038F
:1007E00005C02A303105A9F0C63498F40E94EC0205
:1007F000282F30E0E0914203F0E0E859FD4F80837C
:10080000809142038F5F80934203CF5F2D3031058B
:1008100041F7E0914203F0E0E959FD4F1082109258
:1008200042030E94EC0281E001C080E0CF91089574
:10083000CF9310924103C0E00E94EC02CF5F8A3355
:1008400011F0C639C9F70E94EC02CF5F823211F075
:10085000C639C8F30E94EC02E0914103F0E0EC5A83
:10086000FD4F8083909141039F5F90934103CF5F41
:10087000823249F4E0914103F0E0ED5AFD4F1082DD
:100880001092410307C0C63928F3F4CF0D9749F001
:10089000C63938F40E94EC0290E0CF5F8A309105AF
:1008A000A9F781E0CF91089510924103109242037D
:1008B00080E0E0914203F0E0E859FD4F2081909103
:1008C00042039F5F909342038F5F2A3311F0863972
:1008D00081F7E0914203F0E0E859FD4F20819091CB
:1008E00042039F5F909342038F5F223211F086395B
:1008F00080F3E0914203F0E0E859FD4F20819091B0
:1009000042039F5F90934203E0914103F0E0EC5A71
:10091000FD4F2083909141039F5F909341038F5F30
:10092000223211F0863928F3E0914103F0E0ED5ACC
:10093000FD4F1082109241031092420381E008950E
:10094000CF9310921303C0E00E94EC02CF5F8C3271
:1009500019F0C634C9F72BC0C63449F10E94EC0225
:10096000CF5F8C3211F0C634C9F70E94EC02282FF9
:1009700030E0E0911303F0E0E050FF4F808380917E
:1009800013038F5F80931303CF5F2A30310529F063
:100990002D30310511F0C63440F3E0911303F0E03F
:1009A000E150FF4F10821092130381E001C080E0FC
:1009B000CF910895CF9310923D0310923E03109271
:1009C0003C0388EC90E00E943E03C0E00E94EC02F1
:1009D000CF5F8A3319F0C431C9F775C0C43109F447
:1009E00072C00E94EC02CF5F8C3211F0C639C9F799
:1009F0000E94EC02E0913E03F0E0EE57FE4F808350
:100A000090913E039F5F90933E03CF5F8C3249F4F9
:100A1000E0913E03F0E0EF57FE4F108210923E034C
:100A200005C0C63928F3F4CFC63980F40E94EC0221
:100A3000E0913D03F0E0E259FE4F808390913D0349
:100A40009F5F90933D03CF5F8C3271F7E0913D0340
:100A5000F0E0E359FE4F108210923D0302C0C63908
:100A600040F40E94EC02CF5F8C32C9F702C0C63955
:100A700040F40E94EC02CF5F8C32C9F702C0C63945
:100A800040F40E94EC02CF5F8C32C9F702C0C63935
:100A900080F40E94EC02E0913C03F0E0E65FFE4F40
:100AA000808390913C039F5F90933C03CF5F8C3297
:100AB00071F7E0913C03F0E0E75FFE4F1082109287
:100AC0003C0381E001C080E0CF910895882361F06C
:100AD00026E033E14EEA4A95F1F73A95E1F72A9597
:100AE000D1F700C08150F2CF0895CF93DF9380916A
:100AF0001203813021F0809112038530C9F481E026
:100B000090E00E9466058DE790E00E943E0382E03F
:100B100090E00E94660582E291E00E943E0382E03E
:100B200090E00E94660589EB90E00E943E0304C0BD
:100B300081E090E00E946605C0E0809112038F3F43
:100B400021F08FE090E00E94660581E191E00E9433
:100B50003E030E944F03882309F448C04DE150E052
:100B600064EF70E084E193E00E9486104AEA64E159
:100B700073E088E692E00E94F302D82FC33119F0A7
:100B8000D13099F418C04DE150E067ED70E084E198
:100B900093E00E9486104AEA64E173E088E692E0FE
:100BA0000E94F302813061F706C0809112038F3FEB
:100BB000C1F1CF5F1BC00E94DA0482E090E00E9486
:100BC0006605C0911203C13071F58BE990E00E9477
:100BD0003E0381E090E00E9466058CE890E00E9470
:100BE0003E0381E090E00E9466051EC0C43108F417
:100BF000A4CF82E090E00E946605809112038130CC
:100C000081F48BE990E00E943E0381E090E00E9435
:100C100066058CE890E00E943E0381E090E00E942F
:100C20006605C0E001C0C1E08C2FDF91CF9108952F
:100C300020E12A95F1F700C00895CF938AE595E069
:100C40000E943E030E944F0343E050E0882319F0C6
:100C500064E575E002C067E575E084E193E00E9419
:100C600086104AEA64E173E088E692E00E94F302AB
:100C7000C1E0813009F0C0E081E00E946605CC232C
:100C8000E9F281E00E94660584EF94E00E943E0351
:100C900081E00E94660581E0CF910895CF9382E0C4
:100CA0000E9466058BEF94E00E943E030E944F0372
:100CB0008823A9F34DE050E065E175E084E193E01D
:100CC0000E9486104AEA64E173E088E692E00E949E
:100CD000F302C82F4FE050E066E075E084E193E056
:100CE0000E9486104AEA64E173E088E692E00E947E
:100CF000F302813049F40E94660583EE94E00E947D
:100D00003E0381E00E946605C13049F681E0CF9143
:100D10000895CF93DF9381E00E9466058EE295E00F
:100D20000E943E030E944F03811102C0C8E124C00B
:100D30004BE050E064E475E084E193E00E948610AB
:100D40004AEA64E173E088E692E00E94F3028130AF
:100D500009F487C04BE050E069E375E084E193E07B
:100D60000E9486104AEA64E173E088E692E00E94FD
:100D7000F3028130D9F675C081E00E94660584E9EE
:100D800092E00E943E038CE30E9466058EE295E0AD
:100D90000E943E030E944F03882309F464C04BE085
:100DA00050E064E475E084E193E00E9486104AEA32
:100DB00064E173E088E692E00E94F302D82F4BE0F2
:100DC00050E069E375E084E193E00E9486104AEA0E
:100DD00064E173E088E692E00E94F302813009F456
:100DE00040C081E0D13009F442C00E94660580EA2B
:100DF00092E00E943E0381E00E9466058CE890E04C
:100E00000E943E0381E00E9466058BE990E00E940B
:100E10003E0381E00E94660587E892E00E943E035F
:100E2000DEE18CE30E946605D150D9F745988AE54A
:100E300095E00E943E0381E00E9466058AE792E009
:100E40000E943E0381E00E946605459A81E00E946F
:100E5000660584E992E00E943E038CE30E946605E9
:100E600002C081E004C0C15009F086CF80E0DF916C
:100E7000CF91089581E00E94660587EE91E00E947F
:100E80003E0381E00E94660587EC91E00E943E03EC
:100E900081E00E94660586EA91E00E943E0381E0BF
:100EA0000E94660586E891E00E943E0381E00E9470
:100EB000660581E0089583B7817F846083BF83B72F
:100EC000816083BF52985A9AF894E9E6F0E08081F5
:100ED0008D7F808380818E7F8083E89A7894889547
:100EE00083B78E7F83BF08951F920F920FB60F9224
:100EF0001124E8980F900FBE0F901F90189598E05E
:100F000020E030E080917C00807F816080937C00D5
:100F100080917A00806480937A0080917A0086FDC7
:100F2000FCCF4091780050917900240F351F9150EB
:100F300049F783E0369527958A95E1F7A4EEBCE062
:100F40000E9409109B01AC019AE056954795379590
:100F500027959A95D1F7ADE0B6E10E941F1028EED3
:100F600033E040E050E00E944610C90182569D4F98
:100F700008951092120352985A9A3D9A459A809178
:100F80007C00806480937C0080917A0086688093E6
:100F90007A0045E150E068E670E082E391E00E946B
:100FA000861045E150E068E670E08AE591E00E9435
:100FB000861045E150E068E670E08EE191E00E9425
:100FC000861045E150E068E670E086E491E00E941A
:100FD00086100E94CF028AE00E94660584EF94E0AA
:100FE0000E943E0381E00E9466050E941D0681E08A
:100FF0000E9466058CE692E00E943E0381E00E941A
:10100000660584E992E00E943E0381E00E94660545
:1010100082E295E00E943E0381E00E94660585E63B
:1010200092E00E943E0383E00E9466050E944E0605
:1010300081E00E94660584EC94E00E943E0381E01A
:101040000E94660585EA94E00E943E038DE20E94BC
:1010500066050E94890644E6842E912CA12CB12CB1
:1010600000E117E22EE2F22EEE24EA9435E0D32ED0
:101070001092120381E00E9466058CEA92E00E94C1
:101080003E0381E00E94660584EC94E00E943E03EA
:1010900081E00E94660581E994E00E943E0381E0C0
:1010A0000E9466058CE890E00E943E0381E00E9469
:1010B00066058BE990E00E943E0381E00E94660590
:1010C00087E892E00E943E0382E00E94660590E875
:1010D000492E98EA592E92E1692E772473948091D3
:1010E000C00087FD95C00E94180621E0421A5108F1
:1010F00061087108A1F745988AE595E00E943E03D2
:1011000081E00E9466058AE792E00E943E0381E04A
:101110000E946605459A81E00E9466050E94890644
:101120000E947F07EC01815197428F3B924108F466
:1011300062C0C13D89E3D80720F089E294E00E94B3
:101140003E03CE0189559B41873B9B4020F484E1BF
:1011500094E00E943E0381E00E94660584EC94E0E6
:101160000E943E0381E00E9466058AEB94E00E94A3
:101170003E0384E592E00E94320388EB92E00E94F5
:101180003E0381E00E946605CE01B8010E94321044
:10119000605D60930001BC0180E090E028EE33E0E8
:1011A00040E050E00E944610205D20930101F09243
:1011B0000201A50194010E944610205D20930301C5
:1011C0001092040184E494E00E943E0380E091E0E8
:1011D0000E9432038AE10E94E5028AE00E946605CD
:1011E00084EC94E00E943E0381E00E94660585EA5B
:1011F00094E00E943E0381E00E94660587E892E049
:101200000E943E0381E00E946605109212035FCFA8
:101210000E944F03882309F4C4C245E050E06CE803
:1012200074E084E193E00E9486104AEA64E173E08E
:1012300088E692E00E94F302813009F026C20E9403
:101240007B030E9454041092120346E050E066E8CB
:1012500074E084E193E00E94861086E991E00E94A8
:101260008F104AEA64E173E00E94F302813009F0D2
:1012700045C045988AE595E00E943E0381E00E94C2
:1012800066058AE792E00E943E0381E00E946605BF
:10129000459A81E00E94660584EC94E00E943E033A
:1012A00081E00E9466058AEB94E00E943E0384E59B
:1012B00092E00E94320388EB92E00E943E0381E0BC
:1012C0000E94660586E493E00E943E038AE10E9444
:1012D000E5028AE00E94660584EC94E00E943E03E9
:1012E00081E00E94660585EA94E00E943E0382E068
:1012F0000E946605D0921203C1E001C0C0E047E041
:1013000050E06FE774E084E193E00E94861086E984
:1013100091E00E948F104AEA64E173E00E94F302B8
:10132000D82F813009F044C045988AE595E00E94A5
:101330003E0381E00E9466058AE792E00E943E0338
:1013400081E00E946605459A81E00E94660584EC72
:1013500094E00E943E0381E00E9466058AEB94E0DF
:101360000E943E0384E592E00E94320388EB92E003
:101370000E943E0381E00E94660586E993E00E9498
:101380003E038AE10E94E5028AE00E94660584EC41
:1013900094E00E943E0381E00E94660585EA94E0A5
:1013A0000E943E0382E00E946605D0931203C1E0D2
:1013B00049E050E066E774E084E193E00E94861023
:1013C00086E991E00E948F104AEA64E173E00E948E
:1013D000F302813009F052C045988AE595E00E94F9
:1013E0003E0381E00E9466058AE792E00E943E0388
:1013F00081E00E946605459A81E00E94660544E10D
:1014000050E060E070E084E592E00E94B11084EC6E
:1014100094E00E943E0381E00E9466058AEB94E01E
:101420000E943E0384E592E00E94320388EB92E042
:101430000E943E0381E00E94660580E393E00E94E3
:101440003E0384E592E00E9432038AE10E94E502B5
:101450008AE00E94660584EC94E00E943E0381E0ED
:101460000E94660585EA94E00E943E0382E00E94A5
:10147000660510921203D1E0C0E001C0DC2F46E007
:1014800050E060E774E084E193E00E94861086E912
:1014900091E00E948F104AEA64E173E00E94F30237
:1014A000813009F05AC045988AE595E00E943E03D4
:1014B00081E00E9466058AE792E00E943E0381E097
:1014C0000E946605459A81E00E94660584EC94E0DE
:1014D0000E943E0381E00E9466058AEB94E00E9430
:1014E0003E0384E592E00E94320388EB92E00E9482
:1014F0003E0381E00E9466058EEE92E00E943E036C
:101500008AE10E94E5028AE00E94660584EC94E08C
:101510000E943E0381E00E94660585EA94E00E94F5
:101520003E0382E00E946605E09212038DE790E0A0
:101530000E943E0382E00E94660582E291E00E94E2
:101540003E0382E00E94660589EB90E00E943E0324
:1015500081E00E946605D1E0C1E044E050E067E62A
:1015600074E084E193E00E94861086E991E00E9495
:101570008F104AEA64E173E00E94F302813009F0BF
:1015800086C045988AE595E00E943E0381E00E946E
:1015900066058AE792E00E943E0381E00E946605AC
:1015A000459A81E00E94660584EC94E00E943E0327
:1015B00081E00E9466058AEB94E00E943E0384E588
:1015C00092E00E94320388EB92E00E943E0381E0A9
:1015D0000E9466050E947F07EC01C13D89E3D807A0
:1015E00020F089E294E00E943E03CE0189559B41A0
:1015F000873B9B4018F484E194E006C0C8358BE13A
:10160000D80720F487EF93E00E943E03CE01B80193
:101610000E943210605D60930001BC0180E090E0A8
:1016200028EE33E040E050E00E944610205D209319
:101630000101F0920201A50194010E944610205D73
:10164000209303011092040184E494E00E943E037D
:1016500080E091E00E9432038AE10E94E5028AE084
:101660000E94660584EC94E00E943E0381E00E94A3
:10167000660585EA94E00E943E0382E00E946605CA
:1016800010921203D1E0C0E002C0D0E0C1E045E01A
:1016900050E06FE475E084E193E00E9486104AEA2E
:1016A00064E173E088E692E00E94F302813009F081
:1016B00041C045980E9418048AE595E00E943E03C7
:1016C00081E00E9466058AE792E00E943E0381E085
:1016D0000E946605459A81E00E94660580ED94E0CF
:1016E0000E943E0381E00E94660584EC94E00E9423
:1016F0003E0381E00E94660585EA94E00E943E0375
:1017000082E00E94660544E150E060E070E080E421
:1017100092E00E94A11044E164E572E080E492E06E
:101720000E94F302813019F4809312033AC01092A0
:10173000120302C0D11132C045988AE595E00E949B
:101740003E0381E00E9466058AE792E00E943E0324
:1017500081E00E946605459A81E00E9466050E942C
:101760004E060E94890681E00E94660584EC94E0A2
:101770000E943E0381E00E94660585EA94E00E9493
:101780003E0382E00E94660589E591E00E943E03E7
:1017900085E00E946605109212036ACCCC2309F4FE
:1017A00067CC0E947505813009F003C2CEE6D1E016
:1017B00009900020E9F72197CE56D140DD27FE01A0
:1017C000E459FE4FC080D12C90E3C91AD108EE2411
:1017D000D7FCE094FE2CFE01E559FE4FA081B0E05D
:1017E000D097FE01E659FE4F408150E04053510929
:1017F0002AE030E00E9418102B013C0124E630E082
:10180000DA010E941810460E571E681E791EC40C7D
:10181000D51CE61CF71CFE01E759FE4FA081B0E085
:10182000D09728EE33E00E941810C60ED71EE81E8F
:10183000F91EFE01E859FE4FA081B0E0D09720E1EB
:1018400037E20E941810C60ED71EE81EF91EFE01D0
:10185000EA59FE4FA081B0E0D09720EA36E841E097
:1018600050E00E942A10C60ED71EE81EF91EFE0187
:10187000EB59FE4FA081B0E0D09720E432E44FE076
:1018800050E00E942A106C0D7D1D8E1D9F1D2CE3C3
:1018900030E040E050E00E94461029013A01FE018C
:1018A000EC59FE4FA081B0E0D09720E836E948E936
:1018B00050E00E942A106B017C01CB30D10540F131
:1018C000FE01ED59FE4F80818D3269F0A081B0E0BC
:1018D000D09720E031EE45EF55E00E942A10C60E69
:1018E000D71EE81EF91ECC30D10590F0CE59DE4F40
:1018F00088818D3269F0A881B0E0D09720E03AEC81
:101900004AE95BE30E942A10C60ED71EE81EF91EA4
:10191000C701B601640D751D861D971D20916E01CE
:101920002D3209F020E32093460120E03AEC4AE909
:101930005BE30E944610205D2093470120E031EEDA
:1019400045EF55E00E944610205D2093480120E8B5
:1019500036E948E950E00E944610205D2093490195
:101960002EE220934A0120E432E44FE050E00E944E
:10197000461020EA36E841E050E00E94461020E19F
:1019800037E240E050E00E944610205D20934B017A
:1019900028EE33E040E050E00E944610205D2093A6
:1019A0004C01A50194010E944610205D20934D0139
:1019B0002AE030E040E050E00E944610205D209395
:1019C0004E01605D60934F0110925001C2E8D1E07A
:1019D00009900020E9F72197C258D140DD27FE0188
:1019E000E058FE4FC080D12C20E3C21AD108EE246B
:1019F000D7FCE094FE2CFE01E158FE4FA081B0E040
:101A0000D097FE01E258FE4F408150E0405351090B
:101A10002AE030E00E9418102B013C0124E630E05F
:101A2000DA010E941810460E571E681E791EC40C5B
:101A3000D51CE61CF71CFE01E358FE4FA081B0E068
:101A4000D09728EE33E00E941810C60ED71EE81E6D
:101A5000F91EFE01E458FE4FA081B0E0D09720E1CE
:101A600037E20E941810C60ED71EE81EF91EFE01AE
:101A7000E658FE4FA081B0E0D09720EA36E841E07A
:101A800050E00E942A10C60ED71EE81EF91EFE0165
:101A9000E758FE4FA081B0E0D09720E432E44FE059
:101AA00050E00E942A106C0D7D1D8E1D9F1D2CE3A1
:101AB00030E040E050E00E94461069017A01FE01EA
:101AC000E858FE4FA081B0E0D09720E836E948E919
:101AD00050E00E942A102B013C01CB30D10590F040
:101AE000C958DE4F88818D3269F0A881B0E0D09767
:101AF00020E031EE45EF55E00E942A10460E571EB9
:101B0000681E791EC301B2016C0D7D1D8E1D9F1DC7
:101B1000209182012D3209F020E320935A0120E028
:101B200031EE45EF55E00E944610205D20935B01A9
:101B300020E836E948E950E00E944610205D2093F5
:101B40005C012EE220935D0120E432E44FE050E09E
:101B50000E94461020EA36E841E050E00E9446101C
:101B600020E137E240E050E00E944610205D2093E3
:101B70005E0128EE33E040E050E00E944610205D18
:101B800020935F01A50194010E944610205D2093DF
:101B900060012AE030E040E050E00E944610205D05
:101BA00020936101605D6093620110926301C1E066
:101BB00057C0809112038F3F09F4C9C0C3E081E090
:101BC0000E94660589E591E00E943E0384E00E9440
:101BD00066050E943A0787E791E00E943E038AE08B
:101BE0000E94660588E691E00E943E030E944F0332
:101BF000882309F40CC24CE050E06DE471E084E10C
:101C000093E00E9486104AEA64E173E088E692E07D
:101C10000E94F30291E0813009F0F9C1C15009F44A
:101C200093C0992361F281E00E9466058AE391E006
:101C30000E943E030E94A703C82F811103C087E3BF
:101C40000E94660585E00E94660589E591E00E9494
:101C50003E0385E00E946605C13009F078C0C0E00F
:101C6000809112038F3F09F473C081E00E946605E2
:101C700081E391E00E943E030E94A00481E00E9463
:101C8000660584EC94E00E943E0381E00E946605B4
:101C90008AEB94E00E943E0384E592E00E943203C6
:101CA00088EB92E00E943E0381E00E946605C1112C
:101CB00004C088E692E00E94320380E292E00E9433
:101CC0003E03C11103C08EE691E002C086E491E0BC
:101CD0000E94320385E192E00E943E03C11103C0DD
:101CE00082E891E002C08AE591E00E94320387E039
:101CF00092E00E943E0380E091E00E94320382E382
:101D000092E00E943E03C11103C082E891E002C04C
:101D10008AE591E00E94320380E392E00E943E0354
:101D2000C11103C08EE691E002C086E491E00E94FA
:101D300032038DE292E00E943E0381E00E9466053C
:101D40008AE10E94E50204C0913009F46CCFC0E042
:101D500086E391E00E9468108C0183E291E00E948A
:101D60006810C13009F08DC0209112032F3F09F097
:101D700088C0012B09F485C0892B09F482C086E351
:101D800091E00E946810EC018EE591E00E946810DD
:101D90006C0183E291E00E9468107C018BE491E089
:101DA0000E946810E81AF90AF7FE03C0F194E19462
:101DB000F1088BEFE816F1045CF4CC19DD09D7FFCC
:101DC00003C0D195C195D109CB3FD1050CF459C0C1
:101DD00081E00E94660584EC94E00E943E0381E06D
:101DE0000E9466058AEB94E00E943E0384E592E03F
:101DF0000E94320388EB92E00E943E0381E00E9441
:101E000066058FEC92E00E943E0382E392E00E941E
:101E10003E038AE591E00E94320380E392E00E9453
:101E20003E0386E491E00E9432038DE292E00E943C
:101E30003E0381E00E9466058AE10E94E5028AE095
:101E40000E94660581E0809312038BE990E00E9476
:101E50003E0381E00E9466058CE890E00E943E030C
:101E600081E00E94660584EC94E00E943E0381E0DC
:101E70000E94660585EA94E00E943E0382E00E948B
:101E800066058AE0EAE5F1E0A2E3B1E001900D9297
:101E90008A95E1F78BE0E6E4F1E0AEE1B1E0019094
:101EA0000D928A95E1F7809112038F3F29F080917E
:101EB000120381508093120380911203882369F0EA
:101EC000809112038F3F49F08CE30E9466058CE3FA
:101ED0000E9466058CE30E946605809112038111C1
:101EE00003C08AE00E946605809112038F3F09F0CB
:101EF00089C081E00E9466058091C00087FF03C011
:101F00008091C600F9CFC12C85E3D82E8CE0E82E55
:101F1000F12C0E9418068091C00091E0C91AD108E6
:101F2000E108F10809F46EC087FFF3CF0E944F0368
:101F3000882309F467C045E050E06CE874E084E170
:101F400093E00E9486104AEA64E173E088E692E03A
:101F50000E94F302813009F055C00E947B030E9469
:101F6000540445E050E06BE674E084E193E00E94A5
:101F7000861086E991E00E948F104AEA64E173E0DE
:101F80000E94F3028130F1F584EC94E00E943E035C
:101F900081E00E9466058AEB94E00E943E0384E59E
:101FA00092E00E94320388EB92E00E943E0381E0BF
:101FB0000E9466058CEB92E00E943E038AE10E943B
:101FC000E5028AE00E94660584EC94E00E943E03EC
:101FD00081E00E94660585EA94E00E943E0382E06B
:101FE0000E9466058BE990E00E943E0381E00E941A
:101FF00066058CE890E00E943E0381E00E94660541
:1020000010921203809112038111CBCB29C890E06A
:1020100005CEA29FB001B39FC001A39F700D811D8B
:102020001124911DB29F700D811D1124911D0895E1
:102030000E940910B7FF0895821B930B08950E9418
:102040000910A59F900DB49F900DA49F800D911D28
:1020500011240895B7FF0C941F100E941F10821BBB
:10206000930B0895AA1BBB1B51E107C0AA1FBB1FFE
:10207000A617B70710F0A61BB70B881F991F5A9514
:10208000A9F780959095BC01CD010895A1E21A2E83
:10209000AA1BBB1BFD010DC0AA1FBB1FEE1FFF1F0C
:1020A000A217B307E407F50720F0A21BB30BE40B5C
:1020B000F50B661F771F881F991F1A9469F76095A3
:1020C0007095809590959B01AC01BD01CF0108955D
:1020D000FC0188279927E89421912032E9F32930DF
:1020E00010F02E30C8F32B3241F02D3239F46894C1
:1020F00004C00E949910820F911D219120532A3013
:10210000C0F31EF4909581959F4F0895FB01DC016B
:1021100002C005900D9241505040D8F70895DC015F
:102120006C9161566A3108F0605E6F5B6D93C1F728
:1021300008957AE0979F902D879F802D910D11240F
:102140000895DC01CB01FC01F999FECF06C0F2BD78
:10215000E1BDF89A319600B40D9241505040B8F765
:102160000895DC01CB0103C02D910E94BC104150A9
:102170005040D0F70895262FF999FECF1FBA92BD8F
:1021800081BD20BD0FB6F894FA9AF99A0FBE019658
:062190000895F894FFCF52
:102196003030303030303030303030303030303039
:1021A6003030303030303030303030303030303029
:1021B6003030303030303030303030303030303019
:1021C6003030303030303030303030303030303009
:1021D60030303030303030303030303030303030F9
:1021E60030303030303030303030303030303030E9
:1021F60030303030303030303030303030303030D9
:1022060030303030303030303030303030303030C8
:1022160030303030303030303030303030303030B8
:10222600303030303030313233343536373839307B
:102236003132333435363738393031323334353656
:102246003738393031323334353637383930313240
:10225600333435363738393031323334353637382A
:102266003930313233343536373839303132333428
:102276003536373839303132333435363738393008
:102286003132333435363738393031323334353606
:1022960037383930313233343536373839303132F0
:1022A60033343536373839303132333435363738DA
:1022B60039303132333435363738393031323334D8
:1022C60035363738393031323334353637383930B8
:1022D60031323334353637383930313233343536B6
:1022E60037383930313233343536373839303132A0
:1022F600333435363738393031323334353637388A
:102306003930313233343536373839303132333487
:102316003536373839303132333435363738393067
:102326003132333435363738393031323334353665
:10233600373839303132333435363738393031324F
:102346003334353637383930313233343536373839
:102356003930313233343536373839303132333437
:102366003536373839303132333435363738393017
:102376003132333435363738393031323334353615
:1023860037383930313233343536373839303132FF
:1023960033343536373839303132333435363738E9
:0223A6003930CC
:00000001FF
