:100000000C9406020C94B8060C9423020C94230260
:100010000C9423020C9423020C9423020C942302CC
:100020000C9423020C9423020C9423020C942302BC
:100030000C9423020C9423020C9423020C942302AC
:100040000C9423020C9423020C9423020C9423029C
:100050000C9423020C9423020C9423020C9423028C
:100060000C9423020C94230241542B43474E5350CB
:1000700057523D310D0A0041542B43474E535057C0
:10008000523D300D0A0041542B43475053505752B4
:100090003D300D0A0041542B434750535253543DB9
:1000A000310D0A0041542B434750535253543D30B5
:1000B0000D0A0041542B43475053494E463D300DE5
:1000C0000A002B434750535354415455533A204C44
:1000D0006F636174696F6E20324420466978002B2B
:1000E000434750535354415455533A204C6F636126
:1000F00074696F6E203344204669780041542B4365
:100100004750535354415455533F0D0A0041542B0B
:10011000434750535057523D310D0A0041542B4331
:1001200042430D0A0041542B43495047534D4C4F15
:10013000433D312C310D0A002B53415042523A209D
:10014000312C310041542B53415042523D302C311F
:100150000D0A0041542B53415042523D322C310D77
:100160000A0041542B53415042523D312C310D0A6B
:100170000041542B53415042523D332C312C2250DC
:100180005744222C22696E7465726E6574220D0AC2
:100190000041542B53415042523D332C312C2255B7
:1001A000534552222C22696E7465726E6574220D5D
:1001B0000A0041542B53415042523D332C312C22E2
:1001C00041504E222C22696E7465726E6574220D48
:1001D0000A0041542B53415042523D332C312C22C2
:1001E000434F4E54595045222C2247505253220D12
:1001F0000A000A424154544552595B6D565D3D0018
:10020000204C415449545544453D00204C4F4E47E5
:100210005449545544453D000D0A002C000D0A2058
:10022000687474703A2F2F6D6170732E676F6F67EB
:100230006C652E636F6D2F6D6170733F713D004172
:10024000542B434E45544C494748543D300D0A0009
:10025000415426570D0A0041542B4950523D39361E
:1002600030300D0A0041542B4353434C4B3D300D6D
:100270000A0041542B4353434C4B3D310D0A00417E
:10028000542B4346554E3D310D0A0041542B4346F5
:10029000554E3D340D0A0041542B434C49503D31DD
:1002A0000D0A00220A0D004755415244204D4F448B
:1002B000452053544F5050454400414C4552542C16
:1002C00020504F534954494F4E204348414E4745D3
:1002D0004420544F203A2020004755415244204D9D
:1002E0004F44452041435449564154454420004120
:1002F00043544956415445442043414C4C532046B5
:10030000524F4D2000434F4D4D414E4420414343F9
:1003100045505445440A0053544F500047554152EC
:10032000440041435449564154450053494E474CBB
:1003300045004D554C544900434D543A0041542B0F
:10034000434E4D493D312C322C302C302C300D0A8F
:100350000041542B434D4744413D2244454C2041EC
:100360004C4C220D0A0041542B434D47533D220073
:1003700041542B434D47463D310D0A004154480A34
:100380000D0041542B43464752493D310A0D00416F
:10039000542B4350494E3D2231313131220A0D0058
:1003A000415445300A0D0041542B4350494E3F0AF9
:1003B0000D002B4350494E3A2053494D2050494E91
:1003C000002B4350494E3A20524541445900415474
:1003D0002B435245473D300A0D0041542B435245B3
:1003E000473F0A0D002B435245473A20302C350039
:1003F0002B435245473A20302C310052494E47009A
:100400004F4B0041540041540A0D000011241FBEFF
:10041000CFEFD8E0DEBFCDBF13E0A0E0B1E0E4E96C
:10042000FCE102C005900D92A231B107D9F713E0AB
:10043000A2E1B3E001C01D92A334B107E1F70E942D
:10044000C3060C94480E0C94000082E08093C00018
:100450001092C5008CE08093C400E1ECF0E0808154
:1004600088608083808180618083E2ECF0E080811D
:100470008660808308959091C00095FFFCCF8093A3
:10048000C60008958091C00087FFFCCF8091C60010
:100490000895CF93DF93AC01DC0190E020E03D9123
:1004A000FB01E90FF11D8081381320C090E0892FF6
:1004B000820FFA01E80FF11D3081C92FD0E0311110
:1004C0000BC0FB0101900020E9F73197E61BF70B09
:1004D000CE17DF0759F40FC0FB01EC0FFD1F808121
:1004E000882379F33813EDCF9F5FE1CF2F5F2A3A4E
:1004F000B1F680E001C081E0DF91CF910895CF9304
:10050000DF93EC018991882319F00E943B02FACF16
:10051000DF91CF910895CF93DF93EC01CE01FE01DF
:100520002491222331F02196FC0184910E943B0208
:10053000F5CFDF91CF910895CF9310924203C6E992
:100540000E944202282F30E02A30310579F02D3008
:10055000310561F0E0914203F0E0E859FD4F8083FE
:10056000809142038F5F809342030DC080914203CC
:10057000882349F0E0914203F0E0E859FD4F1082F2
:100580001092420302C0C150D9F681E0CF91089584
:10059000CF9310923F03C6E90E944202282F30E019
:1005A0002A30310579F02D30310561F0E0913F03BB
:1005B000F0E0EA56FE4F808380913F038F5F809387
:1005C0003F030DC080913F03882349F0E0913F0332
:1005D000F0E0EA56FE4F108210923F0302C0C15075
:1005E000D9F681E0CF910895CF9310923D031092F8
:1005F0003E0310924203C0E00E944202CF5F8C3261
:1006000019F0C431C9F75EC0C43109F45BC00E945F
:100610004202E0913D03F0E0E259FE4F8083909169
:100620003D039F5F90933D03CF5F8C3249F4E0918F
:100630003D03F0E0E359FE4F108210923D0305C0E8
:10064000C63429F7F4CFC63480F40E944202E09108
:100650003E03F0E0EE57FE4F808390913E039F5F94
:1006600090933E03CF5F8C3271F7E0913E03F0E050
:10067000EF57FE4F108210923E0305C02A3031051D
:10068000A9F0C63498F40E944202282F30E0E0918D
:100690004203F0E0E859FD4F8083809142038F5F71
:1006A00080934203CF5F2D30310541F7E091420343
:1006B000F0E0E959FD4F1082109242030E9442027D
:1006C00081E001C080E0CF910895CF931092410363
:1006D000C0E00E944202CF5F8A3311F0C639C9F7E9
:1006E0000E944202CF5F823211F0C639C8F30E94E5
:1006F0004202E0914103F0E0EC5AFD4F808390917B
:1007000041039F5F90934103CF5F823249F4E091B0
:100710004103F0E0ED5AFD4F10821092410307C0F3
:10072000C63928F3F4CF0D9749F0C63938F40E9442
:10073000420290E0CF5F8A309105A9F781E0CF9126
:100740000895109241031092420380E0E091420329
:10075000F0E0E859FD4F2081909142039F5F909314
:1007600042038F5F2A3311F0863981F7E09142030B
:10077000F0E0E859FD4F2081909142039F5F9093F4
:1007800042038F5F223211F0863980F3E0914203F9
:10079000F0E0E859FD4F2081909142039F5F9093D4
:1007A0004203E0914103F0E0EC5AFD4F2083909129
:1007B00041039F5F909341038F5F223211F086398E
:1007C00028F3E0914103F0E0ED5AFD4F10821092C2
:1007D00041031092420381E00895CF9310921303D6
:1007E000C0E00E944202CF5F8C3219F0C634C9F7D4
:1007F0002BC0C63449F10E944202CF5F8C3211F007
:10080000C634C9F70E944202282F30E0E09113035A
:10081000F0E0E050FF4F8083809113038F5F80935F
:100820001303CF5F2A30310529F02D30310511F047
:10083000C63440F3E0911303F0E0E150FF4F108223
:100840001092130381E001C080E0CF910895CF930F
:1008500010923D0310923E0310923C0383EB90E014
:100860000E948B02C0E00E944202CF5F8A3319F0DF
:10087000C431C9F775C0C43109F472C00E94420284
:10088000CF5F8C3211F0C639C9F70E944202E09165
:100890003E03F0E0EE57FE4F808390913E039F5F52
:1008A00090933E03CF5F8C3249F4E0913E03F0E039
:1008B000EF57FE4F108210923E0305C0C63928F351
:1008C000F4CFC63980F40E944202E0913D03F0E08B
:1008D000E259FE4F808390913D039F5F90933D03CB
:1008E000CF5F8C3271F7E0913D03F0E0E359FE4FAA
:1008F000108210923D0302C0C63940F40E944202A9
:10090000CF5F8C32C9F702C0C63940F40E94420260
:10091000CF5F8C32C9F702C0C63940F40E94420250
:10092000CF5F8C32C9F702C0C63980F40E94420200
:10093000E0913C03F0E0E65FFE4F808390913C0342
:100940009F5F90933C03CF5F8C3271F7E0913C0343
:10095000F0E0E75FFE4F108210923C0381E001C09F
:1009600080E0CF910895882361F026E033E14EEADC
:100970004A95F1F73A95E1F72A95D1F700C08150F1
:10098000F2CF0895CF93DF9380911203813021F04D
:10099000809112038530C9F481E090E00E94B30495
:1009A00088E690E00E948B0282E090E00E94B3040F
:1009B0008DE091E00E948B0282E090E00E94B304FF
:1009C00084EA90E00E948B0204C081E090E00E94E3
:1009D000B304C0E0809112038F3F21F08FE090E0DC
:1009E0000E94B3048CEF90E00E948B020E949C0254
:1009F000882309F446C04DE150E06FED70E084E1DA
:100A000093E00E942D0E64E173E088E692E00E947C
:100A10004902D82FC33119F0D13091F417C04DE1FC
:100A200050E062EC70E084E193E00E942D0E64E1FE
:100A300073E088E692E00E944902813069F706C0BF
:100A4000809112038F3FC1F1CF5F1BC00E9427042A
:100A500082E090E00E94B304C0911203C13071F5AE
:100A600086E890E00E948B0281E090E00E94B3044F
:100A700087E790E00E948B0281E090E00E94B3043F
:100A80001EC0C43108F4A6CF82E090E00E94B304F7
:100A900080911203813081F486E890E00E948B02FD
:100AA00081E090E00E94B30487E790E00E948B020F
:100AB00081E090E00E94B304C0E001C0C1E08C2F4F
:100AC000DF91CF91089520E12A95F1F700C00895B4
:100AD000CF9386E094E00E948B020E949C0243E048
:100AE00050E0882319F060E074E002C063E074E035
:100AF00084E193E00E942D0E64E173E088E692E0C9
:100B00000E944902C1E0813009F0C0E081E00E940A
:100B1000B304CC23F1F281E00E94B30480EA93E0B5
:100B20000E948B0281E00E94B30481E0CF9108957E
:100B3000CF9382E00E94B30487EA93E00E948B0285
:100B40000E949C028823A9F34DE050E061EC73E021
:100B500084E193E00E942D0E64E173E088E692E068
:100B60000E944902C82F4FE050E062EB73E084E13D
:100B700093E00E942D0E64E173E088E692E00E940B
:100B80004902813049F40E94B3048FE893E00E9447
:100B90008B0281E00E94B304C13059F681E0CF910D
:100BA0000895CF93DF9381E00E94B3048AED93E030
:100BB0000E948B020E949C02811102C0C8E122C0E7
:100BC0004BE050E060EF73E084E193E00E942D0E73
:100BD00064E173E088E692E00E944902813009F402
:100BE00084C04BE050E065EE73E084E193E00E9446
:100BF0002D0E64E173E088E692E00E9449028130A4
:100C0000E9F673C081E00E94B3048FE792E00E948E
:100C10008B028CE30E94B3048AED93E00E948B0266
:100C20000E949C02882309F462C04BE050E060EF10
:100C300073E084E193E00E942D0E64E173E088E6A6
:100C400092E00E944902D82F4BE050E065EE73E03D
:100C500084E193E00E942D0E64E173E088E692E067
:100C60000E944902813009F440C081E0D13009F48A
:100C700042C00E94B3048BE892E00E948B0281E0A4
:100C80000E94B30487E790E00E948B0281E00E94FB
:100C9000B30486E890E00E948B0281E00E94B304D6
:100CA00082E792E00E948B02DEE18CE30E94B304B3
:100CB000D150D9F7459886E094E00E948B0281E0FC
:100CC0000E94B30485E692E00E948B0281E00E94BC
:100CD000B304459A81E00E94B3048FE792E00E943A
:100CE0008B028CE30E94B30402C081E004C0C150B7
:100CF00009F088CF80E0DF91CF91089581E00E94D4
:100D0000B30482ED91E00E948B0281E00E94B30463
:100D100082EB91E00E948B0281E00E94B30481E9A2
:100D200091E00E948B0281E00E94B30481E791E090
:100D30000E948B0281E00E94B30481E0089583B792
:100D4000817F846083BF83B7816083BF52985A9A42
:100D5000F894E9E6F0E080818D7F808380818E7F4A
:100D60008083E89A7894889583B78E7F83BF0895AF
:100D70001F920F920FB60F921124E8980F900FBE9A
:100D80000F901F9018951092120352985A9A3D9AFC
:100D90004598459A0E9425028AE00E94B30480EAA1
:100DA00093E00E948B0281E00E94B3040E946805D8
:100DB00081E00E94B30487E592E00E948B0281E00B
:100DC0000E94B3048FE792E00E948B0281E00E94B0
:100DD000B3048EEC93E00E948B0281E00E94B30486
:100DE00080E592E00E948B0283E00E94B3040E949F
:100DF000980581E00E94B30480E793E00E948B0293
:100E000081E00E94B30481E593E00E948B028DE2B1
:100E10000E94B3040E94D10520EA822E26E8922E79
:100E2000AA24A394B12CCFEFD4E115E010921203C1
:100E300081E00E94B30487E992E00E948B0281E086
:100E40000E94B30480E793E00E948B0281E00E943D
:100E5000B3048DE393E00E948B0281E00E94B3040F
:100E600087E790E00E948B0281E00E94B30486E84D
:100E700090E00E948B0281E00E94B30482E792E03E
:100E80000E948B0282E00E94B30490E8C92E98EA87
:100E9000D92E92E1E92EFF24F3948091C00087FDC2
:100EA0002AC00E94630581E0C81AD108E108F10850
:100EB000A1F7459886E094E00E948B0281E00E94B1
:100EC000B30485E692E00E948B0281E00E94B304A5
:100ED000459A81E00E94B3040E94D10581E00E94FE
:100EE000B30482E792E00E948B0281E00E94B30487
:100EF00010921203CACF0E949C02882309F41FC2D9
:100F000045E050E068E373E084E193E00E942D0E39
:100F100064E173E088E692E00E944902813009F0C2
:100F20008DC10E94C8020E94A1031092120346E0E4
:100F300050E062E373E084E193E00E942D0E86E9C5
:100F400091E00E94360E64E173E00E944902813014
:100F500009F045C0459886E094E00E948B0281E04C
:100F60000E94B30485E692E00E948B0281E00E9419
:100F7000B304459A81E00E94B30480E793E00E94A5
:100F80008B0281E00E94B30486E693E00E948B020C
:100F900084E592E00E947F0283EA92E00E948B0245
:100FA00081E00E94B30485E093E00E948B028AE115
:100FB0000E943B028AE00E94B30480E793E00E9413
:100FC0008B0281E00E94B30481E593E00E948B02D2
:100FD00082E00E94B3041093120301E001C000E01C
:100FE00047E050E06BE273E084E193E00E942D0E55
:100FF00086E991E00E94360E64E173E00E944902A6
:10100000F82E91E0891344C0459886E094E00E9450
:101010008B0281E00E94B30485E692E00E948B027D
:1010200081E00E94B304459A81E00E94B30480E706
:1010300093E00E948B0281E00E94B30486E693E075
:101040000E948B0284E592E00E947F0283EA92E094
:101050000E948B0281E00E94B30485E093E00E942D
:101060008B028AE10E943B028AE00E94B30480E77F
:1010700093E00E948B0281E00E94B30481E593E03B
:101080000E948B0282E00E94B304F092120301E0FE
:1010900049E050E062E273E084E193E00E942D0EAB
:1010A00086E991E00E94360E64E173E00E944902F5
:1010B000813009F054C0459886E094E00E948B028C
:1010C00081E00E94B30485E692E00E948B0281E0F9
:1010D0000E94B304459A81E00E94B304E4E5F2E083
:1010E000A0E4B2E08D2F01900D928A95E1F780E7A0
:1010F00093E00E948B0281E00E94B30486E693E0B5
:101100000E948B0280E492E00E947F0283EA92E0D8
:101110000E948B0281E00E94B3048FEE92E00E9455
:101120008B0284E592E00E947F028AE10E943B02EA
:101130008AE00E94B30480E793E00E948B0281E082
:101140000E94B30481E593E00E948B0282E00E943A
:10115000B30410921203FF24F39400E001C0F02EB8
:1011600046E050E06CE173E084E193E00E942D0ED4
:1011700086E991E00E94360E64E173E00E94490224
:10118000813009F05DC0459886E094E00E948B02B2
:1011900081E00E94B30485E692E00E948B0281E028
:1011A0000E94B304459A81E00E94B30480E793E073
:1011B0000E948B0281E00E94B30486E693E00E94C5
:1011C0008B0284E592E00E947F0283EA92E00E9413
:1011D0008B0281E00E94B30489ED92E00E948B02B1
:1011E0008AE10E943B028AE00E94B30480E793E018
:1011F0000E948B0281E00E94B30481E593E00E948B
:101200008B0282E00E94B304C093120388E690E050
:101210000E948B0282E00E94B3048DE091E00E9464
:101220008B0282E00E94B30484EA90E00E948B0269
:1012300081E00E94B304FF24F39401C0F12C01E08B
:1012400045E050E06BEF73E084E193E00E942D0EE7
:1012500064E173E088E692E00E9449028130C1F5C2
:1012600045980E94650386E094E00E948B0281E02D
:101270000E94B30485E692E00E948B0281E00E9406
:10128000B304459A81E00E94B3048CE793E00E9486
:101290008B0281E00E94B30480E793E00E948B02FE
:1012A00081E00E94B30481E593E00E948B0282E01A
:1012B0000E94B30460E472E084E592E00E94490277
:1012C000813019F4809312033AC01092120302C0C5
:1012D000F11032C0459886E094E00E948B0281E0D4
:1012E0000E94B30485E692E00E948B0281E00E9496
:1012F000B304459A81E00E94B3040E9498050E94BD
:10130000D10581E00E94B30480E793E00E948B0244
:1013100081E00E94B30481E593E00E948B0282E0A9
:101320000E94B30484E491E00E948B0285E00E9455
:10133000B304109212037ACD002309F477CD0E94F2
:10134000C204813009F003C2CEE6D1E0099000204A
:10135000E9F72197CE56D140DD27FE01E459FE4F33
:10136000C080D12C80E3C81AD108EE24D7FCE094C9
:10137000FE2CFE01E559FE4FA081B0E0D097FE01A2
:10138000E659FE4F408150E0405351092AE030E0D9
:101390000E94C40D2B013C0124E630E0DA010E94DA
:1013A000C40D460E571E681E791EC40CD51CE61CC3
:1013B000F71CFE01E759FE4FA081B0E0D09728EE60
:1013C00033E00E94C40DC60ED71EE81EF91EFE01B2
:1013D000E859FE4FA081B0E0D09720E137E20E94AB
:1013E000C40DC60ED71EE81EF91EFE01EA59FE4FB7
:1013F000A081B0E0D09720EA36E841E050E00E94BA
:10140000CB0DC60ED71EE81EF91EFE01EB59FE4F8E
:10141000A081B0E0D09720E432E44FE050E00E9499
:10142000CB0D6C0D7D1D8E1D9F1D2CE330E040E02B
:1014300050E00E94D30D29013A01FE01EC59FE4F04
:10144000A081B0E0D09720E836E948E950E00E945A
:10145000CB0D6B017C01CB30D10540F1FE01ED5984
:10146000FE4F80818D3269F0A081B0E0D09720E0FE
:1014700031EE45EF55E00E94CB0DC60ED71EE81E9B
:10148000F91ECC30D10590F0CE59DE4F88818D32D7
:1014900069F0A881B0E0D09720E03AEC4AE95BE33C
:1014A0000E94CB0DC60ED71EE81EF91EC701B6015D
:1014B000640D751D861D971D20916E012D3209F05A
:1014C00020E32093460120E03AEC4AE95BE30E94E6
:1014D000D30D205D2093470120E031EE45EF55E02C
:1014E0000E94D30D205D2093480120E836E948E9A9
:1014F00050E00E94D30D205D209349012EE22093FD
:101500004A0120E432E44FE050E00E94D30DA501EF
:1015100094010E94D30D20E137E240E050E00E94A8
:10152000D30D205D20934B0128EE33E040E050E0E6
:101530000E94D30D205D20934C0124E630E040E072
:1015400050E00E94D30D205D20934D012AE030E051
:1015500040E050E00E94D30D205D20934E01605D7D
:1015600060934F0110925001C2E8D1E00990002031
:10157000E9F72197C258D140DD27FE01E058FE4F20
:10158000C080D12C90E3C91AD108EE24D7FCE09496
:10159000FE2CFE01E158FE4FA081B0E0D097FE0185
:1015A000E258FE4F408150E0405351092AE030E0BC
:1015B0000E94C40D2B013C0124E630E0DA010E94B8
:1015C000C40D460E571E681E791EC40CD51CE61CA1
:1015D000F71CFE01E358FE4FA081B0E0D09728EE43
:1015E00033E00E94C40DC60ED71EE81EF91EFE0190
:1015F000E458FE4FA081B0E0D09720E137E20E948E
:10160000C40DC60ED71EE81EF91EFE01E658FE4F99
:10161000A081B0E0D09720EA36E841E050E00E9497
:10162000CB0DC60ED71EE81EF91EFE01E758FE4F71
:10163000A081B0E0D09720E432E44FE050E00E9477
:10164000CB0D6C0D7D1D8E1D9F1D2CE330E040E009
:1016500050E00E94D30D69017A01FE01E858FE4F67
:10166000A081B0E0D09720E836E948E950E00E9438
:10167000CB0D2B013C01CB30D10590F0C958DE4F8A
:1016800088818D3269F0A881B0E0D09720E031EEFA
:1016900045EF55E00E94CB0D460E571E681E791E81
:1016A000C301B2016C0D7D1D8E1D9F1D2091820115
:1016B0002D3209F020E320935A0120E031EE45EF6E
:1016C00055E00E94D30D205D20935B0120E836E9B0
:1016D00048E950E00E94D30D205D20935C012EE28A
:1016E00020935D0120E432E44FE050E00E94D30DEE
:1016F000A50194010E94D30D20E137E240E050E0C3
:101700000E94D30D205D20935E0128EE33E040E07F
:1017100050E00E94D30D205D20935F0124E630E06D
:1017200040E050E00E94D30D205D209360012AE04C
:1017300030E040E050E00E94D30D205D2093610135
:10174000605D6093620110926301C1E056C08091B8
:1017500012038F3F09F451C1C3E081E00E94B3043A
:1017600084E491E00E948B0284E00E94B3040E9412
:101770007E0682E691E00E948B028AE00E94B3041A
:1017800083E591E00E948B020E949C02882309F469
:10179000F5C14CE050E068E371E084E193E00E9421
:1017A0002D0E64E173E088E692E00E94490291E028
:1017B000813009F0E3C1C15009F4E2C1992369F213
:1017C00081E00E94B30485E291E00E948B020E94B6
:1017D000F402C82F811103C087E30E94B30485E09F
:1017E0000E94B30484E491E00E948B0285E00E9491
:1017F000B304C13009F001C1C0E0809112038F3FF2
:1018000009F46EC081E00E94B3048CE191E00E9473
:101810008B020E94ED0381E00E94B30480E793E015
:101820000E948B0281E00E94B30486E693E00E944E
:101830008B0284E592E00E947F0283EA92E00E949C
:101840008B0281E00E94B304C11104C088E692E0DB
:101850000E947F028BE092E00E948B02C11103C0C4
:101860008EE691E002C086E491E00E947F0280E073
:1018700092E00E948B02C11103C082E891E002C095
:101880008AE591E00E947F0282EF91E00E948B0244
:1018900080E091E00E947F028DE192E00E948B0245
:1018A000C11103C082E891E002C08AE591E00E9484
:1018B0007F028BE192E00E948B02C11103C08EE691
:1018C00091E002C086E491E00E947F0288E192E00C
:1018D0000E948B0281E00E94B3048AE10E943B02D5
:1018E000C13009F08AC0809112038F3F09F085C092
:1018F00086E391E00E940F0EEC018EE591E00E94DC
:101900000F0E6C0183E291E00E940F0E7C018BE4CC
:1019100091E00E940F0EE81AF90AF7FE03C0F19455
:10192000E194F1088DE2E81681E0F8065CF4CC1948
:10193000DD09D7FF03C0D195C195D109CD32D14082
:101940000CF458C081E00E94B30480E793E00E9449
:101950008B0281E00E94B30486E693E00E948B0232
:1019600084E592E00E947F0283EA92E00E948B026B
:1019700081E00E94B3048AEB92E00E948B028DE129
:1019800092E00E948B028AE591E00E947F028BE147
:1019900092E00E948B0286E491E00E947F0288E13F
:1019A00092E00E948B0281E00E94B3048AE10E94CF
:1019B0003B028AE00E94B30481E08093120386E830
:1019C00090E00E948B0281E00E94B30487E790E0E0
:1019D0000E948B0281E00E94B30480E793E00E94A2
:1019E0008B0281E00E94B30481E593E00E948B02A8
:1019F00082E001C08CE30E94B3048AE0EAE5F1E0F2
:101A0000A2E3B1E001900D928A95E1F78BE0E6E464
:101A1000F1E0AEE1B1E001900D928A95E1F780919D
:101A200012038F3F29F0809112038150809312039B
:101A300080911203882369F0809112038F3F49F04F
:101A40008CE30E94B3048CE30E94B3048CE30E94F5
:101A5000B30480911203811103C08AE00E94B30491
:101A6000809112038F3F09F084C08091C00087FFEE
:101A700003C08091C600F9CFC12C85E3D82E8CE03D
:101A8000E82EF12C0E9463058091C00091E0C91AF4
:101A9000D108E108F10809F46CC087FFF3CF0E9478
:101AA0009C02882309F465C045E050E068E373E0D8
:101AB00084E193E00E942D0E64E173E088E692E0F9
:101AC0000E944902813009F054C00E94C8020E945D
:101AD000A10345E050E067E173E084E193E00E94F8
:101AE0002D0E86E991E00E94360E64E173E00E94BB
:101AF00049028130F1F580E793E00E948B0281E09A
:101B00000E94B30486E693E00E948B0284E592E093
:101B10000E947F0283EA92E00E948B0281E00E9491
:101B2000B30487EA92E00E948B028AE10E943B02A2
:101B30008AE00E94B30480E793E00E948B0281E078
:101B40000E94B30481E593E00E948B0282E00E9430
:101B5000B30486E890E00E948B0281E00E94B30407
:101B600087E790E00E948B0281E00E94B30410920C
:101B70001203809112038111E2CB55C990E01BCE74
:101B8000913009F03ACF1CCE0E94F50DB7FF0895B1
:101B9000821B930B0895B7FF0C94040E0E94040E51
:101BA000821B930B0895A1E21A2EAA1BBB1BFD01F9
:101BB0000DC0AA1FBB1FEE1FFF1FA217B307E4072C
:101BC000F50720F0A21BB30BE40BF50B661F771F84
:101BD000881F991F1A9469F7609570958095909564
:101BE0009B01AC01BD01CF010895A29FB001B39F3D
:101BF000C001A39F700D811D1124911DB29F700D16
:101C0000811D1124911D08950E94F50DA59F900D31
:101C1000B49F900DA49F800D911D11240895FC0187
:101C200088279927E89421912032E9F3293010F090
:101C30002E30C8F32B3241F02D3239F4689404C0B1
:101C40000E94400E820F911D219120532A30C0F333
:101C50001EF4909581959F4F0895FB01DC0102C011
:101C600005900D9241505040D8F70895DC016C91D9
:101C700061566A3108F0605E6F5B6D93C1F708953D
:101C80007AE0979F902D879F802D910D11240895C4
:041C9000F894FFCFF6
:101C94003030303030303030303030303030303040
:101CA4003030303030303030303030303030303030
:101CB4003030303030303030303030303030303020
:101CC4003030303030303030303030303030303010
:101CD4003030303030303030303030303030303000
:101CE40030303030303030303030303030303030F0
:101CF40030303030303030303030303030303030E0
:101D040030303030303030303030303030303030CF
:101D140030303030303030303030303030303030BF
:101D24003030303030303132333435363738393082
:101D3400313233343536373839303132333435365D
:101D44003738393031323334353637383930313247
:101D54003334353637383930313233343536373831
:101D6400393031323334353637383930313233342F
:101D7400353637383930313233343536373839300F
:101D8400313233343536373839303132333435360D
:101D940037383930313233343536373839303132F7
:101DA40033343536373839303132333435363738E1
:101DB40039303132333435363738393031323334DF
:101DC40035363738393031323334353637383930BF
:101DD40031323334353637383930313233343536BD
:101DE40037383930313233343536373839303132A7
:101DF4003334353637383930313233343536373891
:101E0400393031323334353637383930313233348E
:101E1400353637383930313233343536373839306E
:101E2400313233343536373839303132333435366C
:101E34003738393031323334353637383930313256
:101E44003334353637383930313233343536373840
:101E5400393031323334353637383930313233343E
:101E6400353637383930313233343536373839301E
:101E7400313233343536373839303132333435361C
:101E84003738393031323334353637383930313206
:101E940033343536373839303132333435363738F0
:021EA4003930D3
:00000001FF
